{
  "_format": "hh-sol-artifact-1",
  "contractName": "KaliWhitelistManager",
  "sourceName": "contracts/access/KaliWhiteListManager.sol",
  "abi": [
    {
      "inputs": [],
      "stateMutability": "nonpayable",
      "type": "constructor"
    },
    {
      "inputs": [],
      "name": "IdExists",
      "type": "error"
    },
    {
      "inputs": [],
      "name": "InvalidSignature",
      "type": "error"
    },
    {
      "inputs": [],
      "name": "NotOperator",
      "type": "error"
    },
    {
      "inputs": [],
      "name": "NotRooted",
      "type": "error"
    },
    {
      "inputs": [],
      "name": "NullId",
      "type": "error"
    },
    {
      "inputs": [],
      "name": "SignatureExpired",
      "type": "error"
    },
    {
      "inputs": [],
      "name": "WhitelistClaimed",
      "type": "error"
    },
    {
      "anonymous": false,
      "inputs": [
        {
          "indexed": true,
          "internalType": "uint256",
          "name": "listId",
          "type": "uint256"
        },
        {
          "indexed": true,
          "internalType": "address",
          "name": "account",
          "type": "address"
        },
        {
          "indexed": false,
          "internalType": "bool",
          "name": "approved",
          "type": "bool"
        }
      ],
      "name": "AccountWhitelisted",
      "type": "event"
    },
    {
      "anonymous": false,
      "inputs": [
        {
          "indexed": true,
          "internalType": "uint256",
          "name": "listId",
          "type": "uint256"
        },
        {
          "indexed": false,
          "internalType": "bytes32",
          "name": "merkleRoot",
          "type": "bytes32"
        }
      ],
      "name": "MerkleRootSet",
      "type": "event"
    },
    {
      "anonymous": false,
      "inputs": [
        {
          "indexed": true,
          "internalType": "uint256",
          "name": "listId",
          "type": "uint256"
        },
        {
          "indexed": true,
          "internalType": "address",
          "name": "operator",
          "type": "address"
        }
      ],
      "name": "WhitelistCreated",
      "type": "event"
    },
    {
      "anonymous": false,
      "inputs": [
        {
          "indexed": true,
          "internalType": "uint256",
          "name": "listId",
          "type": "uint256"
        },
        {
          "indexed": true,
          "internalType": "uint256",
          "name": "index",
          "type": "uint256"
        },
        {
          "indexed": true,
          "internalType": "address",
          "name": "account",
          "type": "address"
        }
      ],
      "name": "WhitelistJoined",
      "type": "event"
    },
    {
      "inputs": [],
      "name": "DOMAIN_SEPARATOR",
      "outputs": [
        {
          "internalType": "bytes32",
          "name": "",
          "type": "bytes32"
        }
      ],
      "stateMutability": "view",
      "type": "function"
    },
    {
      "inputs": [
        {
          "internalType": "uint256",
          "name": "listId",
          "type": "uint256"
        },
        {
          "internalType": "address[]",
          "name": "accounts",
          "type": "address[]"
        },
        {
          "internalType": "bytes32",
          "name": "merkleRoot",
          "type": "bytes32"
        }
      ],
      "name": "createWhitelist",
      "outputs": [],
      "stateMutability": "nonpayable",
      "type": "function"
    },
    {
      "inputs": [
        {
          "internalType": "uint256",
          "name": "listId",
          "type": "uint256"
        },
        {
          "internalType": "uint256",
          "name": "index",
          "type": "uint256"
        }
      ],
      "name": "isWhitelisted",
      "outputs": [
        {
          "internalType": "bool",
          "name": "",
          "type": "bool"
        }
      ],
      "stateMutability": "view",
      "type": "function"
    },
    {
      "inputs": [
        {
          "internalType": "uint256",
          "name": "listId",
          "type": "uint256"
        },
        {
          "internalType": "uint256",
          "name": "index",
          "type": "uint256"
        },
        {
          "internalType": "address",
          "name": "account",
          "type": "address"
        },
        {
          "internalType": "bytes32[]",
          "name": "merkleProof",
          "type": "bytes32[]"
        }
      ],
      "name": "joinWhitelist",
      "outputs": [],
      "stateMutability": "nonpayable",
      "type": "function"
    },
    {
      "inputs": [
        {
          "internalType": "uint256",
          "name": "",
          "type": "uint256"
        }
      ],
      "name": "merkleRoots",
      "outputs": [
        {
          "internalType": "bytes32",
          "name": "",
          "type": "bytes32"
        }
      ],
      "stateMutability": "view",
      "type": "function"
    },
    {
      "inputs": [
        {
          "internalType": "uint256",
          "name": "",
          "type": "uint256"
        }
      ],
      "name": "operatorOf",
      "outputs": [
        {
          "internalType": "address",
          "name": "",
          "type": "address"
        }
      ],
      "stateMutability": "view",
      "type": "function"
    },
    {
      "inputs": [
        {
          "internalType": "uint256",
          "name": "listId",
          "type": "uint256"
        },
        {
          "internalType": "bytes32",
          "name": "merkleRoot",
          "type": "bytes32"
        }
      ],
      "name": "setMerkleRoot",
      "outputs": [],
      "stateMutability": "nonpayable",
      "type": "function"
    },
    {
      "inputs": [
        {
          "internalType": "uint256",
          "name": "listId",
          "type": "uint256"
        },
        {
          "internalType": "address",
          "name": "account",
          "type": "address"
        },
        {
          "internalType": "bool",
          "name": "approved",
          "type": "bool"
        },
        {
          "internalType": "uint256",
          "name": "deadline",
          "type": "uint256"
        },
        {
          "internalType": "uint8",
          "name": "v",
          "type": "uint8"
        },
        {
          "internalType": "bytes32",
          "name": "r",
          "type": "bytes32"
        },
        {
          "internalType": "bytes32",
          "name": "s",
          "type": "bytes32"
        }
      ],
      "name": "whitelistAccountBySig",
      "outputs": [],
      "stateMutability": "nonpayable",
      "type": "function"
    },
    {
      "inputs": [
        {
          "internalType": "uint256",
          "name": "listId",
          "type": "uint256"
        },
        {
          "internalType": "address[]",
          "name": "accounts",
          "type": "address[]"
        },
        {
          "internalType": "bool[]",
          "name": "approvals",
          "type": "bool[]"
        }
      ],
      "name": "whitelistAccounts",
      "outputs": [],
      "stateMutability": "nonpayable",
      "type": "function"
    },
    {
      "inputs": [
        {
          "internalType": "uint256",
          "name": "",
          "type": "uint256"
        },
        {
          "internalType": "address",
          "name": "",
          "type": "address"
        }
      ],
      "name": "whitelistedAccounts",
      "outputs": [
        {
          "internalType": "bool",
          "name": "",
          "type": "bool"
        }
      ],
      "stateMutability": "view",
      "type": "function"
    }
  ],
  "bytecode": "0x60c060405234801561001057600080fd5b50466080526100e8604080518082018252601481527f4b616c6957686974656c6973744d616e6167657200000000000000000000000060209182015281517f8b73c3c69bb8fe3d512ecc4cf759cc79239f7b179b0ffacaa9a75d522b39400f818301527f9d13506c16755aa1aab79edb135869b513bb2ba8c8da635a541e84484c2441a5818401527fc89efdaa54c0f20c7adf612882df0950f5a951637e0307cdcb4c672f298b8bc660608201524660808201523060a0808301919091528351808303909101815260c0909101909252815191012090565b60a05260805160a051610ec561011060003960006104850152600061038c0152610ec56000f3fe608060405234801561001057600080fd5b50600436106100be5760003560e01c8063b4c72a2111610076578063bf7de7ef1161005b578063bf7de7ef1461018a578063d423ff091461019d578063f41875e1146101b057600080fd5b8063b4c72a2114610149578063bcd521bc1461015c57600080fd5b80633644e515116100a75780633644e515146100eb57806351ff08b41461010657806371c5ecb11461012957600080fd5b806318712c21146100c357806324bed919146100d8575b600080fd5b6100d66100d1366004610ae9565b61020b565b005b6100d66100e6366004610b57565b6102b9565b6100f3610388565b6040519081526020015b60405180910390f35b610119610114366004610ae9565b6104a7565b60405190151581526020016100fd565b6100f3610137366004610bd1565b60016020526000908152604090205481565b6100d6610157366004610c23565b6104f2565b61011961016a366004610c96565b600260209081526000928352604080842090915290825290205460ff1681565b6100d6610198366004610cc2565b610715565b6100d66101ab366004610d15565b6108b2565b6101e66101be366004610bd1565b60006020819052908152604090205473ffffffffffffffffffffffffffffffffffffffff1681565b60405173ffffffffffffffffffffffffffffffffffffffff90911681526020016100fd565b60008281526020819052604090205473ffffffffffffffffffffffffffffffffffffffff163314610268576040517f7c214f0400000000000000000000000000000000000000000000000000000000815260040160405180910390fd5b600082815260016020526040908190208290555182907fb04b7d6145a7588fdcf339a22877d5965f861c171204fc37688058c5f6c06d3b906102ad9084815260200190565b60405180910390a25050565b60008581526020819052604090205473ffffffffffffffffffffffffffffffffffffffff163314610316576040517f7c214f0400000000000000000000000000000000000000000000000000000000815260040160405180910390fd5b60005b83811015610380576103788686868481811061033757610337610d6c565b905060200201602081019061034c9190610d9b565b85858581811061035e5761035e610d6c565b90506020020160208101906103739190610dbd565b610a53565b600101610319565b505050505050565b60007f000000000000000000000000000000000000000000000000000000000000000046146104825750604080518082018252601481527f4b616c6957686974656c6973744d616e6167657200000000000000000000000060209182015281517f8b73c3c69bb8fe3d512ecc4cf759cc79239f7b179b0ffacaa9a75d522b39400f818301527f9d13506c16755aa1aab79edb135869b513bb2ba8c8da635a541e84484c2441a5818401527fc89efdaa54c0f20c7adf612882df0950f5a951637e0307cdcb4c672f298b8bc660608201524660808201523060a0808301919091528351808303909101815260c0909101909252815191012090565b507f000000000000000000000000000000000000000000000000000000000000000090565b6000806104b661010084610e07565b905060006104c661010085610e1b565b60009586526003602090815260408088209488529390529190942054600190911b908116149392505050565b8342111561052c576040517f0819bdcd00000000000000000000000000000000000000000000000000000000815260040160405180910390fd5b6000610536610388565b604080517f223305279dc2fe45bc45ddc2da120130bfdb577779bce6d83f41e5f7190701f9602082015273ffffffffffffffffffffffffffffffffffffffff8a169181019190915287151560608201526080810187905260a001604051602081830303815290604052805190602001206040516020016105e89291907f190100000000000000000000000000000000000000000000000000000000000081526002810192909252602282015260420190565b604080517fffffffffffffffffffffffffffffffffffffffffffffffffffffffffffffffe08184030181528282528051602091820120600080855291840180845281905260ff88169284019290925260608301869052608083018590529092509060019060a0016020604051602081039080840390855afa158015610671573d6000803e3d6000fd5b5050604080517fffffffffffffffffffffffffffffffffffffffffffffffffffffffffffffffe0015160008c81526020819052919091205490925073ffffffffffffffffffffffffffffffffffffffff80841691161490506106ff576040517f8baa579f00000000000000000000000000000000000000000000000000000000815260040160405180910390fd5b61070a898989610a53565b505050505050505050565b8361074c576040517fd9ca051200000000000000000000000000000000000000000000000000000000815260040160405180910390fd5b60008481526020819052604090205473ffffffffffffffffffffffffffffffffffffffff16156107a8576040517f80a8a73400000000000000000000000000000000000000000000000000000000815260040160405180910390fd5b600084815260208190526040902080547fffffffffffffffffffffffff0000000000000000000000000000000000000000163317905581156108585760005b82811015610829576108218585858481811061080557610805610d6c565b905060200201602081019061081a9190610d9b565b6001610a53565b6001016107e7565b50604051339085907fcb35a830e6cf5dc5248b3b7114d1b7945368ab798d358d784789259c514cd5e590600090a35b80156108ac57600084815260016020526040908190208290555184907fb04b7d6145a7588fdcf339a22877d5965f861c171204fc37688058c5f6c06d3b906108a39084815260200190565b60405180910390a25b50505050565b6108bc85856104a7565b156108f3576040517fafb3768900000000000000000000000000000000000000000000000000000000815260040160405180910390fd5b6000848152602084905260408120905b8281101561096857600084848381811061091f5761091f610d6c565b9050602002013590508083116109445760008381526020829052604090209250610955565b600081815260208490526040902092505b508061096081610e2f565b915050610903565b5060008681526001602052604090205481146109b0576040517f636a0d3a00000000000000000000000000000000000000000000000000000000815260040160405180910390fd5b60006109be61010087610e07565b905060006109ce61010088610e1b565b600089815260036020908152604080832086845290915290208054600180841b909117909155909150610a049089908890610a53565b8573ffffffffffffffffffffffffffffffffffffffff1687897fc96dfd3b43a994b17985f30c839e3d35936838dc924ff595357ec84f393db14f60405160405180910390a45050505050505050565b600083815260026020908152604080832073ffffffffffffffffffffffffffffffffffffffff86168085529083529281902080547fffffffffffffffffffffffffffffffffffffffffffffffffffffffffffffff0016851515908117909155905190815285917f6c013c340e1ef4f57c40269d3ed32d24f1a8db072b0158815d41353e4ae65ed6910160405180910390a3505050565b60008060408385031215610afc57600080fd5b50508035926020909101359150565b60008083601f840112610b1d57600080fd5b50813567ffffffffffffffff811115610b3557600080fd5b6020830191508360208260051b8501011115610b5057600080fd5b9250929050565b600080600080600060608688031215610b6f57600080fd5b85359450602086013567ffffffffffffffff80821115610b8e57600080fd5b610b9a89838a01610b0b565b90965094506040880135915080821115610bb357600080fd5b50610bc088828901610b0b565b969995985093965092949392505050565b600060208284031215610be357600080fd5b5035919050565b803573ffffffffffffffffffffffffffffffffffffffff81168114610c0e57600080fd5b919050565b80358015158114610c0e57600080fd5b600080600080600080600060e0888a031215610c3e57600080fd5b87359650610c4e60208901610bea565b9550610c5c60408901610c13565b945060608801359350608088013560ff81168114610c7957600080fd5b9699959850939692959460a0840135945060c09093013592915050565b60008060408385031215610ca957600080fd5b82359150610cb960208401610bea565b90509250929050565b60008060008060608587031215610cd857600080fd5b84359350602085013567ffffffffffffffff811115610cf657600080fd5b610d0287828801610b0b565b9598909750949560400135949350505050565b600080600080600060808688031215610d2d57600080fd5b8535945060208601359350610d4460408701610bea565b9250606086013567ffffffffffffffff811115610d6057600080fd5b610bc088828901610b0b565b7f4e487b7100000000000000000000000000000000000000000000000000000000600052603260045260246000fd5b600060208284031215610dad57600080fd5b610db682610bea565b9392505050565b600060208284031215610dcf57600080fd5b610db682610c13565b7f4e487b7100000000000000000000000000000000000000000000000000000000600052601260045260246000fd5b600082610e1657610e16610dd8565b500490565b600082610e2a57610e2a610dd8565b500690565b60007fffffffffffffffffffffffffffffffffffffffffffffffffffffffffffffffff821415610e88577f4e487b7100000000000000000000000000000000000000000000000000000000600052601160045260246000fd5b506001019056fea26469706673582212208163171accd38e9139ef6ce49430a4e706a3f9f3ce0669e3846bed365beccb4e64736f6c634300080b0033",
  "linkReferences": {},
  "deployedLinkReferences": {}
}