{
  "_format": "hh-sol-artifact-1",
  "contractName": "KaliDAOvesting",
  "sourceName": "contracts/extensions/vesting/shares/KaliDAOvesting.sol",
  "abi": [
    {
      "inputs": [],
      "name": "AmountNotSpanMultiple",
      "type": "error"
    },
    {
      "inputs": [],
      "name": "InsufficientAmount",
      "type": "error"
    },
    {
      "inputs": [],
      "name": "InvalidTimespan",
      "type": "error"
    },
    {
      "inputs": [],
      "name": "NoArrayParity",
      "type": "error"
    },
    {
      "inputs": [],
      "name": "NotDAO",
      "type": "error"
    },
    {
      "inputs": [],
      "name": "NotVestee",
      "type": "error"
    },
    {
      "inputs": [],
      "name": "Reentrancy",
      "type": "error"
    },
    {
      "inputs": [],
      "name": "VestExceeded",
      "type": "error"
    },
    {
      "inputs": [],
      "name": "VestNotStarted",
      "type": "error"
    },
    {
      "anonymous": false,
      "inputs": [
        {
          "indexed": true,
          "internalType": "address",
          "name": "dao",
          "type": "address"
        },
        {
          "indexed": false,
          "internalType": "uint256",
          "name": "vestingId",
          "type": "uint256"
        },
        {
          "indexed": true,
          "internalType": "address",
          "name": "member",
          "type": "address"
        },
        {
          "indexed": true,
          "internalType": "uint256",
          "name": "amountOut",
          "type": "uint256"
        }
      ],
      "name": "ExtensionCalled",
      "type": "event"
    },
    {
      "anonymous": false,
      "inputs": [
        {
          "indexed": true,
          "internalType": "address",
          "name": "dao",
          "type": "address"
        },
        {
          "indexed": false,
          "internalType": "address[]",
          "name": "accounts",
          "type": "address[]"
        },
        {
          "indexed": false,
          "internalType": "uint256[]",
          "name": "amounts",
          "type": "uint256[]"
        },
        {
          "indexed": false,
          "internalType": "uint256[]",
          "name": "startTimes",
          "type": "uint256[]"
        },
        {
          "indexed": false,
          "internalType": "uint256[]",
          "name": "endTimes",
          "type": "uint256[]"
        }
      ],
      "name": "ExtensionSet",
      "type": "event"
    },
    {
      "inputs": [
        {
          "internalType": "address",
          "name": "account",
          "type": "address"
        },
        {
          "internalType": "uint256",
          "name": "amount",
          "type": "uint256"
        },
        {
          "internalType": "bytes",
          "name": "extensionData",
          "type": "bytes"
        }
      ],
      "name": "callExtension",
      "outputs": [
        {
          "internalType": "bool",
          "name": "mint",
          "type": "bool"
        },
        {
          "internalType": "uint256",
          "name": "amountOut",
          "type": "uint256"
        }
      ],
      "stateMutability": "nonpayable",
      "type": "function"
    },
    {
      "inputs": [
        {
          "internalType": "bytes",
          "name": "extensionData",
          "type": "bytes"
        }
      ],
      "name": "setExtension",
      "outputs": [],
      "stateMutability": "nonpayable",
      "type": "function"
    },
    {
      "inputs": [
        {
          "internalType": "uint256",
          "name": "",
          "type": "uint256"
        }
      ],
      "name": "vestings",
      "outputs": [
        {
          "internalType": "address",
          "name": "dao",
          "type": "address"
        },
        {
          "internalType": "address",
          "name": "account",
          "type": "address"
        },
        {
          "internalType": "uint128",
          "name": "depositAmount",
          "type": "uint128"
        },
        {
          "internalType": "uint128",
          "name": "withdrawAmount",
          "type": "uint128"
        },
        {
          "internalType": "uint128",
          "name": "rate",
          "type": "uint128"
        },
        {
          "internalType": "uint64",
          "name": "startTime",
          "type": "uint64"
        },
        {
          "internalType": "uint64",
          "name": "endTime",
          "type": "uint64"
        }
      ],
      "stateMutability": "view",
      "type": "function"
    }
  ],
  "bytecode": "0x6080604052600160005534801561001557600080fd5b50610dd1806100256000396000f3fe608060405234801561001057600080fd5b50600436106100415760003560e01c806336ceb11a14610046578063821bee7314610075578063fb0c444114610195575b600080fd5b6100596100543660046109a0565b6101aa565b6040805192151583526020830191909152015b60405180910390f35b6101236100833660046109fa565b6002602081905260009182526040909120805460018201549282015460039092015473ffffffffffffffffffffffffffffffffffffffff91821693909116916fffffffffffffffffffffffffffffffff80821692700100000000000000000000000000000000928390048216929181169167ffffffffffffffff908204811691780100000000000000000000000000000000000000000000000090041687565b6040805173ffffffffffffffffffffffffffffffffffffffff98891681529790961660208801526fffffffffffffffffffffffffffffffff94851695870195909552918316606086015291909116608084015267ffffffffffffffff90811660a08401521660c082015260e00161006c565b6101a86101a3366004610a13565b61043b565b005b600080600260005414156101ea576040517fab143c0600000000000000000000000000000000000000000000000000000000815260040160405180910390fd5b600260009081556101fd848601866109fa565b600081815260026020526040902080549192509073ffffffffffffffffffffffffffffffffffffffff16331461025f576040517f4ead1a5e00000000000000000000000000000000000000000000000000000000815260040160405180910390fd5b600181015473ffffffffffffffffffffffffffffffffffffffff8981169116146102b5576040517f839d37c000000000000000000000000000000000000000000000000000000000815260040160405180910390fd5b6003810154700100000000000000000000000000000000900467ffffffffffffffff16421015610311576040517f6ecf3bd700000000000000000000000000000000000000000000000000000000815260040160405180910390fd5b6003810154600282015470010000000000000000000000000000000080830467ffffffffffffffff1642039291046fffffffffffffffffffffffffffffffff908116911682020380891115610392576040517feabe059300000000000000000000000000000000000000000000000000000000815260040160405180910390fd5b50506002810180546fffffffffffffffffffffffffffffffff70010000000000000000000000000000000080830482168b01821602911617905560405160019450879350839073ffffffffffffffffffffffffffffffffffffffff8a169033907f8eb983999480d8b7b7ef6a885abb1e00246dedd23ca9d375629a0c0217590b4e906104219087815260200190565b60405180910390a450506001600055909590945092505050565b60026000541415610478576040517fab143c0600000000000000000000000000000000000000000000000000000000815260040160405180910390fd5b6002600090815580808061048e85870187610b62565b9350935093509350825184511415806104a957508151835114155b806104b657508051825114155b156104ed576040517f266c51bb00000000000000000000000000000000000000000000000000000000815260040160405180910390fd5b60005b84518110156108cc5781818151811061050b5761050b610c6b565b602002602001015183828151811061052557610525610c6b565b60200260200101511115610565576040517f3308c5af00000000000000000000000000000000000000000000000000000000815260040160405180910390fd5b600083828151811061057957610579610c6b565b602002602001015183838151811061059357610593610c6b565b6020026020010151039050808583815181106105b1576105b1610c6b565b602002602001015111156105f1576040517f5945ea5600000000000000000000000000000000000000000000000000000000815260040160405180910390fd5b8085838151811061060457610604610c6b565b60200260200101518161061957610619610c9a565b0615610651576040517f6e10bb2000000000000000000000000000000000000000000000000000000000815260040160405180910390fd5b60008186848151811061066657610666610c6b565b60200260200101518161067b5761067b610c9a565b600180548082019091556040805160e081019091523381528a519390920493509160208201908a90879081106106b3576106b3610c6b565b602002602001015173ffffffffffffffffffffffffffffffffffffffff1681526020018886815181106106e8576106e8610c6b565b60200260200101516fffffffffffffffffffffffffffffffff16815260200160006fffffffffffffffffffffffffffffffff168152602001836fffffffffffffffffffffffffffffffff16815260200187868151811061074a5761074a610c6b565b602002602001015167ffffffffffffffff16815260200186868151811061077357610773610c6b565b60209081029190910181015167ffffffffffffffff90811690925260009384526002808252604094859020845181547fffffffffffffffffffffffff000000000000000000000000000000000000000090811673ffffffffffffffffffffffffffffffffffffffff928316178355938601516001808401805490961691909216179093559484015160608501516fffffffffffffffffffffffffffffffff9182167001000000000000000000000000000000009183168202179287019290925560808501516003909601805460a087015160c090970151979092167fffffffffffffffff000000000000000000000000000000000000000000000000909216919091179484169091029390931777ffffffffffffffffffffffffffffffffffffffffffffffff16780100000000000000000000000000000000000000000000000094909216939093021790559290920191506104f09050565b503373ffffffffffffffffffffffffffffffffffffffff167fa3d5df5dd2fd55df7e8f7706676224837e15619932e90443a9d06f499c7a4565858585856040516109199493929190610d04565b60405180910390a25050600160005550505050565b803573ffffffffffffffffffffffffffffffffffffffff8116811461095257600080fd5b919050565b60008083601f84011261096957600080fd5b50813567ffffffffffffffff81111561098157600080fd5b60208301915083602082850101111561099957600080fd5b9250929050565b600080600080606085870312156109b657600080fd5b6109bf8561092e565b935060208501359250604085013567ffffffffffffffff8111156109e257600080fd5b6109ee87828801610957565b95989497509550505050565b600060208284031215610a0c57600080fd5b5035919050565b60008060208385031215610a2657600080fd5b823567ffffffffffffffff811115610a3d57600080fd5b610a4985828601610957565b90969095509350505050565b7f4e487b7100000000000000000000000000000000000000000000000000000000600052604160045260246000fd5b604051601f82017fffffffffffffffffffffffffffffffffffffffffffffffffffffffffffffffe016810167ffffffffffffffff81118282101715610acb57610acb610a55565b604052919050565b600067ffffffffffffffff821115610aed57610aed610a55565b5060051b60200190565b600082601f830112610b0857600080fd5b81356020610b1d610b1883610ad3565b610a84565b82815260059290921b84018101918181019086841115610b3c57600080fd5b8286015b84811015610b575780358352918301918301610b40565b509695505050505050565b60008060008060808587031215610b7857600080fd5b843567ffffffffffffffff80821115610b9057600080fd5b818701915087601f830112610ba457600080fd5b81356020610bb4610b1883610ad3565b82815260059290921b8401810191818101908b841115610bd357600080fd5b948201945b83861015610bf857610be98661092e565b82529482019490820190610bd8565b98505088013592505080821115610c0e57600080fd5b610c1a88838901610af7565b94506040870135915080821115610c3057600080fd5b610c3c88838901610af7565b93506060870135915080821115610c5257600080fd5b50610c5f87828801610af7565b91505092959194509250565b7f4e487b7100000000000000000000000000000000000000000000000000000000600052603260045260246000fd5b7f4e487b7100000000000000000000000000000000000000000000000000000000600052601260045260246000fd5b600081518084526020808501945080840160005b83811015610cf957815187529582019590820190600101610cdd565b509495945050505050565b6080808252855190820181905260009060209060a0840190828901845b82811015610d5357815173ffffffffffffffffffffffffffffffffffffffff1684529284019290840190600101610d21565b50505083810382850152610d678188610cc9565b9150508281036040840152610d7c8186610cc9565b90508281036060840152610d908185610cc9565b97965050505050505056fea264697066735822122022e8b70074f9cd316f47174d46a220707a03cfc8319bb67eaff2caf5f7b3fb2f64736f6c634300080b0033",
  "linkReferences": {},
  "deployedLinkReferences": {}
}