{
  "_format": "hh-sol-artifact-1",
  "contractName": "KaliDAOflat",
  "sourceName": "contracts/flat/KaliDAOflat.sol",
  "abi": [
    {
      "inputs": [],
      "name": "AlreadyVoted",
      "type": "error"
    },
    {
      "inputs": [],
      "name": "Initialized",
      "type": "error"
    },
    {
      "inputs": [],
      "name": "InvalidNonce",
      "type": "error"
    },
    {
      "inputs": [],
      "name": "InvalidSignature",
      "type": "error"
    },
    {
      "inputs": [],
      "name": "NoArrayParity",
      "type": "error"
    },
    {
      "inputs": [],
      "name": "NotCurrentProposal",
      "type": "error"
    },
    {
      "inputs": [],
      "name": "NotDetermined",
      "type": "error"
    },
    {
      "inputs": [],
      "name": "NotExtension",
      "type": "error"
    },
    {
      "inputs": [],
      "name": "NotMember",
      "type": "error"
    },
    {
      "inputs": [],
      "name": "NotProposer",
      "type": "error"
    },
    {
      "inputs": [],
      "name": "NotVoteable",
      "type": "error"
    },
    {
      "inputs": [],
      "name": "NullAddress",
      "type": "error"
    },
    {
      "inputs": [],
      "name": "Paused",
      "type": "error"
    },
    {
      "inputs": [],
      "name": "PrevNotProcessed",
      "type": "error"
    },
    {
      "inputs": [],
      "name": "QuorumMax",
      "type": "error"
    },
    {
      "inputs": [],
      "name": "Reentrancy",
      "type": "error"
    },
    {
      "inputs": [],
      "name": "SignatureExpired",
      "type": "error"
    },
    {
      "inputs": [],
      "name": "Sponsored",
      "type": "error"
    },
    {
      "inputs": [],
      "name": "SupermajorityBounds",
      "type": "error"
    },
    {
      "inputs": [],
      "name": "TypeBounds",
      "type": "error"
    },
    {
      "inputs": [],
      "name": "Uint32max",
      "type": "error"
    },
    {
      "inputs": [],
      "name": "Uint96max",
      "type": "error"
    },
    {
      "inputs": [],
      "name": "VotingNotEnded",
      "type": "error"
    },
    {
      "inputs": [],
      "name": "VotingPeriodBounds",
      "type": "error"
    },
    {
      "anonymous": false,
      "inputs": [
        {
          "indexed": true,
          "internalType": "address",
          "name": "owner",
          "type": "address"
        },
        {
          "indexed": true,
          "internalType": "address",
          "name": "spender",
          "type": "address"
        },
        {
          "indexed": false,
          "internalType": "uint256",
          "name": "amount",
          "type": "uint256"
        }
      ],
      "name": "Approval",
      "type": "event"
    },
    {
      "anonymous": false,
      "inputs": [
        {
          "indexed": true,
          "internalType": "address",
          "name": "delegator",
          "type": "address"
        },
        {
          "indexed": true,
          "internalType": "address",
          "name": "fromDelegate",
          "type": "address"
        },
        {
          "indexed": true,
          "internalType": "address",
          "name": "toDelegate",
          "type": "address"
        }
      ],
      "name": "DelegateChanged",
      "type": "event"
    },
    {
      "anonymous": false,
      "inputs": [
        {
          "indexed": true,
          "internalType": "address",
          "name": "delegate",
          "type": "address"
        },
        {
          "indexed": false,
          "internalType": "uint256",
          "name": "previousBalance",
          "type": "uint256"
        },
        {
          "indexed": false,
          "internalType": "uint256",
          "name": "newBalance",
          "type": "uint256"
        }
      ],
      "name": "DelegateVotesChanged",
      "type": "event"
    },
    {
      "anonymous": false,
      "inputs": [
        {
          "indexed": true,
          "internalType": "address",
          "name": "proposer",
          "type": "address"
        },
        {
          "indexed": true,
          "internalType": "uint256",
          "name": "proposal",
          "type": "uint256"
        }
      ],
      "name": "NewProposal",
      "type": "event"
    },
    {
      "anonymous": false,
      "inputs": [
        {
          "indexed": false,
          "internalType": "bool",
          "name": "paused",
          "type": "bool"
        }
      ],
      "name": "PauseFlipped",
      "type": "event"
    },
    {
      "anonymous": false,
      "inputs": [
        {
          "indexed": true,
          "internalType": "address",
          "name": "proposer",
          "type": "address"
        },
        {
          "indexed": true,
          "internalType": "uint256",
          "name": "proposal",
          "type": "uint256"
        }
      ],
      "name": "ProposalCancelled",
      "type": "event"
    },
    {
      "anonymous": false,
      "inputs": [
        {
          "indexed": true,
          "internalType": "uint256",
          "name": "proposal",
          "type": "uint256"
        },
        {
          "indexed": true,
          "internalType": "bool",
          "name": "didProposalPass",
          "type": "bool"
        }
      ],
      "name": "ProposalProcessed",
      "type": "event"
    },
    {
      "anonymous": false,
      "inputs": [
        {
          "indexed": true,
          "internalType": "address",
          "name": "sponsor",
          "type": "address"
        },
        {
          "indexed": true,
          "internalType": "uint256",
          "name": "proposal",
          "type": "uint256"
        }
      ],
      "name": "ProposalSponsored",
      "type": "event"
    },
    {
      "anonymous": false,
      "inputs": [
        {
          "indexed": true,
          "internalType": "address",
          "name": "from",
          "type": "address"
        },
        {
          "indexed": true,
          "internalType": "address",
          "name": "to",
          "type": "address"
        },
        {
          "indexed": false,
          "internalType": "uint256",
          "name": "amount",
          "type": "uint256"
        }
      ],
      "name": "Transfer",
      "type": "event"
    },
    {
      "anonymous": false,
      "inputs": [
        {
          "indexed": true,
          "internalType": "address",
          "name": "voter",
          "type": "address"
        },
        {
          "indexed": true,
          "internalType": "uint256",
          "name": "proposal",
          "type": "uint256"
        },
        {
          "indexed": true,
          "internalType": "bool",
          "name": "approve",
          "type": "bool"
        }
      ],
      "name": "VoteCast",
      "type": "event"
    },
    {
      "inputs": [],
      "name": "DELEGATION_TYPEHASH",
      "outputs": [
        {
          "internalType": "bytes32",
          "name": "",
          "type": "bytes32"
        }
      ],
      "stateMutability": "view",
      "type": "function"
    },
    {
      "inputs": [],
      "name": "DOMAIN_SEPARATOR",
      "outputs": [
        {
          "internalType": "bytes32",
          "name": "",
          "type": "bytes32"
        }
      ],
      "stateMutability": "view",
      "type": "function"
    },
    {
      "inputs": [],
      "name": "PERMIT_TYPEHASH",
      "outputs": [
        {
          "internalType": "bytes32",
          "name": "",
          "type": "bytes32"
        }
      ],
      "stateMutability": "view",
      "type": "function"
    },
    {
      "inputs": [],
      "name": "VOTE_HASH",
      "outputs": [
        {
          "internalType": "bytes32",
          "name": "",
          "type": "bytes32"
        }
      ],
      "stateMutability": "view",
      "type": "function"
    },
    {
      "inputs": [
        {
          "internalType": "address",
          "name": "",
          "type": "address"
        },
        {
          "internalType": "address",
          "name": "",
          "type": "address"
        }
      ],
      "name": "allowance",
      "outputs": [
        {
          "internalType": "uint256",
          "name": "",
          "type": "uint256"
        }
      ],
      "stateMutability": "view",
      "type": "function"
    },
    {
      "inputs": [
        {
          "internalType": "address",
          "name": "spender",
          "type": "address"
        },
        {
          "internalType": "uint256",
          "name": "amount",
          "type": "uint256"
        }
      ],
      "name": "approve",
      "outputs": [
        {
          "internalType": "bool",
          "name": "",
          "type": "bool"
        }
      ],
      "stateMutability": "nonpayable",
      "type": "function"
    },
    {
      "inputs": [
        {
          "internalType": "address",
          "name": "",
          "type": "address"
        }
      ],
      "name": "balanceOf",
      "outputs": [
        {
          "internalType": "uint256",
          "name": "",
          "type": "uint256"
        }
      ],
      "stateMutability": "view",
      "type": "function"
    },
    {
      "inputs": [
        {
          "internalType": "address",
          "name": "extension",
          "type": "address"
        },
        {
          "internalType": "uint256",
          "name": "amount",
          "type": "uint256"
        },
        {
          "internalType": "bytes",
          "name": "extensionData",
          "type": "bytes"
        }
      ],
      "name": "callExtension",
      "outputs": [
        {
          "internalType": "bool",
          "name": "mint",
          "type": "bool"
        },
        {
          "internalType": "uint256",
          "name": "amountOut",
          "type": "uint256"
        }
      ],
      "stateMutability": "payable",
      "type": "function"
    },
    {
      "inputs": [
        {
          "internalType": "uint256",
          "name": "proposal",
          "type": "uint256"
        }
      ],
      "name": "cancelProposal",
      "outputs": [],
      "stateMutability": "nonpayable",
      "type": "function"
    },
    {
      "inputs": [
        {
          "internalType": "address",
          "name": "",
          "type": "address"
        },
        {
          "internalType": "uint256",
          "name": "",
          "type": "uint256"
        }
      ],
      "name": "checkpoints",
      "outputs": [
        {
          "internalType": "uint32",
          "name": "fromTimestamp",
          "type": "uint32"
        },
        {
          "internalType": "uint96",
          "name": "votes",
          "type": "uint96"
        }
      ],
      "stateMutability": "view",
      "type": "function"
    },
    {
      "inputs": [],
      "name": "decimals",
      "outputs": [
        {
          "internalType": "uint8",
          "name": "",
          "type": "uint8"
        }
      ],
      "stateMutability": "view",
      "type": "function"
    },
    {
      "inputs": [
        {
          "internalType": "address",
          "name": "delegatee",
          "type": "address"
        }
      ],
      "name": "delegate",
      "outputs": [],
      "stateMutability": "nonpayable",
      "type": "function"
    },
    {
      "inputs": [
        {
          "internalType": "address",
          "name": "delegatee",
          "type": "address"
        },
        {
          "internalType": "uint256",
          "name": "nonce",
          "type": "uint256"
        },
        {
          "internalType": "uint256",
          "name": "deadline",
          "type": "uint256"
        },
        {
          "internalType": "uint8",
          "name": "v",
          "type": "uint8"
        },
        {
          "internalType": "bytes32",
          "name": "r",
          "type": "bytes32"
        },
        {
          "internalType": "bytes32",
          "name": "s",
          "type": "bytes32"
        }
      ],
      "name": "delegateBySig",
      "outputs": [],
      "stateMutability": "nonpayable",
      "type": "function"
    },
    {
      "inputs": [
        {
          "internalType": "address",
          "name": "delegator",
          "type": "address"
        }
      ],
      "name": "delegates",
      "outputs": [
        {
          "internalType": "address",
          "name": "",
          "type": "address"
        }
      ],
      "stateMutability": "view",
      "type": "function"
    },
    {
      "inputs": [],
      "name": "docs",
      "outputs": [
        {
          "internalType": "string",
          "name": "",
          "type": "string"
        }
      ],
      "stateMutability": "view",
      "type": "function"
    },
    {
      "inputs": [
        {
          "internalType": "address",
          "name": "",
          "type": "address"
        }
      ],
      "name": "extensions",
      "outputs": [
        {
          "internalType": "bool",
          "name": "",
          "type": "bool"
        }
      ],
      "stateMutability": "view",
      "type": "function"
    },
    {
      "inputs": [
        {
          "internalType": "address",
          "name": "account",
          "type": "address"
        }
      ],
      "name": "getCurrentVotes",
      "outputs": [
        {
          "internalType": "uint256",
          "name": "",
          "type": "uint256"
        }
      ],
      "stateMutability": "view",
      "type": "function"
    },
    {
      "inputs": [
        {
          "internalType": "address",
          "name": "account",
          "type": "address"
        },
        {
          "internalType": "uint256",
          "name": "timestamp",
          "type": "uint256"
        }
      ],
      "name": "getPriorVotes",
      "outputs": [
        {
          "internalType": "uint96",
          "name": "",
          "type": "uint96"
        }
      ],
      "stateMutability": "view",
      "type": "function"
    },
    {
      "inputs": [
        {
          "internalType": "uint256",
          "name": "proposal",
          "type": "uint256"
        }
      ],
      "name": "getProposalArrays",
      "outputs": [
        {
          "internalType": "address[]",
          "name": "accounts",
          "type": "address[]"
        },
        {
          "internalType": "uint256[]",
          "name": "amounts",
          "type": "uint256[]"
        },
        {
          "internalType": "bytes[]",
          "name": "payloads",
          "type": "bytes[]"
        }
      ],
      "stateMutability": "view",
      "type": "function"
    },
    {
      "inputs": [
        {
          "internalType": "string",
          "name": "name_",
          "type": "string"
        },
        {
          "internalType": "string",
          "name": "symbol_",
          "type": "string"
        },
        {
          "internalType": "string",
          "name": "docs_",
          "type": "string"
        },
        {
          "internalType": "bool",
          "name": "paused_",
          "type": "bool"
        },
        {
          "internalType": "address[]",
          "name": "extensions_",
          "type": "address[]"
        },
        {
          "internalType": "bytes[]",
          "name": "extensionsData_",
          "type": "bytes[]"
        },
        {
          "internalType": "address[]",
          "name": "voters_",
          "type": "address[]"
        },
        {
          "internalType": "uint256[]",
          "name": "shares_",
          "type": "uint256[]"
        },
        {
          "internalType": "uint32",
          "name": "votingPeriod_",
          "type": "uint32"
        },
        {
          "internalType": "uint8[13]",
          "name": "govSettings_",
          "type": "uint8[13]"
        }
      ],
      "name": "init",
      "outputs": [],
      "stateMutability": "payable",
      "type": "function"
    },
    {
      "inputs": [
        {
          "internalType": "address",
          "name": "",
          "type": "address"
        }
      ],
      "name": "lastYesVote",
      "outputs": [
        {
          "internalType": "uint256",
          "name": "",
          "type": "uint256"
        }
      ],
      "stateMutability": "view",
      "type": "function"
    },
    {
      "inputs": [
        {
          "internalType": "bytes[]",
          "name": "data",
          "type": "bytes[]"
        }
      ],
      "name": "multicall",
      "outputs": [
        {
          "internalType": "bytes[]",
          "name": "results",
          "type": "bytes[]"
        }
      ],
      "stateMutability": "nonpayable",
      "type": "function"
    },
    {
      "inputs": [],
      "name": "name",
      "outputs": [
        {
          "internalType": "string",
          "name": "",
          "type": "string"
        }
      ],
      "stateMutability": "view",
      "type": "function"
    },
    {
      "inputs": [
        {
          "internalType": "address",
          "name": "",
          "type": "address"
        }
      ],
      "name": "nonces",
      "outputs": [
        {
          "internalType": "uint256",
          "name": "",
          "type": "uint256"
        }
      ],
      "stateMutability": "view",
      "type": "function"
    },
    {
      "inputs": [
        {
          "internalType": "address",
          "name": "",
          "type": "address"
        }
      ],
      "name": "numCheckpoints",
      "outputs": [
        {
          "internalType": "uint256",
          "name": "",
          "type": "uint256"
        }
      ],
      "stateMutability": "view",
      "type": "function"
    },
    {
      "inputs": [
        {
          "internalType": "address",
          "name": "",
          "type": "address"
        },
        {
          "internalType": "address",
          "name": "",
          "type": "address"
        },
        {
          "internalType": "uint256[]",
          "name": "",
          "type": "uint256[]"
        },
        {
          "internalType": "uint256[]",
          "name": "",
          "type": "uint256[]"
        },
        {
          "internalType": "bytes",
          "name": "",
          "type": "bytes"
        }
      ],
      "name": "onERC1155BatchReceived",
      "outputs": [
        {
          "internalType": "bytes4",
          "name": "sig",
          "type": "bytes4"
        }
      ],
      "stateMutability": "pure",
      "type": "function"
    },
    {
      "inputs": [
        {
          "internalType": "address",
          "name": "",
          "type": "address"
        },
        {
          "internalType": "address",
          "name": "",
          "type": "address"
        },
        {
          "internalType": "uint256",
          "name": "",
          "type": "uint256"
        },
        {
          "internalType": "uint256",
          "name": "",
          "type": "uint256"
        },
        {
          "internalType": "bytes",
          "name": "",
          "type": "bytes"
        }
      ],
      "name": "onERC1155Received",
      "outputs": [
        {
          "internalType": "bytes4",
          "name": "sig",
          "type": "bytes4"
        }
      ],
      "stateMutability": "pure",
      "type": "function"
    },
    {
      "inputs": [
        {
          "internalType": "address",
          "name": "",
          "type": "address"
        },
        {
          "internalType": "address",
          "name": "",
          "type": "address"
        },
        {
          "internalType": "uint256",
          "name": "",
          "type": "uint256"
        },
        {
          "internalType": "bytes",
          "name": "",
          "type": "bytes"
        }
      ],
      "name": "onERC721Received",
      "outputs": [
        {
          "internalType": "bytes4",
          "name": "sig",
          "type": "bytes4"
        }
      ],
      "stateMutability": "pure",
      "type": "function"
    },
    {
      "inputs": [],
      "name": "paused",
      "outputs": [
        {
          "internalType": "bool",
          "name": "",
          "type": "bool"
        }
      ],
      "stateMutability": "view",
      "type": "function"
    },
    {
      "inputs": [
        {
          "internalType": "address",
          "name": "owner",
          "type": "address"
        },
        {
          "internalType": "address",
          "name": "spender",
          "type": "address"
        },
        {
          "internalType": "uint256",
          "name": "value",
          "type": "uint256"
        },
        {
          "internalType": "uint256",
          "name": "deadline",
          "type": "uint256"
        },
        {
          "internalType": "uint8",
          "name": "v",
          "type": "uint8"
        },
        {
          "internalType": "bytes32",
          "name": "r",
          "type": "bytes32"
        },
        {
          "internalType": "bytes32",
          "name": "s",
          "type": "bytes32"
        }
      ],
      "name": "permit",
      "outputs": [],
      "stateMutability": "nonpayable",
      "type": "function"
    },
    {
      "inputs": [
        {
          "internalType": "uint256",
          "name": "proposal",
          "type": "uint256"
        }
      ],
      "name": "processProposal",
      "outputs": [
        {
          "internalType": "bool",
          "name": "didProposalPass",
          "type": "bool"
        },
        {
          "internalType": "bytes[]",
          "name": "results",
          "type": "bytes[]"
        }
      ],
      "stateMutability": "nonpayable",
      "type": "function"
    },
    {
      "inputs": [],
      "name": "proposalCount",
      "outputs": [
        {
          "internalType": "uint256",
          "name": "",
          "type": "uint256"
        }
      ],
      "stateMutability": "view",
      "type": "function"
    },
    {
      "inputs": [
        {
          "internalType": "uint256",
          "name": "",
          "type": "uint256"
        }
      ],
      "name": "proposalStates",
      "outputs": [
        {
          "internalType": "bool",
          "name": "passed",
          "type": "bool"
        },
        {
          "internalType": "bool",
          "name": "processed",
          "type": "bool"
        }
      ],
      "stateMutability": "view",
      "type": "function"
    },
    {
      "inputs": [
        {
          "internalType": "enum KaliDAOflat.ProposalType",
          "name": "",
          "type": "uint8"
        }
      ],
      "name": "proposalVoteTypes",
      "outputs": [
        {
          "internalType": "enum KaliDAOflat.VoteType",
          "name": "",
          "type": "uint8"
        }
      ],
      "stateMutability": "view",
      "type": "function"
    },
    {
      "inputs": [
        {
          "internalType": "uint256",
          "name": "",
          "type": "uint256"
        }
      ],
      "name": "proposals",
      "outputs": [
        {
          "internalType": "enum KaliDAOflat.ProposalType",
          "name": "proposalType",
          "type": "uint8"
        },
        {
          "internalType": "string",
          "name": "description",
          "type": "string"
        },
        {
          "internalType": "uint256",
          "name": "prevProposal",
          "type": "uint256"
        },
        {
          "internalType": "uint96",
          "name": "yesVotes",
          "type": "uint96"
        },
        {
          "internalType": "uint96",
          "name": "noVotes",
          "type": "uint96"
        },
        {
          "internalType": "uint32",
          "name": "creationTime",
          "type": "uint32"
        },
        {
          "internalType": "address",
          "name": "proposer",
          "type": "address"
        }
      ],
      "stateMutability": "view",
      "type": "function"
    },
    {
      "inputs": [
        {
          "internalType": "enum KaliDAOflat.ProposalType",
          "name": "proposalType",
          "type": "uint8"
        },
        {
          "internalType": "string",
          "name": "description",
          "type": "string"
        },
        {
          "internalType": "address[]",
          "name": "accounts",
          "type": "address[]"
        },
        {
          "internalType": "uint256[]",
          "name": "amounts",
          "type": "uint256[]"
        },
        {
          "internalType": "bytes[]",
          "name": "payloads",
          "type": "bytes[]"
        }
      ],
      "name": "propose",
      "outputs": [
        {
          "internalType": "uint256",
          "name": "proposal",
          "type": "uint256"
        }
      ],
      "stateMutability": "nonpayable",
      "type": "function"
    },
    {
      "inputs": [],
      "name": "quorum",
      "outputs": [
        {
          "internalType": "uint8",
          "name": "",
          "type": "uint8"
        }
      ],
      "stateMutability": "view",
      "type": "function"
    },
    {
      "inputs": [
        {
          "internalType": "uint256",
          "name": "proposal",
          "type": "uint256"
        }
      ],
      "name": "sponsorProposal",
      "outputs": [],
      "stateMutability": "nonpayable",
      "type": "function"
    },
    {
      "inputs": [],
      "name": "supermajority",
      "outputs": [
        {
          "internalType": "uint8",
          "name": "",
          "type": "uint8"
        }
      ],
      "stateMutability": "view",
      "type": "function"
    },
    {
      "inputs": [],
      "name": "symbol",
      "outputs": [
        {
          "internalType": "string",
          "name": "",
          "type": "string"
        }
      ],
      "stateMutability": "view",
      "type": "function"
    },
    {
      "inputs": [],
      "name": "totalSupply",
      "outputs": [
        {
          "internalType": "uint256",
          "name": "",
          "type": "uint256"
        }
      ],
      "stateMutability": "view",
      "type": "function"
    },
    {
      "inputs": [
        {
          "internalType": "address",
          "name": "to",
          "type": "address"
        },
        {
          "internalType": "uint256",
          "name": "amount",
          "type": "uint256"
        }
      ],
      "name": "transfer",
      "outputs": [
        {
          "internalType": "bool",
          "name": "",
          "type": "bool"
        }
      ],
      "stateMutability": "nonpayable",
      "type": "function"
    },
    {
      "inputs": [
        {
          "internalType": "address",
          "name": "from",
          "type": "address"
        },
        {
          "internalType": "address",
          "name": "to",
          "type": "address"
        },
        {
          "internalType": "uint256",
          "name": "amount",
          "type": "uint256"
        }
      ],
      "name": "transferFrom",
      "outputs": [
        {
          "internalType": "bool",
          "name": "",
          "type": "bool"
        }
      ],
      "stateMutability": "nonpayable",
      "type": "function"
    },
    {
      "inputs": [
        {
          "internalType": "uint256",
          "name": "proposal",
          "type": "uint256"
        },
        {
          "internalType": "bool",
          "name": "approve",
          "type": "bool"
        }
      ],
      "name": "vote",
      "outputs": [],
      "stateMutability": "nonpayable",
      "type": "function"
    },
    {
      "inputs": [
        {
          "internalType": "address",
          "name": "signer",
          "type": "address"
        },
        {
          "internalType": "uint256",
          "name": "proposal",
          "type": "uint256"
        },
        {
          "internalType": "bool",
          "name": "approve",
          "type": "bool"
        },
        {
          "internalType": "uint8",
          "name": "v",
          "type": "uint8"
        },
        {
          "internalType": "bytes32",
          "name": "r",
          "type": "bytes32"
        },
        {
          "internalType": "bytes32",
          "name": "s",
          "type": "bytes32"
        }
      ],
      "name": "voteBySig",
      "outputs": [],
      "stateMutability": "nonpayable",
      "type": "function"
    },
    {
      "inputs": [
        {
          "internalType": "uint256",
          "name": "",
          "type": "uint256"
        },
        {
          "internalType": "address",
          "name": "",
          "type": "address"
        }
      ],
      "name": "voted",
      "outputs": [
        {
          "internalType": "bool",
          "name": "",
          "type": "bool"
        }
      ],
      "stateMutability": "view",
      "type": "function"
    },
    {
      "inputs": [],
      "name": "votingPeriod",
      "outputs": [
        {
          "internalType": "uint32",
          "name": "",
          "type": "uint32"
        }
      ],
      "stateMutability": "view",
      "type": "function"
    },
    {
      "stateMutability": "payable",
      "type": "receive"
    }
  ],
  "bytecode": "0x60806040526001600c5534801561001557600080fd5b506159b780620000266000396000f3fe60806040526004361061030c5760003560e01c80636fcfff451161019a578063b4b5ea57116100e1578063da35c6641161008a578063e63bc62d11610064578063e63bc62d14610ad0578063e7a324dc14610afe578063f23a6e6114610b3257600080fd5b8063da35c66414610a62578063dd62ed3e14610a78578063e0a8f6f514610ab057600080fd5b8063c3cda520116100bb578063c3cda52014610a02578063c9d27afe14610a22578063d505accf14610a4257600080fd5b8063b4b5ea571461096a578063b9a08bd71461098a578063bc197c81146109ba57600080fd5b80637ecebe00116101435780639b4a89ce1161011d5780639b4a89ce146108fd578063a9059cbb1461091d578063ac9650d81461093d57600080fd5b80637ecebe001461089b57806395d89b41146108c85780639746d940146108dd57600080fd5b806372737773116101745780637273777314610817578063782d6fe11461082a5780637867f7271461086757600080fd5b80636fcfff451461078057806370a08231146107ad57806371cda63b146107da57600080fd5b806330adf81f1161025e5780635b1d1c1f116102075780635c975abb116101e15780635c975abb146106e757806366ee13b3146107015780636a74effc1461075157600080fd5b80635b1d1c1f1461068f5780635c19a95c146106a45780635c31f220146106c457600080fd5b806336ceb11a1161023857806336ceb11a146105f25780635277b4ae1461061c578063587cde1e1461065757600080fd5b806330adf81f14610594578063313ce567146105c85780633644e515146105dd57600080fd5b8063150b7a02116102c05780631a9f05971161029a5780631a9f05971461052557806323b872dd14610547578063255c87bf1461056757600080fd5b8063150b7a02146104575780631703a018146104cd57806318160ddd1461050157600080fd5b806306fdde03116102f157806306fdde0314610386578063095ea7b3146103a85780630cdfebfa146103d857600080fd5b8063013cf08b1461031857806302a251a31461035457600080fd5b3661031357005b600080fd5b34801561032457600080fd5b50610338610333366004614902565b610b78565b60405161034b97969594939291906149a6565b60405180910390f35b34801561036057600080fd5b506010546103719063ffffffff1681565b60405163ffffffff909116815260200161034b565b34801561039257600080fd5b5061039b610c82565b60405161034b9190614a18565b3480156103b457600080fd5b506103c86103c3366004614a47565b610d10565b604051901515815260200161034b565b3480156103e457600080fd5b5061042e6103f3366004614a47565b600a60209081526000928352604080842090915290825290205463ffffffff81169064010000000090046bffffffffffffffffffffffff1682565b6040805163ffffffff90931683526bffffffffffffffffffffffff90911660208301520161034b565b34801561046357600080fd5b5061049c610472366004614aba565b507f150b7a0200000000000000000000000000000000000000000000000000000000949350505050565b6040517fffffffff00000000000000000000000000000000000000000000000000000000909116815260200161034b565b3480156104d957600080fd5b506010546104ef90640100000000900460ff1681565b60405160ff909116815260200161034b565b34801561050d57600080fd5b5061051760025481565b60405190815260200161034b565b34801561053157600080fd5b50610545610540366004614b53565b610d7d565b005b34801561055357600080fd5b506103c8610562366004614bb4565b610f4a565b34801561057357600080fd5b50610517610582366004614bf0565b60166020526000908152604090205481565b3480156105a057600080fd5b506105177f6e71edae12b1b97f4d1f60370fef10105fa2faae0126114a169c64845d6126c981565b3480156105d457600080fd5b506104ef601281565b3480156105e957600080fd5b506105176110ad565b610605610600366004614c0b565b6110cc565b60408051921515835260208301919091520161034b565b34801561062857600080fd5b506103c8610637366004614c65565b601560209081526000928352604080842090915290825290205460ff1681565b34801561066357600080fd5b50610677610672366004614bf0565b611285565b6040516001600160a01b03909116815260200161034b565b34801561069b57600080fd5b5061039b6112b5565b3480156106b057600080fd5b506105456106bf366004614bf0565b6112c2565b3480156106d057600080fd5b506010546104ef9065010000000000900460ff1681565b3480156106f357600080fd5b506008546103c89060ff1681565b34801561070d57600080fd5b5061073a61071c366004614902565b60136020526000908152604090205460ff8082169161010090041682565b60408051921515835290151560208301520161034b565b34801561075d57600080fd5b5061077161076c366004614902565b6112cf565b60405161034b93929190614ce3565b34801561078c57600080fd5b5061051761079b366004614bf0565b600b6020526000908152604090205481565b3480156107b957600080fd5b506105176107c8366004614bf0565b60036020526000908152604090205481565b3480156107e657600080fd5b5061080a6107f5366004614d89565b60146020526000908152604090205460ff1681565b60405161034b9190614da4565b6105456108253660046150ab565b611486565b34801561083657600080fd5b5061084a610845366004614a47565b611cba565b6040516bffffffffffffffffffffffff909116815260200161034b565b34801561087357600080fd5b506105177f39bf2cb78b4fee6e3427925ed40cf1f955458a02ac29c312c7be5fde74d0dd7a81565b3480156108a757600080fd5b506105176108b6366004614bf0565b60076020526000908152604090205481565b3480156108d457600080fd5b5061039b611ec1565b3480156108e957600080fd5b506105456108f8366004614902565b611ece565b34801561090957600080fd5b50610517610918366004615238565b6120a4565b34801561092957600080fd5b506103c8610938366004614a47565b6126b3565b34801561094957600080fd5b5061095d61095836600461530f565b61277e565b60405161034b9190615351565b34801561097657600080fd5b50610517610985366004614bf0565b6128ee565b34801561099657600080fd5b506103c86109a5366004614bf0565b60116020526000908152604090205460ff1681565b3480156109c657600080fd5b5061049c6109d5366004615364565b507fbc197c8100000000000000000000000000000000000000000000000000000000979650505050505050565b348015610a0e57600080fd5b50610545610a1d36600461541f565b612967565b348015610a2e57600080fd5b50610545610a3d36600461545d565b612b73565b348015610a4e57600080fd5b50610545610a5d36600461548d565b612bc9565b348015610a6e57600080fd5b50610517600f5481565b348015610a8457600080fd5b50610517610a933660046154f7565b600460209081526000928352604080842090915290825290205481565b348015610abc57600080fd5b50610545610acb366004614902565b612e18565b348015610adc57600080fd5b50610af0610aeb366004614902565b612fed565b60405161034b929190615521565b348015610b0a57600080fd5b506105177fe48329057bfd03d55e49b547132e39cffd9c1820ad7b9d4c5307691425d15adf81565b348015610b3e57600080fd5b5061049c610b4d366004615544565b507ff23a6e610000000000000000000000000000000000000000000000000000000095945050505050565b6012602052600090815260409020805460018201805460ff9092169291610b9e906155bc565b80601f0160208091040260200160405190810160405280929190818152602001828054610bca906155bc565b8015610c175780601f10610bec57610100808354040283529160200191610c17565b820191906000526020600020905b815481529060010190602001808311610bfa57829003601f168201915b5050505060058301546006840154600790940154929390926bffffffffffffffffffffffff80831693506c01000000000000000000000000830416917801000000000000000000000000000000000000000000000000900463ffffffff16906001600160a01b031687565b60008054610c8f906155bc565b80601f0160208091040260200160405190810160405280929190818152602001828054610cbb906155bc565b8015610d085780601f10610cdd57610100808354040283529160200191610d08565b820191906000526020600020905b815481529060010190602001808311610ceb57829003601f168201915b505050505081565b3360008181526004602090815260408083206001600160a01b038716808552925280832085905551919290917f8c5be1e5ebec7d5bd14f71427d1e84f3dd0314c0f7b2291e5b200ac8c7c3b92590610d6b9086815260200190565b60405180910390a35060015b92915050565b6002600c541415610dba576040517fab143c0600000000000000000000000000000000000000000000000000000000815260040160405180910390fd5b6002600c556000610dc96110ad565b604080517f39bf2cb78b4fee6e3427925ed40cf1f955458a02ac29c312c7be5fde74d0dd7a60208201526001600160a01b038a169181019190915260608101889052861515608082015260a00160405160208183030381529060405280519060200120604051602001610e6e9291907f190100000000000000000000000000000000000000000000000000000000000081526002810192909252602282015260420190565b60408051601f198184030181528282528051602091820120600080855291840180845281905260ff88169284019290925260608301869052608083018590529092509060019060a0016020604051602081039080840390855afa158015610ed9573d6000803e3d6000fd5b505050602060405103519050876001600160a01b0316816001600160a01b031614610f30576040517f8baa579f00000000000000000000000000000000000000000000000000000000815260040160405180910390fd5b610f3b888888613b64565b50506001600c55505050505050565b60085460009060ff1615610f8a576040517f9e87fac800000000000000000000000000000000000000000000000000000000815260040160405180910390fd5b6001600160a01b038416600090815260046020908152604080832033845290915290205460001914610fef576001600160a01b038416600090815260046020908152604080832033845290915281208054849290610fe990849061563f565b90915550505b6001600160a01b0384166000908152600360205260408120805484929061101790849061563f565b90915550506001600160a01b038316600090815260036020526040902080548301905561105561104685611285565b61104f85611285565b84613dd9565b826001600160a01b0316846001600160a01b03167fddf252ad1be2c89b69c2b068fc378daa952ba7f163c4a11628f55a4df523b3ef8460405161109a91815260200190565b60405180910390a35060015b9392505050565b600060055446146110c5576110c0613f62565b905090565b5060065490565b6000806002600c54141561110c576040517fab143c0600000000000000000000000000000000000000000000000000000000815260040160405180910390fd5b6002600c556001600160a01b03861660009081526011602052604090205460ff1615801561114a57503360009081526011602052604090205460ff16155b15611181576040517fcb92848a00000000000000000000000000000000000000000000000000000000815260040160405180910390fd5b3360009081526011602052604081205460ff16156111b15750849050856111aa84860186615656565b9250611249565b506040517f36ceb11a00000000000000000000000000000000000000000000000000000000815233906001600160a01b038816906336ceb11a9034906112019085908b908b908b90600401615673565b604080518083038185885af115801561121e573d6000803e3d6000fd5b50505050506040513d601f19601f8201168201806040525081019061124391906156b9565b90935091505b821561126457811561125f5761125f8183613ffc565b611274565b811561127457611274818761408a565b506001600c55909590945092505050565b6001600160a01b0380821660009081526009602052604081205490911680156112ae57806110a6565b5090919050565b600d8054610c8f906155bc565b6112cc3382614112565b50565b606080606060006012600086815260200190815260200160002090508060020181600301826004018280548060200260200160405190810160405280929190818152602001828054801561134c57602002820191906000526020600020905b81546001600160a01b0316815260019091019060200180831161132e575b505050505092508180548060200260200160405190810160405280929190818152602001828054801561139e57602002820191906000526020600020905b81548152602001906001019080831161138a575b5050505050915080805480602002602001604051908101604052809291908181526020016000905b828210156114725783829060005260206000200180546113e5906155bc565b80601f0160208091040260200160405190810160405280929190818152602001828054611411906155bc565b801561145e5780601f106114335761010080835404028352916020019161145e565b820191906000526020600020905b81548152906001019060200180831161144157829003601f168201915b5050505050815260200190600101906113c6565b50959b949a50919850929650505050505050565b6002600c5414156114c3576040517fab143c0600000000000000000000000000000000000000000000000000000000815260040160405180910390fd5b6002600c558651885114611503576040517f266c51bb00000000000000000000000000000000000000000000000000000000815260040160405180910390fd5b60105463ffffffff1615611543576040517f5daa87a000000000000000000000000000000000000000000000000000000000815260040160405180910390fd5b63ffffffff8216158061155f57506301e133808263ffffffff16115b15611596576040517f3777a36d00000000000000000000000000000000000000000000000000000000815260040160405180910390fd5b8051606460ff90911611156115d7576040517ffff2d93300000000000000000000000000000000000000000000000000000000815260040160405180910390fd5b6033816001602002015160ff161115806115fb57506064816001602002015160ff16115b15611632576040517f6ef10f9000000000000000000000000000000000000000000000000000000000815260040160405180910390fd5b6116a28c8c8b89898080602002602001604051908101604052809392919081815260200183836020028082843760009201919091525050604080516020808d0282810182019093528c82529093508c92508b9182918501908490808284376000920191909152506141cc92505050565b8751156117c95760005b88518110156117c7576001601160008b84815181106116cd576116cd6156e7565b60200260200101516001600160a01b03166001600160a01b0316815260200190815260200160002060006101000a81548160ff02191690831515021790555087818151811061171e5761171e6156e7565b6020026020010151516000146117bf57888181518110611740576117406156e7565b60200260200101516001600160a01b031663fb0c4441898381518110611768576117686156e7565b60200260200101516040518263ffffffff1660e01b815260040161178c9190614a18565b600060405180830381600087803b1580156117a657600080fd5b505af11580156117ba573d6000803e3d6000fd5b505050505b6001016116ac565b505b89516117dc90600d9060208d019061465f565b50601080548251602084015160ff90811665010000000000029181166401000000000263ffffffff87167fffffffffffffffffffffffffffffffffffffffffffffffffffffff000000000090941693909317929092177fffffffffffffffffffffffffffffffffffffffffffffffffffff00ffffffffff1617909155604082015116600381111561186f5761186f61491b565b6000805260146020527f4f26c3876aa9f4b92579780beea1161a61f87ebf1ec6ee865b299e447ecba99c805460ff191660018360038111156118b3576118b361491b565b0217905550606081015160ff1660038111156118d1576118d161491b565b6001600081905260146020527fb6c61a840592cc84133e4b25bd509abf4659307c57b160799b38490a5aa48f2c8054909160ff199091169083600381111561191b5761191b61491b565b0217905550608081015160ff1660038111156119395761193961491b565b600260005260146020527fa1930aa930426c54c34daad2b9ada7c5d0ef0c96078a3c5bb79f6fa6602c4a7a805460ff1916600183600381111561197e5761197e61491b565b021790555060a081015160ff16600381111561199c5761199c61491b565b6003600081905260146020527f63d87a887046e0430be80fdeb014107d7198c879cbf2cddf39a6df195c86cb388054909160ff199091169060019084908111156119e8576119e861491b565b021790555060c081015160ff166003811115611a0657611a0661491b565b600460005260146020527f52102136546d97ed3f65ec1070a32935d3048ea12f310d29c378dc9d6555c0d6805460ff19166001836003811115611a4b57611a4b61491b565b021790555060e081015160ff166003811115611a6957611a6961491b565b600560005260146020527f116126bec5aaa49b347e966c49378cf0c441de9121e306ea3d824584a9615aa2805460ff19166001836003811115611aae57611aae61491b565b021790555061010081015160ff166003811115611acd57611acd61491b565b600660005260146020527fe1f6b6a5fb7e47dad87547d4b0671e7e995a1dae22fbe5b3b5d10e2a77ed7aff805460ff19166001836003811115611b1257611b1261491b565b021790555061012081015160ff166003811115611b3157611b3161491b565b600760005260146020527f904977a779b22381a36c6463d4166ef55ee8cb3392c83093cb1750f1a00c9d94805460ff19166001836003811115611b7657611b7661491b565b021790555061014081015160ff166003811115611b9557611b9561491b565b600860005260146020527f125fdacc24f94fb724c0c32a4eab75d67204551eb2448dadf875d535a7449726805460ff19166001836003811115611bda57611bda61491b565b021790555061016081015160ff166003811115611bf957611bf961491b565b600960005260146020527ff517404d914a19d455440d961937db67771e4bfb0b4293ff6fd7c75855208c19805460ff19166001836003811115611c3e57611c3e61491b565b021790555061018081015160ff166003811115611c5d57611c5d61491b565b600a60005260146020527f65f9512343925c57130fd77667cb42fc83560c400ede0c87f3de7c6c27cf09a6805460ff19166001836003811115611ca257611ca261491b565b0217905550506001600c555050505050505050505050565b6000814211611cf5576040517fb1998e3000000000000000000000000000000000000000000000000000000000815260040160405180910390fd5b6001600160a01b0383166000908152600b602052604090205480611d1d576000915050610d77565b6001600160a01b0384166000908152600a602090815260408083206000198501845290915290205463ffffffff168310611d97576001600160a01b0384166000908152600a60209081526040808320600019909401835292905220546bffffffffffffffffffffffff640100000000909104169050610d77565b6001600160a01b0384166000908152600a6020908152604080832083805290915290205463ffffffff16831015611dd2576000915050610d77565b600060001982015b81811115611e7d576001600160a01b0386166000908152600a6020908152604080832060028686030485038085529083529281902081518083019092525463ffffffff81168083526401000000009091046bffffffffffffffffffffffff169282019290925290871415611e5857602001519450610d779350505050565b805163ffffffff16871115611e6f57819350611e76565b6001820392505b5050611dda565b506001600160a01b0385166000908152600a6020908152604080832093835292905220546bffffffffffffffffffffffff6401000000009091041691505092915050565b60018054610c8f906155bc565b6002600c541415611f0b576040517fab143c0600000000000000000000000000000000000000000000000000000000815260040160405180910390fd5b6002600c556000818152601260209081526040808320338452600390925290912054611f63576040517f291fc44200000000000000000000000000000000000000000000000000000000815260040160405180910390fd5b60078101546001600160a01b0316611fa7576040517fc3b4ca4300000000000000000000000000000000000000000000000000000000815260040160405180910390fd5b60068101547801000000000000000000000000000000000000000000000000900463ffffffff1615612005576040517f68e83fd900000000000000000000000000000000000000000000000000000000815260040160405180910390fd5b600e8054600583015582905561201a4261429c565b60068201805463ffffffff929092167801000000000000000000000000000000000000000000000000027fffffffff00000000ffffffffffffffffffffffffffffffffffffffffffffffff909216919091179055604051829033907fb708f3e57d02b42c1c66c9219454b2e519739ad18a0566a9a71a1e537f1f6e5d90600090a350506001600c55565b60006002600c5414156120e3576040517fab143c0600000000000000000000000000000000000000000000000000000000815260040160405180910390fd5b6002600c5585841415806120f75750838214155b1561212e576040517f266c51bb00000000000000000000000000000000000000000000000000000000815260040160405180910390fd5b60038a600a8111156121425761214261491b565b14156121c3578484600081811061215b5761215b6156e7565b905060200201356000148061218c57506301e1338085856000818110612183576121836156e7565b90506020020135115b156121c3576040517f3777a36d00000000000000000000000000000000000000000000000000000000815260040160405180910390fd5b60048a600a8111156121d7576121d761491b565b1415612231576064858560008181106121f2576121f26156e7565b905060200201351115612231576040517ffff2d93300000000000000000000000000000000000000000000000000000000815260040160405180910390fd5b60058a600a8111156122455761224561491b565b14156122c457603385856000818110612260576122606156e7565b9050602002013511158061228d5750606485856000818110612284576122846156e7565b90506020020135115b156122c4576040517f6ef10f9000000000000000000000000000000000000000000000000000000000815260040160405180910390fd5b60068a600a8111156122d8576122d861491b565b141561236257600a858560008181106122f3576122f36156e7565b90506020020135118061231f5750600385856001818110612316576123166156e7565b90506020020135115b8061232b575060028414155b15612362576040517f93d8c8b000000000000000000000000000000000000000000000000000000000815260040160405180910390fd5b3360009081526003602052604081205415158061238e57503360009081526011602052604090205460ff165b15612397575060015b600f805460010190819055604080516101408101909152909250808c600a8111156123c4576123c461491b565b81526020018b8b8080601f0160208091040260200160405190810160405280939291908181526020018383808284376000920191909152505050908252506040805160208b810282810182019093528b82529283019290918c918c91829185019084908082843760009201919091525050509082525060408051602089810282810182019093528982529283019290918a918a91829185019084908082843760009201919091525050509082525060200161247f8587615716565b815260200182612490576000612494565b600e545b81526000602082018190526040820152606001826124b35760006124bc565b6124bc4261429c565b63ffffffff16815233602091820152600084815260129091526040902081518154829060ff1916600183600a8111156124f7576124f761491b565b02179055506020828101518051612514926001850192019061465f565b50604082015180516125309160028401916020909101906146df565b506060820151805161254c91600384019160209091019061474c565b5060808201518051612568916004840191602090910190614786565b5060a0820151600582015560c082015160068201805460e085015161010086015163ffffffff167801000000000000000000000000000000000000000000000000027fffffffff00000000ffffffffffffffffffffffffffffffffffffffffffffffff6bffffffffffffffffffffffff9283166c01000000000000000000000000027fffffffffffffffff0000000000000000000000000000000000000000000000009094169290951691909117919091179290921691909117905561012090910151600790910180546001600160a01b039092167fffffffffffffffffffffffff0000000000000000000000000000000000000000909216919091179055801561267357600e8290555b604051829033907f8dfa4a39b973cacc42c5d14d9461d66fd1fda5ea696f7d2a3c44fd9d7f11d04f90600090a3506001600c559998505050505050505050565b60085460009060ff16156126f3576040517f9e87fac800000000000000000000000000000000000000000000000000000000815260040160405180910390fd5b336000908152600360205260408120805484929061271290849061563f565b90915550506001600160a01b038316600090815260036020526040902080548301905561274161104633611285565b6040518281526001600160a01b0384169033907fddf252ad1be2c89b69c2b068fc378daa952ba7f163c4a11628f55a4df523b3ef90602001610d6b565b60608167ffffffffffffffff81111561279957612799614dbe565b6040519080825280602002602001820160405280156127cc57816020015b60608152602001906001900390816127b75790505b50905060005b828110156128e757600080308686858181106127f0576127f06156e7565b90506020028101906128029190615723565b604051612810929190615788565b600060405180830381855af49150503d806000811461284b576040519150601f19603f3d011682016040523d82523d6000602084013e612850565b606091505b5091509150816128bf5760448151101561286957600080fd5b600481019050808060200190518101906128839190615798565b6040517f08c379a00000000000000000000000000000000000000000000000000000000081526004016128b69190614a18565b60405180910390fd5b808484815181106128d2576128d26156e7565b602090810291909101015250506001016127d2565b5092915050565b6001600160a01b0381166000908152600b602052604081205480612913576000612952565b6001600160a01b0383166000908152600a602090815260408083206000198501845290915290205464010000000090046bffffffffffffffffffffffff165b6bffffffffffffffffffffffff169392505050565b834211156129a1576040517f0819bdcd00000000000000000000000000000000000000000000000000000000815260040160405180910390fd5b604080517fe48329057bfd03d55e49b547132e39cffd9c1820ad7b9d4c5307691425d15adf60208201526001600160a01b03881691810191909152606081018690526080810185905260009060a0016040516020818303038152906040528051906020012090506000612a126110ad565b6040517f1901000000000000000000000000000000000000000000000000000000000000602082015260228101919091526042810183905260620160408051601f198184030181528282528051602091820120600080855291840180845281905260ff89169284019290925260608301879052608083018690529092509060019060a0016020604051602081039080840390855afa158015612ab8573d6000803e3d6000fd5b5050604051601f1901519150506001600160a01b038116612b05576040517fe99d5ac500000000000000000000000000000000000000000000000000000000815260040160405180910390fd5b6001600160a01b03811660009081526007602052604090208054600181019091558814612b5e576040517f756688fe00000000000000000000000000000000000000000000000000000000815260040160405180910390fd5b612b68818a614112565b505050505050505050565b6002600c541415612bb0576040517fab143c0600000000000000000000000000000000000000000000000000000000815260040160405180910390fd5b6002600c55612bc0338383613b64565b50506001600c55565b83421115612c03576040517f0819bdcd00000000000000000000000000000000000000000000000000000000815260040160405180910390fd5b6000612c0d6110ad565b6001600160a01b0389811660008181526007602090815260409182902080546001810190915582517f6e71edae12b1b97f4d1f60370fef10105fa2faae0126114a169c64845d6126c98184015280840194909452938c166060840152608083018b905260a083019390935260c08083018a90528151808403909101815260e0830190915280519201919091207f19010000000000000000000000000000000000000000000000000000000000006101008301526101028201929092526101228101919091526101420160408051601f198184030181528282528051602091820120600080855291840180845281905260ff88169284019290925260608301869052608083018590529092509060019060a0016020604051602081039080840390855afa158015612d41573d6000803e3d6000fd5b5050604051601f1901519150506001600160a01b0381161580612d765750886001600160a01b0316816001600160a01b031614155b15612dad576040517f8baa579f00000000000000000000000000000000000000000000000000000000815260040160405180910390fd5b6001600160a01b0390811660009081526004602090815260408083208b8516808552908352928190208a905551898152919350918a16917f8c5be1e5ebec7d5bd14f71427d1e84f3dd0314c0f7b2291e5b200ac8c7c3b925910160405180910390a350505050505050565b6002600c541415612e55576040517fab143c0600000000000000000000000000000000000000000000000000000000815260040160405180910390fd5b6002600c55600081815260126020526040902060078101546001600160a01b03163314612eae576040517f7d1b73b900000000000000000000000000000000000000000000000000000000815260040160405180910390fd5b60068101547801000000000000000000000000000000000000000000000000900463ffffffff1615612f0c576040517f68e83fd900000000000000000000000000000000000000000000000000000000815260040160405180910390fd5b6000828152601260205260408120805460ff1916815590612f3060018301826147df565b612f3e600283016000614819565b612f4c600383016000614819565b612f5a600483016000614837565b506000600582018190556006820180547fffffffff00000000000000000000000000000000000000000000000000000000169055600790910180547fffffffffffffffffffffffff0000000000000000000000000000000000000000169055604051839133917f5d423f6a55211a90b8438786aa7edfa40d3eef381b6aae048b52daf814c164629190a350506001600c55565b600060606002600c54141561302e576040517fab143c0600000000000000000000000000000000000000000000000000000000815260040160405180910390fd5b6002600c5560008381526012602052604081208054909190601490829060ff16600a81111561305f5761305f61491b565b600a8111156130705761307061491b565b8152602081019190915260400160002054600683015460ff90911691507801000000000000000000000000000000000000000000000000900463ffffffff166130e5576040517fc3b4ca4300000000000000000000000000000000000000000000000000000000815260040160405180910390fd5b601054600683015463ffffffff918216780100000000000000000000000000000000000000000000000090910482160116421161314e576040517f7f8617a200000000000000000000000000000000000000000000000000000000815260040160405180910390fd5b6009825460ff16600a8111156131665761316661491b565b146131db5760058201546000908152601260205260409020600601547801000000000000000000000000000000000000000000000000900463ffffffff16156131db576040517f8795d9c100000000000000000000000000000000000000000000000000000000815260040160405180910390fd5b600682015461320d9082906bffffffffffffffffffffffff808216916c010000000000000000000000009004166142e0565b93508315613a47576000825460ff16600a81111561322d5761322d61491b565b14156132a25760005b60028301548110156132a05761329883600201828154811061325a5761325a6156e7565b6000918252602090912001546003850180546001600160a01b039092169184908110613288576132886156e7565b9060005260206000200154613ffc565b600101613236565b505b6001825460ff16600a8111156132ba576132ba61491b565b141561332f5760005b600283015481101561332d576133258360020182815481106132e7576132e76156e7565b6000918252602090912001546003850180546001600160a01b039092169184908110613315576133156156e7565b906000526020600020015461408a565b6001016132c3565b505b6002825460ff16600a8111156133475761334761491b565b141561349a5760005b600283015481101561349857600283015467ffffffffffffffff81111561337957613379614dbe565b6040519080825280602002602001820160405280156133ac57816020015b60608152602001906001900390816133975790505b50935060008360020182815481106133c6576133c66156e7565b6000918252602090912001546003850180546001600160a01b0390921691849081106133f4576133f46156e7565b9060005260206000200154856004018481548110613414576134146156e7565b9060005260206000200160405161342b919061587e565b60006040518083038185875af1925050503d8060008114613468576040519150601f19603f3d011682016040523d82523d6000602084013e61346d565b606091505b5091505080858381518110613484576134846156e7565b602090810291909101015250600101613350565b505b6003825460ff16600a8111156134b2576134b261491b565b141561353757816003016000815481106134ce576134ce6156e7565b906000526020600020015460001461353757816003016000815481106134f6576134f66156e7565b600091825260209091200154601080547fffffffffffffffffffffffffffffffffffffffffffffffffffffffff000000001663ffffffff9092169190911790555b6004825460ff16600a81111561354f5761354f61491b565b14156135b9578160030160008154811061356b5761356b6156e7565b90600052602060002001546000146135b95781600301600081548110613593576135936156e7565b9060005260206000200154601060046101000a81548160ff021916908360ff1602179055505b6005825460ff16600a8111156135d1576135d161491b565b141561363b57816003016000815481106135ed576135ed6156e7565b906000526020600020015460001461363b5781600301600081548110613615576136156156e7565b9060005260206000200154601060056101000a81548160ff021916908360ff1602179055505b6006825460ff16600a8111156136535761365361491b565b1415613713578160030160018154811061366f5761366f6156e7565b9060005260206000200154600381111561368b5761368b61491b565b60146000846003016000815481106136a5576136a56156e7565b9060005260206000200154600a8111156136c1576136c161491b565b600a8111156136d2576136d261491b565b600a8111156136e3576136e361491b565b81526020810191909152604001600020805460ff1916600183600381111561370d5761370d61491b565b02179055505b6007825460ff16600a81111561372b5761372b61491b565b141561373957613739614410565b6008825460ff16600a8111156137515761375161491b565b14156139015760005b60028301548110156138ff5782600301818154811061377b5761377b6156e7565b906000526020600020015460001461382357601160008460020183815481106137a6576137a66156e7565b60009182526020808320909101546001600160a01b0316835282019290925260400181205460028501805460ff9092161592601192909190859081106137ee576137ee6156e7565b6000918252602080832091909101546001600160a01b031683528201929092526040019020805460ff19169115159190911790555b826004018181548110613838576138386156e7565b90600052602060002001805461384d906155bc565b1590506138f757826002018181548110613869576138696156e7565b6000918252602090912001546004840180546001600160a01b039092169163fb0c444191908490811061389e5761389e6156e7565b906000526020600020016040518263ffffffff1660e01b81526004016138c4919061588a565b600060405180830381600087803b1580156138de57600080fd5b505af11580156138f2573d6000803e3d6000fd5b505050505b60010161375a565b505b6009825460ff16600a8111156139195761391961491b565b14156139f0576012600083600301600081548110613939576139396156e7565b600091825260208083209091015483528201929092526040018120805460ff191681559061396a60018301826147df565b613978600283016000614819565b613986600383016000614819565b613994600483016000614837565b50600060058201556006810180547fffffffff0000000000000000000000000000000000000000000000000000000016905560070180547fffffffffffffffffffffffff00000000000000000000000000000000000000001690555b600a825460ff16600a811115613a0857613a0861491b565b1415613a2d5781600101600d908054613a20906155bc565b613a2b929190614855565b505b6000858152601360205260409020805460ff191660011790555b6000858152601260205260408120805460ff1916815590613a6b60018301826147df565b613a79600283016000614819565b613a87600383016000614819565b613a95600483016000614837565b506000600582018190556006820180547fffffffff00000000000000000000000000000000000000000000000000000000169055600790910180547fffffffffffffffffffffffff00000000000000000000000000000000000000001690558581526013602052604080822080547fffffffffffffffffffffffffffffffffffffffffffffffffffffffffffff00ff16610100179055518515159187917fcc8b74c10cae169918eab7cf3272b0a540854b8a4d12281590885d07fed34f6e9190a350506001600c559092909150565b60008281526012602090815260408083206001600160a01b0387168452600390925290912054613bc0576040517f291fc44200000000000000000000000000000000000000000000000000000000815260040160405180910390fd5b60008381526015602090815260408083206001600160a01b038816845290915290205460ff1615613c1d576040517f7c9a1cf900000000000000000000000000000000000000000000000000000000815260040160405180910390fd5b601054600682015463ffffffff918216780100000000000000000000000000000000000000000000000090910482160116421115613c87576040517f47c8137d00000000000000000000000000000000000000000000000000000000815260040160405180910390fd5b6006810154600090613cbc9086907801000000000000000000000000000000000000000000000000900463ffffffff16611cba565b90508215613d24576006820180546bffffffffffffffffffffffff8082168401167fffffffffffffffffffffffffffffffffffffffff0000000000000000000000009091161790556001600160a01b0385166000908152601660205260409020849055613d78565b6006820180546bffffffffffffffffffffffff6c0100000000000000000000000080830482168501909116027fffffffffffffffff000000000000000000000000ffffffffffffffffffffffff9091161790555b60008481526015602090815260408083206001600160a01b0389168085529252808320805460ff1916600117905551851515928792917fd356173ae8eeea8691aee4c1be712c314a975a3d43ebc48b08ca54d0dac912289190a45050505050565b816001600160a01b0316836001600160a01b031614158015613dfa57508015155b15613eae576001600160a01b03831615613eae576001600160a01b0383166000908152600b60205260408120549081613e34576000613e80565b6001600160a01b0385166000908152600a6020526040812090613e5860018561563f565b815260208101919091526040016000205464010000000090046bffffffffffffffffffffffff165b6bffffffffffffffffffffffff1690506000613e9c848361563f565b9050613eaa8684848461445d565b5050505b6001600160a01b03821615613f5d576001600160a01b0382166000908152600b60205260408120549081613ee3576000613f2f565b6001600160a01b0384166000908152600a6020526040812090613f0760018561563f565b815260208101919091526040016000205464010000000090046bffffffffffffffffffffffff165b6bffffffffffffffffffffffff1690506000613f4b848361590f565b9050613f598584848461445d565b5050505b505050565b60007f8b73c3c69bb8fe3d512ecc4cf759cc79239f7b179b0ffacaa9a75d522b39400f6000604051613f94919061587e565b6040805191829003822060208301939093528101919091527fc89efdaa54c0f20c7adf612882df0950f5a951637e0307cdcb4c672f298b8bc660608201524660808201523060a082015260c00160405160208183030381529060405280519060200120905090565b806002600082825461400e919061590f565b90915550506001600160a01b03821660009081526003602052604081208054830190556140449061403e84611285565b83613dd9565b6040518181526001600160a01b038316906000907fddf252ad1be2c89b69c2b068fc378daa952ba7f163c4a11628f55a4df523b3ef906020015b60405180910390a35050565b6001600160a01b038216600090815260036020526040812080548392906140b290849061563f565b90915550506002805482900390556140d46140cc83611285565b600083613dd9565b6040518181526000906001600160a01b038416907fddf252ad1be2c89b69c2b068fc378daa952ba7f163c4a11628f55a4df523b3ef9060200161407e565b600061411d83611285565b6001600160a01b03848116600090815260096020908152604080832080547fffffffffffffffffffffffff0000000000000000000000000000000000000000169488169490941790935560039052205490915061417d9082908490613dd9565b816001600160a01b0316816001600160a01b0316846001600160a01b03167f3134e8a2e6d97e929a7e54011ea5485d7d196dd5f0ba4d4ef95803e8e3fc257f60405160405180910390a4505050565b8051825114614207576040517f266c51bb00000000000000000000000000000000000000000000000000000000815260040160405180910390fd5b845161421a90600090602088019061465f565b50835161422e90600190602087019061465f565b506008805460ff191684151517905546600555614249613f62565b60065560005b8251811015613f595761429483828151811061426d5761426d6156e7565b6020026020010151838381518110614287576142876156e7565b6020026020010151613ffc565b60010161424f565b600063ffffffff8211156142dc576040517fec314e4200000000000000000000000000000000000000000000000000000000815260040160405180910390fd5b5090565b6000821580156142ee575081155b156142fb575060006110a6565b600184600381111561430f5761430f61491b565b148061432c5750600384600381111561432a5761432a61491b565b145b156143775760105460025460009160649161435291640100000000900460ff1690615927565b61435c9190615946565b905083830181811015614374576000925050506110a6565b50505b600084600381111561438b5761438b61491b565b14806143a8575060018460038111156143a6576143a661491b565b145b156143c257818311156143bd575060016110a6565b6110a6565b60105460009060649065010000000000900460ff166143e1858761590f565b6143eb9190615927565b6143f59190615946565b90508084106144085760019150506110a6565b509392505050565b6008805460ff8082161560ff1990921682179092556040519116151581527f28ef61d7a1c224006e6530d510be74c9c673f4a9896202105e3d4f60511779d19060200160405180910390a1565b821580159061449857506001600160a01b0384166000908152600a602090815260408083206000198701845290915290205463ffffffff1642145b15614516576144a681614617565b6001600160a01b0385166000908152600a6020908152604080832060001988018452909152902080546bffffffffffffffffffffffff92909216640100000000027fffffffffffffffffffffffffffffffff000000000000000000000000ffffffff9092169190911790556145cd565b604051806040016040528061452a4261429c565b63ffffffff16815260200161453e83614617565b6bffffffffffffffffffffffff9081169091526001600160a01b0386166000818152600a6020908152604080832089845282528083208651815497840151909616640100000000027fffffffffffffffffffffffffffffffff0000000000000000000000000000000090971663ffffffff9096169590951795909517909355908152600b909152206001840190555b60408051838152602081018390526001600160a01b038616917fdec2bacdd2f05b59de34da9b523dff8be42e5e38e818c82fdb0bae774387a724910160405180910390a250505050565b60006bffffffffffffffffffffffff8211156142dc576040517f39a21c5600000000000000000000000000000000000000000000000000000000815260040160405180910390fd5b82805461466b906155bc565b90600052602060002090601f01602090048101928261468d57600085556146d3565b82601f106146a657805160ff19168380011785556146d3565b828001600101855582156146d3579182015b828111156146d35782518255916020019190600101906146b8565b506142dc9291506148d0565b8280548282559060005260206000209081019282156146d3579160200282015b828111156146d357825182547fffffffffffffffffffffffff0000000000000000000000000000000000000000166001600160a01b039091161782556020909201916001909101906146ff565b8280548282559060005260206000209081019282156146d357916020028201828111156146d35782518255916020019190600101906146b8565b8280548282559060005260206000209081019282156147d3579160200282015b828111156147d357825180516147c391849160209091019061465f565b50916020019190600101906147a6565b506142dc9291506148e5565b5080546147eb906155bc565b6000825580601f106147fb575050565b601f0160209004906000526020600020908101906112cc91906148d0565b50805460008255906000526020600020908101906112cc91906148d0565b50805460008255906000526020600020908101906112cc91906148e5565b828054614861906155bc565b90600052602060002090601f01602090048101928261488357600085556146d3565b82601f1061489457805485556146d3565b828001600101855582156146d357600052602060002091601f016020900482015b828111156146d35782548255916001019190600101906148b5565b5b808211156142dc57600081556001016148d1565b808211156142dc5760006148f982826147df565b506001016148e5565b60006020828403121561491457600080fd5b5035919050565b7f4e487b7100000000000000000000000000000000000000000000000000000000600052602160045260246000fd5b60005b8381101561496557818101518382015260200161494d565b83811115614974576000848401525b50505050565b6000815180845261499281602086016020860161494a565b601f01601f19169290920160200192915050565b6000600b89106149b8576149b861491b565b88825260e060208301526149cf60e083018961497a565b6040830197909752506bffffffffffffffffffffffff948516606082015292909316608083015263ffffffff1660a08201526001600160a01b0390911660c09091015292915050565b6020815260006110a6602083018461497a565b80356001600160a01b0381168114614a4257600080fd5b919050565b60008060408385031215614a5a57600080fd5b614a6383614a2b565b946020939093013593505050565b60008083601f840112614a8357600080fd5b50813567ffffffffffffffff811115614a9b57600080fd5b602083019150836020828501011115614ab357600080fd5b9250929050565b600080600080600060808688031215614ad257600080fd5b614adb86614a2b565b9450614ae960208701614a2b565b935060408601359250606086013567ffffffffffffffff811115614b0c57600080fd5b614b1888828901614a71565b969995985093965092949392505050565b80151581146112cc57600080fd5b8035614a4281614b29565b803560ff81168114614a4257600080fd5b60008060008060008060c08789031215614b6c57600080fd5b614b7587614a2b565b9550602087013594506040870135614b8c81614b29565b9350614b9a60608801614b42565b92506080870135915060a087013590509295509295509295565b600080600060608486031215614bc957600080fd5b614bd284614a2b565b9250614be060208501614a2b565b9150604084013590509250925092565b600060208284031215614c0257600080fd5b6110a682614a2b565b60008060008060608587031215614c2157600080fd5b614c2a85614a2b565b935060208501359250604085013567ffffffffffffffff811115614c4d57600080fd5b614c5987828801614a71565b95989497509550505050565b60008060408385031215614c7857600080fd5b82359150614c8860208401614a2b565b90509250929050565b6000815180845260208085019450848260051b860182860160005b85811015614cd6578383038952614cc483835161497a565b98850198925090840190600101614cac565b5090979650505050505050565b606080825284519082018190526000906020906080840190828801845b82811015614d255781516001600160a01b031684529284019290840190600101614d00565b5050508381038285015285518082528683019183019060005b81811015614d5a57835183529284019291840191600101614d3e565b50508481036040860152614d6e8187614c91565b98975050505050505050565b8035600b8110614a4257600080fd5b600060208284031215614d9b57600080fd5b6110a682614d7a565b6020810160048310614db857614db861491b565b91905290565b7f4e487b7100000000000000000000000000000000000000000000000000000000600052604160045260246000fd5b604051601f8201601f1916810167ffffffffffffffff81118282101715614e1657614e16614dbe565b604052919050565b600067ffffffffffffffff821115614e3857614e38614dbe565b50601f01601f191660200190565b6000614e59614e5484614e1e565b614ded565b9050828152838383011115614e6d57600080fd5b828260208301376000602084830101529392505050565b600082601f830112614e9557600080fd5b6110a683833560208501614e46565b600067ffffffffffffffff821115614ebe57614ebe614dbe565b5060051b60200190565b600082601f830112614ed957600080fd5b81356020614ee9614e5483614ea4565b82815260059290921b84018101918181019086841115614f0857600080fd5b8286015b84811015614f2a57614f1d81614a2b565b8352918301918301614f0c565b509695505050505050565b6000614f43614e5484614ea4565b8381529050602080820190600585901b840186811115614f6257600080fd5b845b81811015614fb257803567ffffffffffffffff811115614f845760008081fd5b8601601f81018913614f965760008081fd5b614fa4898235868401614e46565b855250928201928201614f64565b505050509392505050565b600082601f830112614fce57600080fd5b6110a683833560208501614f35565b60008083601f840112614fef57600080fd5b50813567ffffffffffffffff81111561500757600080fd5b6020830191508360208260051b8501011115614ab357600080fd5b803563ffffffff81168114614a4257600080fd5b600082601f83011261504757600080fd5b6040516101a080820182811067ffffffffffffffff8211171561506c5761506c614dbe565b6040528301818582111561507f57600080fd5b845b828110156150a05761509281614b42565b825260209182019101615081565b509195945050505050565b6000806000806000806000806000806000806102c08d8f0312156150ce57600080fd5b67ffffffffffffffff8d3511156150e457600080fd5b6150f18e8e358f01614e84565b9b5067ffffffffffffffff60208e0135111561510c57600080fd5b61511c8e60208f01358f01614e84565b9a5067ffffffffffffffff60408e0135111561513757600080fd5b6151478e60408f01358f01614e84565b995061515560608e01614b37565b985067ffffffffffffffff60808e0135111561517057600080fd5b6151808e60808f01358f01614ec8565b975067ffffffffffffffff60a08e0135111561519b57600080fd5b6151ab8e60a08f01358f01614fbd565b965067ffffffffffffffff60c08e013511156151c657600080fd5b6151d68e60c08f01358f01614fdd565b909650945067ffffffffffffffff60e08e013511156151f457600080fd5b6152048e60e08f01358f01614fdd565b90945092506152166101008e01615022565b91506152268e6101208f01615036565b90509295989b509295989b509295989b565b600080600080600080600080600060a08a8c03121561525657600080fd5b61525f8a614d7a565b985060208a013567ffffffffffffffff8082111561527c57600080fd5b6152888d838e01614a71565b909a50985060408c01359150808211156152a157600080fd5b6152ad8d838e01614fdd565b909850965060608c01359150808211156152c657600080fd5b6152d28d838e01614fdd565b909650945060808c01359150808211156152eb57600080fd5b506152f88c828d01614fdd565b915080935050809150509295985092959850929598565b6000806020838503121561532257600080fd5b823567ffffffffffffffff81111561533957600080fd5b61534585828601614fdd565b90969095509350505050565b6020815260006110a66020830184614c91565b60008060008060008060008060a0898b03121561538057600080fd5b61538989614a2b565b975061539760208a01614a2b565b9650604089013567ffffffffffffffff808211156153b457600080fd5b6153c08c838d01614fdd565b909850965060608b01359150808211156153d957600080fd5b6153e58c838d01614fdd565b909650945060808b01359150808211156153fe57600080fd5b5061540b8b828c01614a71565b999c989b5096995094979396929594505050565b60008060008060008060c0878903121561543857600080fd5b61544187614a2b565b95506020870135945060408701359350614b9a60608801614b42565b6000806040838503121561547057600080fd5b82359150602083013561548281614b29565b809150509250929050565b600080600080600080600060e0888a0312156154a857600080fd5b6154b188614a2b565b96506154bf60208901614a2b565b955060408801359450606088013593506154db60808901614b42565b925060a0880135915060c0880135905092959891949750929550565b6000806040838503121561550a57600080fd5b61551383614a2b565b9150614c8860208401614a2b565b821515815260406020820152600061553c6040830184614c91565b949350505050565b60008060008060008060a0878903121561555d57600080fd5b61556687614a2b565b955061557460208801614a2b565b94506040870135935060608701359250608087013567ffffffffffffffff81111561559e57600080fd5b6155aa89828a01614a71565b979a9699509497509295939492505050565b600181811c908216806155d057607f821691505b6020821081141561560a577f4e487b7100000000000000000000000000000000000000000000000000000000600052602260045260246000fd5b50919050565b7f4e487b7100000000000000000000000000000000000000000000000000000000600052601160045260246000fd5b60008282101561565157615651615610565b500390565b60006020828403121561566857600080fd5b81356110a681614b29565b6001600160a01b038516815283602082015260606040820152816060820152818360808301376000818301608090810191909152601f909201601f191601019392505050565b600080604083850312156156cc57600080fd5b82516156d781614b29565b6020939093015192949293505050565b7f4e487b7100000000000000000000000000000000000000000000000000000000600052603260045260246000fd5b60006110a6368484614f35565b60008083357fffffffffffffffffffffffffffffffffffffffffffffffffffffffffffffffe184360301811261575857600080fd5b83018035915067ffffffffffffffff82111561577357600080fd5b602001915036819003821315614ab357600080fd5b8183823760009101908152919050565b6000602082840312156157aa57600080fd5b815167ffffffffffffffff8111156157c157600080fd5b8201601f810184136157d257600080fd5b80516157e0614e5482614e1e565b8181528560208385010111156157f557600080fd5b61580682602083016020860161494a565b95945050505050565b6000815461581c816155bc565b60018281168015615834576001811461584557615874565b60ff19841687528287019450615874565b8560005260208060002060005b8581101561586b5781548a820152908401908201615852565b50505082870194505b5050505092915050565b60006110a6828461580f565b600060208083526000845461589e816155bc565b808487015260406001808416600081146158bf57600181146158d357615901565b60ff198516838a0152606089019550615901565b896000528660002060005b858110156158f95781548b82018601529083019088016158de565b8a0184019650505b509398975050505050505050565b6000821982111561592257615922615610565b500190565b600081600019048311821515161561594157615941615610565b500290565b60008261597c577f4e487b7100000000000000000000000000000000000000000000000000000000600052601260045260246000fd5b50049056fea2646970667358221220a54feeefce55dbc3cee71b89228dd7f22810ba06f33a2ce9b3caaf88c6a706de64736f6c634300080b0033",
  "linkReferences": {},
  "deployedLinkReferences": {}
}