{
  "_format": "hh-sol-artifact-1",
  "contractName": "KaliDAOtribute",
  "sourceName": "contracts/extensions/tribute/KaliDAOtribute.sol",
  "abi": [
    {
      "inputs": [],
      "name": "ETHtransferFailed",
      "type": "error"
    },
    {
      "inputs": [],
      "name": "NotProcessed",
      "type": "error"
    },
    {
      "inputs": [],
      "name": "NotProposal",
      "type": "error"
    },
    {
      "inputs": [],
      "name": "NotProposer",
      "type": "error"
    },
    {
      "inputs": [],
      "name": "Reentrancy",
      "type": "error"
    },
    {
      "inputs": [],
      "name": "Sponsored",
      "type": "error"
    },
    {
      "inputs": [],
      "name": "TransferFailed",
      "type": "error"
    },
    {
      "inputs": [],
      "name": "TransferFromFailed",
      "type": "error"
    },
    {
      "anonymous": false,
      "inputs": [
        {
          "indexed": true,
          "internalType": "contract IKaliDAOtribute",
          "name": "dao",
          "type": "address"
        },
        {
          "indexed": true,
          "internalType": "address",
          "name": "proposer",
          "type": "address"
        },
        {
          "indexed": true,
          "internalType": "uint256",
          "name": "proposal",
          "type": "uint256"
        },
        {
          "indexed": false,
          "internalType": "address",
          "name": "asset",
          "type": "address"
        },
        {
          "indexed": false,
          "internalType": "bool",
          "name": "nft",
          "type": "bool"
        },
        {
          "indexed": false,
          "internalType": "uint256",
          "name": "value",
          "type": "uint256"
        }
      ],
      "name": "NewTributeProposal",
      "type": "event"
    },
    {
      "anonymous": false,
      "inputs": [
        {
          "indexed": true,
          "internalType": "contract IKaliDAOtribute",
          "name": "dao",
          "type": "address"
        },
        {
          "indexed": true,
          "internalType": "uint256",
          "name": "proposal",
          "type": "uint256"
        }
      ],
      "name": "TributeProposalCancelled",
      "type": "event"
    },
    {
      "anonymous": false,
      "inputs": [
        {
          "indexed": true,
          "internalType": "contract IKaliDAOtribute",
          "name": "dao",
          "type": "address"
        },
        {
          "indexed": true,
          "internalType": "uint256",
          "name": "proposal",
          "type": "uint256"
        }
      ],
      "name": "TributeProposalReleased",
      "type": "event"
    },
    {
      "inputs": [
        {
          "internalType": "contract IKaliDAOtribute",
          "name": "dao",
          "type": "address"
        },
        {
          "internalType": "uint256",
          "name": "proposal",
          "type": "uint256"
        }
      ],
      "name": "cancelTributeProposal",
      "outputs": [],
      "stateMutability": "nonpayable",
      "type": "function"
    },
    {
      "inputs": [
        {
          "internalType": "contract IKaliDAOtribute",
          "name": "dao",
          "type": "address"
        },
        {
          "internalType": "uint256",
          "name": "proposal",
          "type": "uint256"
        }
      ],
      "name": "releaseTributeProposal",
      "outputs": [],
      "stateMutability": "nonpayable",
      "type": "function"
    },
    {
      "inputs": [
        {
          "internalType": "contract IKaliDAOtribute",
          "name": "dao",
          "type": "address"
        },
        {
          "internalType": "enum IKaliDAOtribute.ProposalType",
          "name": "proposalType",
          "type": "uint8"
        },
        {
          "internalType": "string",
          "name": "description",
          "type": "string"
        },
        {
          "internalType": "address[]",
          "name": "accounts",
          "type": "address[]"
        },
        {
          "internalType": "uint256[]",
          "name": "amounts",
          "type": "uint256[]"
        },
        {
          "internalType": "bytes[]",
          "name": "payloads",
          "type": "bytes[]"
        },
        {
          "internalType": "bool",
          "name": "nft",
          "type": "bool"
        },
        {
          "internalType": "address",
          "name": "asset",
          "type": "address"
        },
        {
          "internalType": "uint256",
          "name": "value",
          "type": "uint256"
        }
      ],
      "name": "submitTributeProposal",
      "outputs": [],
      "stateMutability": "payable",
      "type": "function"
    },
    {
      "inputs": [
        {
          "internalType": "contract IKaliDAOtribute",
          "name": "",
          "type": "address"
        },
        {
          "internalType": "uint256",
          "name": "",
          "type": "uint256"
        }
      ],
      "name": "tributes",
      "outputs": [
        {
          "internalType": "contract IKaliDAOtribute",
          "name": "dao",
          "type": "address"
        },
        {
          "internalType": "address",
          "name": "proposer",
          "type": "address"
        },
        {
          "internalType": "address",
          "name": "asset",
          "type": "address"
        },
        {
          "internalType": "bool",
          "name": "nft",
          "type": "bool"
        },
        {
          "internalType": "uint256",
          "name": "value",
          "type": "uint256"
        }
      ],
      "stateMutability": "view",
      "type": "function"
    }
  ],
  "bytecode": "0x6080604052600160005534801561001557600080fd5b50611950806100256000396000f3fe60806040526004361061003f5760003560e01c806363f9496314610044578063940cae8c14610066578063c6a27c9114610086578063eb13a64e14610154575b600080fd5b34801561005057600080fd5b5061006461005f36600461100b565b610167565b005b34801561007257600080fd5b5061006461008136600461100b565b610513565b34801561009257600080fd5b5061010b6100a136600461100b565b60016020818152600093845260408085209091529183529120805491810154600282015460039092015473ffffffffffffffffffffffffffffffffffffffff93841693918216929182169174010000000000000000000000000000000000000000900460ff169085565b6040805173ffffffffffffffffffffffffffffffffffffffff96871681529486166020860152929094168383015215156060830152608082019290925290519081900360a00190f35b6100646101623660046111bc565b610a62565b600260005414156101a4576040517fab143c0600000000000000000000000000000000000000000000000000000000815260040160405180910390fd5b6002600090815573ffffffffffffffffffffffffffffffffffffffff838116825260016020818152604080852086865290915290922091820154163314610217576040517f7d1b73b900000000000000000000000000000000000000000000000000000000815260040160405180910390fd5b6040517f013cf08b0000000000000000000000000000000000000000000000000000000081526004810183905273ffffffffffffffffffffffffffffffffffffffff84169063013cf08b906024016000604051808303816000875af1158015610284573d6000803e3d6000fd5b505050506040513d6000823e601f3d908101601f191682016040526102ac919081019061152d565b60e0015163ffffffff16156102ed576040517f68e83fd900000000000000000000000000000000000000000000000000000000815260040160405180910390fd5b6040517fe0a8f6f50000000000000000000000000000000000000000000000000000000081526004810183905273ffffffffffffffffffffffffffffffffffffffff84169063e0a8f6f590602401600060405180830381600087803b15801561035557600080fd5b505af1158015610369573d6000803e3d6000fd5b50505050600281015473ffffffffffffffffffffffffffffffffffffffff166103bd57600381015460018201546103b89173ffffffffffffffffffffffffffffffffffffffff90911690610dee565b61044c565b600281015474010000000000000000000000000000000000000000900460ff16610415576001810154600382015460028301546103b89273ffffffffffffffffffffffffffffffffffffffff91821692911690610e38565b60018101546003820154600283015461044c9273ffffffffffffffffffffffffffffffffffffffff91821692309290911690610ed5565b73ffffffffffffffffffffffffffffffffffffffff8316600081815260016020818152604080842087855290915280832080547fffffffffffffffffffffffff0000000000000000000000000000000000000000908116825592810180549093169092556002820180547fffffffffffffffffffffff0000000000000000000000000000000000000000001690556003909101829055518492917f67f7406a36fd87f323632943b400743bf1c2981323eaffd7a0c955f622016e7591a35050600160005550565b60026000541415610550576040517fab143c0600000000000000000000000000000000000000000000000000000000815260040160405180910390fd5b6002600081815573ffffffffffffffffffffffffffffffffffffffff8481168252600160208181526040808520878652825293849020845160a081018652815485168082529382015485169281019290925294850154928316938101939093527401000000000000000000000000000000000000000090910460ff1615156060830152600390920154608082015290610615576040517f8751a03100000000000000000000000000000000000000000000000000000000815260040160405180910390fd5b73ffffffffffffffffffffffffffffffffffffffff8316600081815260016020818152604080842087855290915280832080547fffffffffffffffffffffffff0000000000000000000000000000000000000000908116825592810180549093169092556002820180547fffffffffffffffffffffff0000000000000000000000000000000000000000001690556003909101829055518492917f97dcdb4a9455984082aea798740d0df2df08b613e7ee365f51253e060f67a09b91a36040517f66ee13b30000000000000000000000000000000000000000000000000000000081526004810183905273ffffffffffffffffffffffffffffffffffffffff8416906366ee13b3906024016060604051808303816000875af115801561073f573d6000803e3d6000fd5b505050506040513d601f19601f820116820180604052508101906107639190611661565b51156107fe576040517f66ee13b30000000000000000000000000000000000000000000000000000000081526004810183905273ffffffffffffffffffffffffffffffffffffffff8416906366ee13b3906024016060604051808303816000875af11580156107d6573d6000803e3d6000fd5b505050506040513d601f19601f820116820180604052508101906107fa9190611661565b5191505b6040517f66ee13b30000000000000000000000000000000000000000000000000000000081526004810183905260009073ffffffffffffffffffffffffffffffffffffffff8516906366ee13b3906024016060604051808303816000875af115801561086e573d6000803e3d6000fd5b505050506040513d601f19601f820116820180604052508101906108929190611661565b905080604001516108cf576040517f33c5331900000000000000000000000000000000000000000000000000000000815260040160405180910390fd5b80602001511561098e57604082015173ffffffffffffffffffffffffffffffffffffffff1661092657608082015182516109219173ffffffffffffffffffffffffffffffffffffffff90911690610dee565b610a57565b816060015161095d578151608083015160408401516109219273ffffffffffffffffffffffffffffffffffffffff90911691610e38565b8151608083015160408401516109219273ffffffffffffffffffffffffffffffffffffffff90911691309190610ed5565b604082015173ffffffffffffffffffffffffffffffffffffffff166109de576109218260800151836020015173ffffffffffffffffffffffffffffffffffffffff16610dee90919063ffffffff16565b8160600151610a1e5761092182602001518360800151846040015173ffffffffffffffffffffffffffffffffffffffff16610e389092919063ffffffff16565b610a573083602001518460800151856040015173ffffffffffffffffffffffffffffffffffffffff16610ed5909392919063ffffffff16565b505060016000555050565b60026000541415610a9f576040517fab143c0600000000000000000000000000000000000000000000000000000000815260040160405180910390fd5b60026000553415610ac0575060009050348215610abb57600092505b610ae2565b610ae273ffffffffffffffffffffffffffffffffffffffff8316333084610ed5565b6040517f9b4a89ce00000000000000000000000000000000000000000000000000000000815260009073ffffffffffffffffffffffffffffffffffffffff8e1690639b4a89ce90610b45908f908f908f908f908f908f908f908f90600401611849565b6020604051808303816000875af1158015610b64573d6000803e3d6000fd5b505050506040513d601f19601f82011682018060405250810190610b889190611901565b90506040518060a001604052808e73ffffffffffffffffffffffffffffffffffffffff1681526020013373ffffffffffffffffffffffffffffffffffffffff1681526020018473ffffffffffffffffffffffffffffffffffffffff168152602001851515815260200183815250600160008f73ffffffffffffffffffffffffffffffffffffffff1673ffffffffffffffffffffffffffffffffffffffff168152602001908152602001600020600083815260200190815260200160002060008201518160000160006101000a81548173ffffffffffffffffffffffffffffffffffffffff021916908373ffffffffffffffffffffffffffffffffffffffff16021790555060208201518160010160006101000a81548173ffffffffffffffffffffffffffffffffffffffff021916908373ffffffffffffffffffffffffffffffffffffffff16021790555060408201518160020160006101000a81548173ffffffffffffffffffffffffffffffffffffffff021916908373ffffffffffffffffffffffffffffffffffffffff16021790555060608201518160020160146101000a81548160ff02191690831515021790555060808201518160030155905050803373ffffffffffffffffffffffffffffffffffffffff168e73ffffffffffffffffffffffffffffffffffffffff167f53d4dec8adf3ee1c540fbcc938053eda551bb8a66f71d078b745a65bc9df5b34868887604051610dd29392919073ffffffffffffffffffffffffffffffffffffffff9390931683529015156020830152604082015260600190565b60405180910390a4505060016000555050505050505050505050565b600080600080600085875af1905080610e33576040517f23c133f200000000000000000000000000000000000000000000000000000000815260040160405180910390fd5b505050565b60006040517fa9059cbb00000000000000000000000000000000000000000000000000000000815273ffffffffffffffffffffffffffffffffffffffff841660048201528260248201526000806044836000895af1915050610e9981610f8f565b610ecf576040517f90b8ec1800000000000000000000000000000000000000000000000000000000815260040160405180910390fd5b50505050565b60006040517f23b872dd00000000000000000000000000000000000000000000000000000000815273ffffffffffffffffffffffffffffffffffffffff8516600482015273ffffffffffffffffffffffffffffffffffffffff8416602482015282604482015260008060648360008a5af1915050610f5281610f8f565b610f88576040517f7939f42400000000000000000000000000000000000000000000000000000000815260040160405180910390fd5b5050505050565b60003d82610fa157806000803e806000fd5b8060208114610fb9578015610fca5760009250610fcf565b816000803e60005115159250610fcf565b600192505b5050919050565b73ffffffffffffffffffffffffffffffffffffffff81168114610ff857600080fd5b50565b803561100681610fd6565b919050565b6000806040838503121561101e57600080fd5b823561102981610fd6565b946020939093013593505050565b600a8110610ff857600080fd5b803561100681611037565b7f4e487b7100000000000000000000000000000000000000000000000000000000600052604160045260246000fd5b604051610120810167ffffffffffffffff811182821017156110a2576110a261104f565b60405290565b604051601f8201601f1916810167ffffffffffffffff811182821017156110d1576110d161104f565b604052919050565b600067ffffffffffffffff8211156110f3576110f361104f565b50601f01601f191660200190565b600082601f83011261111257600080fd5b8135611125611120826110d9565b6110a8565b81815284602083860101111561113a57600080fd5b816020850160208301376000918101602001919091529392505050565b60008083601f84011261116957600080fd5b50813567ffffffffffffffff81111561118157600080fd5b6020830191508360208260051b850101111561119c57600080fd5b9250929050565b8015158114610ff857600080fd5b8035611006816111a3565b6000806000806000806000806000806000806101208d8f0312156111df57600080fd5b6111e88d610ffb565b9b506111f660208e01611044565b9a5067ffffffffffffffff60408e0135111561121157600080fd5b6112218e60408f01358f01611101565b995067ffffffffffffffff60608e0135111561123c57600080fd5b61124c8e60608f01358f01611157565b909950975067ffffffffffffffff60808e0135111561126a57600080fd5b61127a8e60808f01358f01611157565b909750955067ffffffffffffffff60a08e0135111561129857600080fd5b6112a88e60a08f01358f01611157565b90955093506112b960c08e016111b1565b92506112c760e08e01610ffb565b91506101008d013590509295989b509295989b509295989b565b805161100681611037565b60005b838110156113075781810151838201526020016112ef565b83811115610ecf5750506000910152565b6000611326611120846110d9565b905082815283838301111561133a57600080fd5b6113488360208301846112ec565b9392505050565b600082601f83011261136057600080fd5b61134883835160208501611318565b600067ffffffffffffffff8211156113895761138961104f565b5060051b60200190565b805161100681610fd6565b600082601f8301126113af57600080fd5b815160206113bf6111208361136f565b82815260059290921b840181019181810190868411156113de57600080fd5b8286015b848110156114025780516113f581610fd6565b83529183019183016113e2565b509695505050505050565b600082601f83011261141e57600080fd5b8151602061142e6111208361136f565b82815260059290921b8401810191818101908684111561144d57600080fd5b8286015b848110156114025780518352918301918301611451565b600082601f83011261147957600080fd5b815160206114896111208361136f565b82815260059290921b840181019181810190868411156114a857600080fd5b8286015b8481101561140257805167ffffffffffffffff8111156114cc5760008081fd5b8701603f810189136114de5760008081fd5b6114ef898683015160408401611318565b8452509183019183016114ac565b80516bffffffffffffffffffffffff8116811461100657600080fd5b805163ffffffff8116811461100657600080fd5b60006020828403121561153f57600080fd5b815167ffffffffffffffff8082111561155757600080fd5b90830190610120828603121561156c57600080fd5b61157461107e565b61157d836112e1565b815260208301518281111561159157600080fd5b61159d8782860161134f565b6020830152506040830151828111156115b557600080fd5b6115c18782860161139e565b6040830152506060830151828111156115d957600080fd5b6115e58782860161140d565b6060830152506080830151828111156115fd57600080fd5b61160987828601611468565b60808301525061161b60a084016114fd565b60a082015261162c60c084016114fd565b60c082015261163d60e08401611519565b60e08201526101009150611652828401611393565b91810191909152949350505050565b60006060828403121561167357600080fd5b6040516060810181811067ffffffffffffffff821117156116965761169661104f565b6040528251815260208301516116ab816111a3565b602082015260408301516116be816111a3565b60408201529392505050565b8183526000602080850194508260005b858110156117155781356116ed81610fd6565b73ffffffffffffffffffffffffffffffffffffffff16875295820195908201906001016116da565b509495945050505050565b81835260007f07ffffffffffffffffffffffffffffffffffffffffffffffffffffffffffffff83111561175257600080fd5b8260051b8083602087013760009401602001938452509192915050565b818352818160208501375060006020828401015260006020601f19601f840116840101905092915050565b81835260006020808501808196508560051b810191508460005b8781101561183c57828403895281357fffffffffffffffffffffffffffffffffffffffffffffffffffffffffffffffe18836030181126117f357600080fd5b8701803567ffffffffffffffff81111561180c57600080fd5b80360389131561181b57600080fd5b611828868289850161176f565b9a87019a95505050908401906001016117b4565b5091979650505050505050565b6000600a8a10611882577f4e487b7100000000000000000000000000000000000000000000000000000000600052602160045260246000fd5b89825260a0602083015288518060a08401526118a58160c0850160208d016112ec565b601f01601f1916820182810360c090810160408501526118c8908201898b6116ca565b905082810360608401526118dd818789611720565b905082810360808401526118f281858761179a565b9b9a5050505050505050505050565b60006020828403121561191357600080fd5b505191905056fea2646970667358221220a234108caee37db32e67eed597e706fb8af87cd00154e41caf7449176e02cad164736f6c634300080b0033",
  "linkReferences": {},
  "deployedLinkReferences": {}
}