{
  "_format": "hh-sol-artifact-1",
  "contractName": "KaliDAOloglikeCurve",
  "sourceName": "contracts/extensions/crowdsale/KaliDAOloglikeCurve.sol",
  "abi": [
    {
      "inputs": [
        {
          "internalType": "contract IKaliWhitelistManager",
          "name": "whitelistManager_",
          "type": "address"
        }
      ],
      "stateMutability": "nonpayable",
      "type": "constructor"
    },
    {
      "inputs": [],
      "name": "ETHtransferFailed",
      "type": "error"
    },
    {
      "inputs": [],
      "name": "InvalidVelocity",
      "type": "error"
    },
    {
      "inputs": [],
      "name": "NotPrice",
      "type": "error"
    },
    {
      "inputs": [],
      "name": "NotWhitelisted",
      "type": "error"
    },
    {
      "inputs": [],
      "name": "PurchaseLimit",
      "type": "error"
    },
    {
      "inputs": [],
      "name": "Reentrancy",
      "type": "error"
    },
    {
      "inputs": [],
      "name": "SaleEnded",
      "type": "error"
    },
    {
      "anonymous": false,
      "inputs": [
        {
          "indexed": true,
          "internalType": "address",
          "name": "dao",
          "type": "address"
        },
        {
          "indexed": true,
          "internalType": "address",
          "name": "member",
          "type": "address"
        },
        {
          "indexed": true,
          "internalType": "uint256",
          "name": "amountOut",
          "type": "uint256"
        }
      ],
      "name": "ExtensionCalled",
      "type": "event"
    },
    {
      "anonymous": false,
      "inputs": [
        {
          "indexed": true,
          "internalType": "uint256",
          "name": "listId",
          "type": "uint256"
        },
        {
          "indexed": false,
          "internalType": "uint256",
          "name": "startingPrice",
          "type": "uint256"
        },
        {
          "indexed": false,
          "internalType": "uint96",
          "name": "purchaseLimit",
          "type": "uint96"
        },
        {
          "indexed": false,
          "internalType": "uint96",
          "name": "blockSize",
          "type": "uint96"
        },
        {
          "indexed": false,
          "internalType": "uint96",
          "name": "blockPriceIncrement",
          "type": "uint96"
        },
        {
          "indexed": false,
          "internalType": "uint8",
          "name": "velocity",
          "type": "uint8"
        },
        {
          "indexed": false,
          "internalType": "uint32",
          "name": "saleEnds",
          "type": "uint32"
        }
      ],
      "name": "ExtensionSet",
      "type": "event"
    },
    {
      "inputs": [
        {
          "internalType": "address",
          "name": "account",
          "type": "address"
        },
        {
          "internalType": "uint256",
          "name": "amount",
          "type": "uint256"
        },
        {
          "internalType": "bytes",
          "name": "",
          "type": "bytes"
        }
      ],
      "name": "callExtension",
      "outputs": [
        {
          "internalType": "bool",
          "name": "mint",
          "type": "bool"
        },
        {
          "internalType": "uint256",
          "name": "amountOut",
          "type": "uint256"
        }
      ],
      "stateMutability": "payable",
      "type": "function"
    },
    {
      "inputs": [
        {
          "components": [
            {
              "internalType": "uint256",
              "name": "listId",
              "type": "uint256"
            },
            {
              "internalType": "uint256",
              "name": "startingPrice",
              "type": "uint256"
            },
            {
              "internalType": "uint96",
              "name": "purchaseLimit",
              "type": "uint96"
            },
            {
              "internalType": "uint96",
              "name": "amountPurchased",
              "type": "uint96"
            },
            {
              "internalType": "uint96",
              "name": "blockSize",
              "type": "uint96"
            },
            {
              "internalType": "uint96",
              "name": "blockPriceIncrement",
              "type": "uint96"
            },
            {
              "internalType": "uint8",
              "name": "velocity",
              "type": "uint8"
            },
            {
              "internalType": "uint32",
              "name": "saleEnds",
              "type": "uint32"
            }
          ],
          "internalType": "struct KaliDAOloglikeCurve.Crowdsale",
          "name": "sale",
          "type": "tuple"
        },
        {
          "internalType": "uint256",
          "name": "increment",
          "type": "uint256"
        }
      ],
      "name": "changeIncrement",
      "outputs": [
        {
          "internalType": "uint256",
          "name": "",
          "type": "uint256"
        }
      ],
      "stateMutability": "pure",
      "type": "function"
    },
    {
      "inputs": [
        {
          "internalType": "address",
          "name": "",
          "type": "address"
        }
      ],
      "name": "crowdsales",
      "outputs": [
        {
          "internalType": "uint256",
          "name": "listId",
          "type": "uint256"
        },
        {
          "internalType": "uint256",
          "name": "startingPrice",
          "type": "uint256"
        },
        {
          "internalType": "uint96",
          "name": "purchaseLimit",
          "type": "uint96"
        },
        {
          "internalType": "uint96",
          "name": "amountPurchased",
          "type": "uint96"
        },
        {
          "internalType": "uint96",
          "name": "blockSize",
          "type": "uint96"
        },
        {
          "internalType": "uint96",
          "name": "blockPriceIncrement",
          "type": "uint96"
        },
        {
          "internalType": "uint8",
          "name": "velocity",
          "type": "uint8"
        },
        {
          "internalType": "uint32",
          "name": "saleEnds",
          "type": "uint32"
        }
      ],
      "stateMutability": "view",
      "type": "function"
    },
    {
      "inputs": [
        {
          "components": [
            {
              "internalType": "uint256",
              "name": "listId",
              "type": "uint256"
            },
            {
              "internalType": "uint256",
              "name": "startingPrice",
              "type": "uint256"
            },
            {
              "internalType": "uint96",
              "name": "purchaseLimit",
              "type": "uint96"
            },
            {
              "internalType": "uint96",
              "name": "amountPurchased",
              "type": "uint96"
            },
            {
              "internalType": "uint96",
              "name": "blockSize",
              "type": "uint96"
            },
            {
              "internalType": "uint96",
              "name": "blockPriceIncrement",
              "type": "uint96"
            },
            {
              "internalType": "uint8",
              "name": "velocity",
              "type": "uint8"
            },
            {
              "internalType": "uint32",
              "name": "saleEnds",
              "type": "uint32"
            }
          ],
          "internalType": "struct KaliDAOloglikeCurve.Crowdsale",
          "name": "sale",
          "type": "tuple"
        },
        {
          "internalType": "uint256",
          "name": "amount",
          "type": "uint256"
        }
      ],
      "name": "estimatePrice",
      "outputs": [
        {
          "internalType": "uint256",
          "name": "",
          "type": "uint256"
        }
      ],
      "stateMutability": "view",
      "type": "function"
    },
    {
      "inputs": [
        {
          "internalType": "bytes",
          "name": "extensionData",
          "type": "bytes"
        }
      ],
      "name": "setExtension",
      "outputs": [],
      "stateMutability": "nonpayable",
      "type": "function"
    },
    {
      "inputs": [],
      "name": "whitelistManager",
      "outputs": [
        {
          "internalType": "contract IKaliWhitelistManager",
          "name": "",
          "type": "address"
        }
      ],
      "stateMutability": "view",
      "type": "function"
    }
  ],
  "bytecode": "0x60a0604052600160005534801561001557600080fd5b5060405161116a38038061116a83398101604081905261003491610045565b6001600160a01b0316608052610075565b60006020828403121561005757600080fd5b81516001600160a01b038116811461006e57600080fd5b9392505050565b6080516110d46100966000396000818160af01526103a201526110d46000f3fe6080604052600436106100655760003560e01c80638dc41a86116100435780638dc41a8614610120578063dd1e2e0f14610140578063fb0c44411461024e57600080fd5b806312ec2a0e1461006a57806326563b401461009d57806336ceb11a146100f6575b600080fd5b34801561007657600080fd5b5061008a610085366004610c78565b610270565b6040519081526020015b60405180910390f35b3480156100a957600080fd5b506100d17f000000000000000000000000000000000000000000000000000000000000000081565b60405173ffffffffffffffffffffffffffffffffffffffff9091168152602001610094565b610109610104366004610dd9565b610298565b604080519215158352602083019190915201610094565b34801561012c57600080fd5b5061008a61013b366004610c78565b610681565b34801561014c57600080fd5b506101f461015b366004610e33565b6001602081905260009182526040909120805491810154600282015460039092015490916bffffffffffffffffffffffff808216926c01000000000000000000000000928390048216928282169290820416907801000000000000000000000000000000000000000000000000810460ff1690790100000000000000000000000000000000000000000000000000900463ffffffff1688565b6040805198895260208901979097526bffffffffffffffffffffffff958616968801969096529284166060870152908316608086015290911660a084015260ff1660c083015263ffffffff1660e082015261010001610094565b34801561025a57600080fd5b5061026e610269366004610e4e565b610926565b005b600060648360c0015160ff16836102879190610ebf565b6102919190610f2b565b9392505050565b600080600260005414156102d8576040517fab143c0600000000000000000000000000000000000000000000000000000000815260040160405180910390fd5b600260009081553381526001602052604090206003810154790100000000000000000000000000000000000000000000000000900463ffffffff1642111561034c576040517f0bd8a3eb00000000000000000000000000000000000000000000000000000000815260040160405180910390fd5b8054156104455780546040517fbcd521bc000000000000000000000000000000000000000000000000000000008152600481019190915273ffffffffffffffffffffffffffffffffffffffff88811660248301527f0000000000000000000000000000000000000000000000000000000000000000169063bcd521bc906044016020604051808303816000875af11580156103eb573d6000803e3d6000fd5b505050506040513d601f19601f8201168201806040525081019061040f9190610f3f565b610445576040517f584a793800000000000000000000000000000000000000000000000000000000815260040160405180910390fd5b6040805161010081018252825481526001830154602082015260028301546bffffffffffffffffffffffff808216938301939093526c0100000000000000000000000090819004831660608301526003840154808416608084015290810490921660a08201527801000000000000000000000000000000000000000000000000820460ff1660c082015279010000000000000000000000000000000000000000000000000090910463ffffffff1660e08201526000906105059088610681565b9050803414610540576040517f5da1a52600000000000000000000000000000000000000000000000000000000815260040160405180910390fd5b60028201548793506bffffffffffffffffffffffff808216916105759186916c01000000000000000000000000900416610f61565b11156105ad576040517f64aa3de500000000000000000000000000000000000000000000000000000000815260040160405180910390fd5b6105b73334610be8565b8282600201600c8282829054906101000a90046bffffffffffffffffffffffff166105e29190610f79565b92506101000a8154816bffffffffffffffffffffffff02191690836bffffffffffffffffffffffff16021790555060019350828873ffffffffffffffffffffffffffffffffffffffff163373ffffffffffffffffffffffffffffffffffffffff167fe29845e5b466b9faae3f6ea1e46159fd4c7668593a558dfb5a8692e63f51974760405160405180910390a450506001600055909590945092505050565b6000803373ffffffffffffffffffffffffffffffffffffffff166318160ddd6040518163ffffffff1660e01b8152600401602060405180830381865afa1580156106cf573d6000803e3d6000fd5b505050506040513d601f19601f820116820180604052508101906106f39190610fa9565b9050600084608001516bffffffffffffffffffffffff16826107159190610fc2565b905060008186608001516bffffffffffffffffffffffff166107379190610fd6565b6020870151608088015191925090600090610760906bffffffffffffffffffffffff1686610f2b565b60a08901519091506bffffffffffffffffffffffff1660005b828110156107ab5761078b8a83610270565b91506107978285610f61565b9350806107a381610fed565b915050610779565b5060008489116107c6576107bf848a610ebf565b9050610919565b6107d08486610ebf565b6107da9082610f61565b905089608001516bffffffffffffffffffffffff16876107fa9190610f2b565b92508960a001516bffffffffffffffffffffffff16915060005b8381101561083a576108268b84610270565b92508061083281610fed565b915050610814565b506108458285610f61565b93506000610853868b610fd6565b905060008b608001516bffffffffffffffffffffffff16826108759190610fc2565b905060008c608001516bffffffffffffffffffffffff16836108979190610f2b565b905060005b818110156108f75760808e01516108c1906bffffffffffffffffffffffff1689610ebf565b6108cb9086610f61565b94506108d78e87610270565b95506108e38689610f61565b9750806108ef81610fed565b91505061089c565b508115610915576109088783610ebf565b6109129085610f61565b93505b5050505b9998505050505050505050565b60026000541415610963576040517fab143c0600000000000000000000000000000000000000000000000000000000815260040160405180910390fd5b6002600090815580808080808061097c888a018a611026565b965096509650965096509650965060648260ff1610158061099e575060ff8216155b156109d5576040517f350583c000000000000000000000000000000000000000000000000000000000815260040160405180910390fd5b604080516101008101825288815260208082018981526bffffffffffffffffffffffff808a168486019081526000606086018181528b8416608088019081528b851660a0890190815260ff808d1660c08b0190815263ffffffff808e1660e08d0190815233885260019b8c9052968d90209b518c559851998b0199909955945160028a018054945188166c010000000000000000000000009081027fffffffffffffffff000000000000000000000000000000000000000000000000968716938a1693909317929092179055915160039099018054915198519451909716790100000000000000000000000000000000000000000000000000027fffffff00000000ffffffffffffffffffffffffffffffffffffffffffffffffff94909516780100000000000000000000000000000000000000000000000002939093167fffffff0000000000ffffffffffffffffffffffffffffffffffffffffffffffff9786169091029290911696909316959095179490941792909216919091179190911790555187907fda348bd8b31cbcf6bf94a79af47f0dc6333b8f814c14e8173277b7385fc7b39390610bd0908990899089908990899089909586526bffffffffffffffffffffffff948516602087015292841660408601529216606084015260ff91909116608083015263ffffffff1660a082015260c00190565b60405180910390a25050600160005550505050505050565b600080600080600085875af1905080610c2d576040517f23c133f200000000000000000000000000000000000000000000000000000000815260040160405180910390fd5b505050565b80356bffffffffffffffffffffffff81168114610c4e57600080fd5b919050565b803560ff81168114610c4e57600080fd5b803563ffffffff81168114610c4e57600080fd5b600080828403610120811215610c8d57600080fd5b61010080821215610c9d57600080fd5b604051915080820182811067ffffffffffffffff82111715610ce8577f4e487b7100000000000000000000000000000000000000000000000000000000600052604160045260246000fd5b80604052508435825260208501356020830152610d0760408601610c32565b6040830152610d1860608601610c32565b6060830152610d2960808601610c32565b6080830152610d3a60a08601610c32565b60a0830152610d4b60c08601610c53565b60c0830152610d5c60e08601610c64565b60e0830152909593013593505050565b803573ffffffffffffffffffffffffffffffffffffffff81168114610c4e57600080fd5b60008083601f840112610da257600080fd5b50813567ffffffffffffffff811115610dba57600080fd5b602083019150836020828501011115610dd257600080fd5b9250929050565b60008060008060608587031215610def57600080fd5b610df885610d6c565b935060208501359250604085013567ffffffffffffffff811115610e1b57600080fd5b610e2787828801610d90565b95989497509550505050565b600060208284031215610e4557600080fd5b61029182610d6c565b60008060208385031215610e6157600080fd5b823567ffffffffffffffff811115610e7857600080fd5b610e8485828601610d90565b90969095509350505050565b7f4e487b7100000000000000000000000000000000000000000000000000000000600052601160045260246000fd5b6000817fffffffffffffffffffffffffffffffffffffffffffffffffffffffffffffffff0483118215151615610ef757610ef7610e90565b500290565b7f4e487b7100000000000000000000000000000000000000000000000000000000600052601260045260246000fd5b600082610f3a57610f3a610efc565b500490565b600060208284031215610f5157600080fd5b8151801515811461029157600080fd5b60008219821115610f7457610f74610e90565b500190565b60006bffffffffffffffffffffffff808316818516808303821115610fa057610fa0610e90565b01949350505050565b600060208284031215610fbb57600080fd5b5051919050565b600082610fd157610fd1610efc565b500690565b600082821015610fe857610fe8610e90565b500390565b60007fffffffffffffffffffffffffffffffffffffffffffffffffffffffffffffffff82141561101f5761101f610e90565b5060010190565b600080600080600080600060e0888a03121561104157600080fd5b873596506020880135955061105860408901610c32565b945061106660608901610c32565b935061107460808901610c32565b925061108260a08901610c53565b915061109060c08901610c64565b90509295989194975092955056fea264697066735822122014d5f52393dca5d790961bac9d3777f62151108d5587a5dd83ae3c5b3919fa2664736f6c634300080b0033",
  "linkReferences": {},
  "deployedLinkReferences": {}
}