{
  "_format": "hh-sol-artifact-1",
  "contractName": "KaliDAOcrowdsale",
  "sourceName": "contracts/extensions/crowdsale/KaliDAOcrowdsale.sol",
  "abi": [
    {
      "inputs": [
        {
          "internalType": "contract IKaliWhitelistManager",
          "name": "whitelistManager_",
          "type": "address"
        }
      ],
      "stateMutability": "nonpayable",
      "type": "constructor"
    },
    {
      "inputs": [],
      "name": "ETHtransferFailed",
      "type": "error"
    },
    {
      "inputs": [],
      "name": "NotWhitelisted",
      "type": "error"
    },
    {
      "inputs": [],
      "name": "NullMultiplier",
      "type": "error"
    },
    {
      "inputs": [],
      "name": "PurchaseLimit",
      "type": "error"
    },
    {
      "inputs": [],
      "name": "Reentrancy",
      "type": "error"
    },
    {
      "inputs": [],
      "name": "SaleEnded",
      "type": "error"
    },
    {
      "inputs": [],
      "name": "TransferFromFailed",
      "type": "error"
    },
    {
      "anonymous": false,
      "inputs": [
        {
          "indexed": true,
          "internalType": "address",
          "name": "dao",
          "type": "address"
        },
        {
          "indexed": true,
          "internalType": "address",
          "name": "member",
          "type": "address"
        },
        {
          "indexed": true,
          "internalType": "uint256",
          "name": "amountOut",
          "type": "uint256"
        }
      ],
      "name": "ExtensionCalled",
      "type": "event"
    },
    {
      "anonymous": false,
      "inputs": [
        {
          "indexed": false,
          "internalType": "address",
          "name": "dao",
          "type": "address"
        },
        {
          "indexed": false,
          "internalType": "uint256",
          "name": "listId",
          "type": "uint256"
        },
        {
          "indexed": false,
          "internalType": "address",
          "name": "purchaseToken",
          "type": "address"
        },
        {
          "indexed": false,
          "internalType": "uint8",
          "name": "purchaseMultiplier",
          "type": "uint8"
        },
        {
          "indexed": false,
          "internalType": "uint96",
          "name": "purchaseLimit",
          "type": "uint96"
        },
        {
          "indexed": false,
          "internalType": "uint32",
          "name": "saleEnds",
          "type": "uint32"
        }
      ],
      "name": "ExtensionSet",
      "type": "event"
    },
    {
      "inputs": [
        {
          "internalType": "address",
          "name": "dao",
          "type": "address"
        },
        {
          "internalType": "uint256",
          "name": "amount",
          "type": "uint256"
        }
      ],
      "name": "callExtension",
      "outputs": [
        {
          "internalType": "uint256",
          "name": "amountOut",
          "type": "uint256"
        }
      ],
      "stateMutability": "payable",
      "type": "function"
    },
    {
      "inputs": [
        {
          "internalType": "address",
          "name": "",
          "type": "address"
        }
      ],
      "name": "crowdsales",
      "outputs": [
        {
          "internalType": "uint256",
          "name": "listId",
          "type": "uint256"
        },
        {
          "internalType": "address",
          "name": "purchaseToken",
          "type": "address"
        },
        {
          "internalType": "uint8",
          "name": "purchaseMultiplier",
          "type": "uint8"
        },
        {
          "internalType": "uint96",
          "name": "purchaseLimit",
          "type": "uint96"
        },
        {
          "internalType": "uint96",
          "name": "amountPurchased",
          "type": "uint96"
        },
        {
          "internalType": "uint32",
          "name": "saleEnds",
          "type": "uint32"
        }
      ],
      "stateMutability": "view",
      "type": "function"
    },
    {
      "inputs": [
        {
          "internalType": "bytes",
          "name": "extensionData",
          "type": "bytes"
        }
      ],
      "name": "setExtension",
      "outputs": [],
      "stateMutability": "nonpayable",
      "type": "function"
    },
    {
      "inputs": [],
      "name": "whitelistManager",
      "outputs": [
        {
          "internalType": "contract IKaliWhitelistManager",
          "name": "",
          "type": "address"
        }
      ],
      "stateMutability": "view",
      "type": "function"
    }
  ],
  "bytecode": "0x60a0604052600160005534801561001557600080fd5b50604051610f49380380610f4983398101604081905261003491610045565b6001600160a01b0316608052610075565b60006020828403121561005757600080fd5b81516001600160a01b038116811461006e57600080fd5b9392505050565b608051610eb361009660003960008181607c015261031e0152610eb36000f3fe60806040526004361061003f5760003560e01c80631015f46e1461004457806326563b401461006a578063dd1e2e0f146100c3578063fb0c4441146101d9575b600080fd5b610057610052366004610b8b565b6101fb565b6040519081526020015b60405180910390f35b34801561007657600080fd5b5061009e7f000000000000000000000000000000000000000000000000000000000000000081565b60405173ffffffffffffffffffffffffffffffffffffffff9091168152602001610061565b3480156100cf57600080fd5b506101796100de366004610bb7565b600160208190526000918252604090912080549181015460029091015473ffffffffffffffffffffffffffffffffffffffff82169174010000000000000000000000000000000000000000900460ff16906bffffffffffffffffffffffff808216916c010000000000000000000000008104909116907801000000000000000000000000000000000000000000000000900463ffffffff1686565b6040805196875273ffffffffffffffffffffffffffffffffffffffff909516602087015260ff909316938501939093526bffffffffffffffffffffffff9081166060850152909116608083015263ffffffff1660a082015260c001610061565b3480156101e557600080fd5b506101f96101f4366004610bdb565b610776565b005b60006002600054141561023a576040517fab143c0600000000000000000000000000000000000000000000000000000000815260040160405180910390fd5b6002600081815573ffffffffffffffffffffffffffffffffffffffff851681526001602081815260409283902083518083019390935283518084039092018252918301909252918201547801000000000000000000000000000000000000000000000000900463ffffffff164211156102df576040517f0bd8a3eb00000000000000000000000000000000000000000000000000000000815260040160405180910390fd5b8154156103d65781546040517fbcd521bc00000000000000000000000000000000000000000000000000000000815260048101919091523360248201527f000000000000000000000000000000000000000000000000000000000000000073ffffffffffffffffffffffffffffffffffffffff169063bcd521bc906044016020604051808303816000875af115801561037c573d6000803e3d6000fd5b505050506040513d601f19601f820116820180604052508101906103a09190610c62565b6103d6576040517f584a793800000000000000000000000000000000000000000000000000000000815260040160405180910390fd5b600182015473ffffffffffffffffffffffffffffffffffffffff1661058b57600182015461041f9074010000000000000000000000000000000000000000900460ff1634610cac565b60028301549093506bffffffffffffffffffffffff808216916104549186916c01000000000000000000000000900416610ce9565b111561048c576040517f64aa3de500000000000000000000000000000000000000000000000000000000815260040160405180910390fd5b6104ac73ffffffffffffffffffffffffffffffffffffffff861634610a1b565b8282600201600c8282829054906101000a90046bffffffffffffffffffffffff166104d79190610d01565b92506101000a8154816bffffffffffffffffffffffff02191690836bffffffffffffffffffffffff1602179055508473ffffffffffffffffffffffffffffffffffffffff166336ceb11a3385846040518463ffffffff1660e01b815260040161054293929190610d31565b60408051808303816000875af1158015610560573d6000803e3d6000fd5b505050506040513d601f19601f820116820180604052508101906105849190610dc9565b5050610724565b60018201546105b29073ffffffffffffffffffffffffffffffffffffffff16338787610a65565b60018201546105dc9074010000000000000000000000000000000000000000900460ff1685610cac565b60028301549093506bffffffffffffffffffffffff808216916106119186916c01000000000000000000000000900416610ce9565b1115610649576040517f64aa3de500000000000000000000000000000000000000000000000000000000815260040160405180910390fd5b8282600201600c8282829054906101000a90046bffffffffffffffffffffffff166106749190610d01565b92506101000a8154816bffffffffffffffffffffffff02191690836bffffffffffffffffffffffff1602179055508473ffffffffffffffffffffffffffffffffffffffff166336ceb11a3385846040518463ffffffff1660e01b81526004016106df93929190610d31565b60408051808303816000875af11580156106fd573d6000803e3d6000fd5b505050506040513d601f19601f820116820180604052508101906107219190610dc9565b50505b604051839073ffffffffffffffffffffffffffffffffffffffff87169033907fe29845e5b466b9faae3f6ea1e46159fd4c7668593a558dfb5a8692e63f51974790600090a45050600160005592915050565b600260005414156107b3576040517fab143c0600000000000000000000000000000000000000000000000000000000815260040160405180910390fd5b60026000908155808080806107ca86880188610df5565b945094509450945094508260ff1660001415610812576040517f4b5746c000000000000000000000000000000000000000000000000000000000815260040160405180910390fd5b6040805160c08101825286815273ffffffffffffffffffffffffffffffffffffffff808716602080840191825260ff8089168587019081526bffffffffffffffffffffffff808a166060880190815260006080890181815263ffffffff808d1660a08c01908152338085526001998a9052938d90209b518c559851978b018054965190971674010000000000000000000000000000000000000000027fffffffffffffffffffffff000000000000000000000000000000000000000000909616979099169690961793909317909355915160029096018054935194519095167801000000000000000000000000000000000000000000000000027fffffffff00000000ffffffffffffffffffffffffffffffffffffffffffffffff9483166c01000000000000000000000000027fffffffffffffffff0000000000000000000000000000000000000000000000009094169690921695909517919091179190911617905590517f48f96eb172aa2ac6667b3468b84a56c80ada1e464efd1af7a4dd50b5d76fbc9091610a05918890889088908890889073ffffffffffffffffffffffffffffffffffffffff9687168152602081019590955292909416604084015260ff1660608301526bffffffffffffffffffffffff92909216608082015263ffffffff9190911660a082015260c00190565b60405180910390a1505060016000555050505050565b600080600080600085875af1905080610a60576040517f23c133f200000000000000000000000000000000000000000000000000000000815260040160405180910390fd5b505050565b60006040517f23b872dd00000000000000000000000000000000000000000000000000000000815273ffffffffffffffffffffffffffffffffffffffff8516600482015273ffffffffffffffffffffffffffffffffffffffff8416602482015282604482015260008060648360008a5af1915050610ae281610b1f565b610b18576040517f7939f42400000000000000000000000000000000000000000000000000000000815260040160405180910390fd5b5050505050565b60003d82610b3157806000803e806000fd5b8060208114610b49578015610b5a5760009250610b5f565b816000803e60005115159250610b5f565b600192505b5050919050565b73ffffffffffffffffffffffffffffffffffffffff81168114610b8857600080fd5b50565b60008060408385031215610b9e57600080fd5b8235610ba981610b66565b946020939093013593505050565b600060208284031215610bc957600080fd5b8135610bd481610b66565b9392505050565b60008060208385031215610bee57600080fd5b823567ffffffffffffffff80821115610c0657600080fd5b818501915085601f830112610c1a57600080fd5b813581811115610c2957600080fd5b866020828501011115610c3b57600080fd5b60209290920196919550909350505050565b80518015158114610c5d57600080fd5b919050565b600060208284031215610c7457600080fd5b610bd482610c4d565b7f4e487b7100000000000000000000000000000000000000000000000000000000600052601160045260246000fd5b6000817fffffffffffffffffffffffffffffffffffffffffffffffffffffffffffffffff0483118215151615610ce457610ce4610c7d565b500290565b60008219821115610cfc57610cfc610c7d565b500190565b60006bffffffffffffffffffffffff808316818516808303821115610d2857610d28610c7d565b01949350505050565b73ffffffffffffffffffffffffffffffffffffffff8416815260006020848184015260606040840152835180606085015260005b81811015610d8157858101830151858201608001528201610d65565b81811115610d93576000608083870101525b50601f017fffffffffffffffffffffffffffffffffffffffffffffffffffffffffffffffe0169290920160800195945050505050565b60008060408385031215610ddc57600080fd5b610de583610c4d565b9150602083015190509250929050565b600080600080600060a08688031215610e0d57600080fd5b853594506020860135610e1f81610b66565b9350604086013560ff81168114610e3557600080fd5b925060608601356bffffffffffffffffffffffff81168114610e5657600080fd5b9150608086013563ffffffff81168114610e6f57600080fd5b80915050929550929590935056fea2646970667358221220799b12a2b2bf7bd9fb278825ec12b10624ac7ab8a6eca7647e39be8a7ecdce4164736f6c634300080b0033",
  "linkReferences": {},
  "deployedLinkReferences": {}
}