{
  "_format": "hh-sol-artifact-1",
  "contractName": "KaliDAOlinearCurve",
  "sourceName": "contracts/extensions/crowdsale/KaliDAOlinearCurve.sol",
  "abi": [
    {
      "inputs": [
        {
          "internalType": "contract IKaliWhitelistManager",
          "name": "whitelistManager_",
          "type": "address"
        }
      ],
      "stateMutability": "nonpayable",
      "type": "constructor"
    },
    {
      "inputs": [],
      "name": "ETHtransferFailed",
      "type": "error"
    },
    {
      "inputs": [],
      "name": "NotPrice",
      "type": "error"
    },
    {
      "inputs": [],
      "name": "NotWhitelisted",
      "type": "error"
    },
    {
      "inputs": [],
      "name": "PurchaseLimit",
      "type": "error"
    },
    {
      "inputs": [],
      "name": "Reentrancy",
      "type": "error"
    },
    {
      "inputs": [],
      "name": "SaleEnded",
      "type": "error"
    },
    {
      "anonymous": false,
      "inputs": [
        {
          "indexed": true,
          "internalType": "address",
          "name": "dao",
          "type": "address"
        },
        {
          "indexed": true,
          "internalType": "address",
          "name": "member",
          "type": "address"
        },
        {
          "indexed": true,
          "internalType": "uint256",
          "name": "amountOut",
          "type": "uint256"
        }
      ],
      "name": "ExtensionCalled",
      "type": "event"
    },
    {
      "anonymous": false,
      "inputs": [
        {
          "indexed": true,
          "internalType": "uint256",
          "name": "listId",
          "type": "uint256"
        },
        {
          "indexed": false,
          "internalType": "uint256",
          "name": "startingPrice",
          "type": "uint256"
        },
        {
          "indexed": false,
          "internalType": "uint96",
          "name": "purchaseLimit",
          "type": "uint96"
        },
        {
          "indexed": false,
          "internalType": "uint96",
          "name": "blockSize",
          "type": "uint96"
        },
        {
          "indexed": false,
          "internalType": "uint96",
          "name": "blockPriceIncrement",
          "type": "uint96"
        },
        {
          "indexed": false,
          "internalType": "uint32",
          "name": "saleEnds",
          "type": "uint32"
        }
      ],
      "name": "ExtensionSet",
      "type": "event"
    },
    {
      "inputs": [
        {
          "internalType": "address",
          "name": "account",
          "type": "address"
        },
        {
          "internalType": "uint256",
          "name": "amount",
          "type": "uint256"
        },
        {
          "internalType": "bytes",
          "name": "",
          "type": "bytes"
        }
      ],
      "name": "callExtension",
      "outputs": [
        {
          "internalType": "bool",
          "name": "mint",
          "type": "bool"
        },
        {
          "internalType": "uint256",
          "name": "amountOut",
          "type": "uint256"
        }
      ],
      "stateMutability": "payable",
      "type": "function"
    },
    {
      "inputs": [
        {
          "internalType": "address",
          "name": "",
          "type": "address"
        }
      ],
      "name": "crowdsales",
      "outputs": [
        {
          "internalType": "uint256",
          "name": "listId",
          "type": "uint256"
        },
        {
          "internalType": "uint256",
          "name": "startingPrice",
          "type": "uint256"
        },
        {
          "internalType": "uint96",
          "name": "purchaseLimit",
          "type": "uint96"
        },
        {
          "internalType": "uint96",
          "name": "amountPurchased",
          "type": "uint96"
        },
        {
          "internalType": "uint96",
          "name": "blockSize",
          "type": "uint96"
        },
        {
          "internalType": "uint96",
          "name": "blockPriceIncrement",
          "type": "uint96"
        },
        {
          "internalType": "uint32",
          "name": "saleEnds",
          "type": "uint32"
        }
      ],
      "stateMutability": "view",
      "type": "function"
    },
    {
      "inputs": [
        {
          "components": [
            {
              "internalType": "uint256",
              "name": "listId",
              "type": "uint256"
            },
            {
              "internalType": "uint256",
              "name": "startingPrice",
              "type": "uint256"
            },
            {
              "internalType": "uint96",
              "name": "purchaseLimit",
              "type": "uint96"
            },
            {
              "internalType": "uint96",
              "name": "amountPurchased",
              "type": "uint96"
            },
            {
              "internalType": "uint96",
              "name": "blockSize",
              "type": "uint96"
            },
            {
              "internalType": "uint96",
              "name": "blockPriceIncrement",
              "type": "uint96"
            },
            {
              "internalType": "uint32",
              "name": "saleEnds",
              "type": "uint32"
            }
          ],
          "internalType": "struct KaliDAOlinearCurve.Crowdsale",
          "name": "sale",
          "type": "tuple"
        },
        {
          "internalType": "uint256",
          "name": "amount",
          "type": "uint256"
        }
      ],
      "name": "estimatePrice",
      "outputs": [
        {
          "internalType": "uint256",
          "name": "",
          "type": "uint256"
        }
      ],
      "stateMutability": "view",
      "type": "function"
    },
    {
      "inputs": [
        {
          "internalType": "bytes",
          "name": "extensionData",
          "type": "bytes"
        }
      ],
      "name": "setExtension",
      "outputs": [],
      "stateMutability": "nonpayable",
      "type": "function"
    },
    {
      "inputs": [],
      "name": "whitelistManager",
      "outputs": [
        {
          "internalType": "contract IKaliWhitelistManager",
          "name": "",
          "type": "address"
        }
      ],
      "stateMutability": "view",
      "type": "function"
    }
  ],
  "bytecode": "0x60a0604052600160005534801561001557600080fd5b50604051610f94380380610f9483398101604081905261003491610045565b6001600160a01b0316608052610075565b60006020828403121561005757600080fd5b81516001600160a01b038116811461006e57600080fd5b9392505050565b608051610efe61009660003960008181607101526103210152610efe6000f3fe60806040526004361061005a5760003560e01c80637cc3cccf116100435780637cc3cccf146100e7578063dd1e2e0f14610115578063fb0c4441146101f657600080fd5b806326563b401461005f57806336ceb11a146100bd575b600080fd5b34801561006b57600080fd5b506100937f000000000000000000000000000000000000000000000000000000000000000081565b60405173ffffffffffffffffffffffffffffffffffffffff90911681526020015b60405180910390f35b6100d06100cb366004610afa565b610218565b6040805192151583526020830191909152016100b4565b3480156100f357600080fd5b50610107610102366004610b84565b6105da565b6040519081526020016100b4565b34801561012157600080fd5b506101a8610130366004610c68565b6001602081905260009182526040909120805491810154600282015460039092015490916bffffffffffffffffffffffff808216926c01000000000000000000000000928390048216928282169290820416907801000000000000000000000000000000000000000000000000900463ffffffff1687565b6040805197885260208801969096526bffffffffffffffffffffffff948516958701959095529183166060860152821660808501521660a083015263ffffffff1660c082015260e0016100b4565b34801561020257600080fd5b50610216610211366004610c8a565b61082e565b005b60008060026000541415610258576040517fab143c0600000000000000000000000000000000000000000000000000000000815260040160405180910390fd5b6002600090815533815260016020526040902060038101547801000000000000000000000000000000000000000000000000900463ffffffff164211156102cb576040517f0bd8a3eb00000000000000000000000000000000000000000000000000000000815260040160405180910390fd5b8054156103c45780546040517fbcd521bc000000000000000000000000000000000000000000000000000000008152600481019190915273ffffffffffffffffffffffffffffffffffffffff88811660248301527f0000000000000000000000000000000000000000000000000000000000000000169063bcd521bc906044016020604051808303816000875af115801561036a573d6000803e3d6000fd5b505050506040513d601f19601f8201168201806040525081019061038e9190610ccc565b6103c4576040517f584a793800000000000000000000000000000000000000000000000000000000815260040160405180910390fd5b6040805160e081018252825481526001830154602082015260028301546bffffffffffffffffffffffff808216938301939093526c0100000000000000000000000090819004831660608301526003840154808416608084015290810490921660a0820152780100000000000000000000000000000000000000000000000090910463ffffffff1660c082015260009061045e90886105da565b9050803414610499576040517f5da1a52600000000000000000000000000000000000000000000000000000000815260040160405180910390fd5b60028201548793506bffffffffffffffffffffffff808216916104ce9186916c01000000000000000000000000900416610d1d565b1115610506576040517f64aa3de500000000000000000000000000000000000000000000000000000000815260040160405180910390fd5b6105103334610a3e565b8282600201600c8282829054906101000a90046bffffffffffffffffffffffff1661053b9190610d35565b92506101000a8154816bffffffffffffffffffffffff02191690836bffffffffffffffffffffffff16021790555060019350828873ffffffffffffffffffffffffffffffffffffffff163373ffffffffffffffffffffffffffffffffffffffff167fe29845e5b466b9faae3f6ea1e46159fd4c7668593a558dfb5a8692e63f51974760405160405180910390a450506001600055909590945092505050565b6000803373ffffffffffffffffffffffffffffffffffffffff166318160ddd6040518163ffffffff1660e01b8152600401602060405180830381865afa158015610628573d6000803e3d6000fd5b505050506040513d601f19601f8201168201806040525081019061064c9190610d65565b9050600084608001516bffffffffffffffffffffffff168261066e9190610dad565b905060008186608001516bffffffffffffffffffffffff166106909190610dc1565b60208701516080880151919250906000906106b9906bffffffffffffffffffffffff1686610dd8565b905060005b818110156106f75760a08901516106e3906bffffffffffffffffffffffff1684610d1d565b9250806106ef81610dec565b9150506106be565b5060008388116107125761070b8389610e25565b9050610822565b61071c8385610e25565b6107269082610d1d565b90508860a001516bffffffffffffffffffffffff16836107469190610d1d565b92506000610754858a610dc1565b905060008a608001516bffffffffffffffffffffffff16826107769190610dad565b905060008b608001516bffffffffffffffffffffffff16836107989190610dd8565b905060005b818110156108005760808d01516107c2906bffffffffffffffffffffffff1688610e25565b6107cc9086610d1d565b94508c60a001516bffffffffffffffffffffffff16876107ec9190610d1d565b9650806107f881610dec565b91505061079d565b50811561081e576108118683610e25565b61081b9085610d1d565b93505b5050505b98975050505050505050565b6002600054141561086b576040517fab143c0600000000000000000000000000000000000000000000000000000000815260040160405180910390fd5b60026000908155808080808061088387890189610e62565b6040805160e08101825287815260208082018881526bffffffffffffffffffffffff808916848601908152600060608601818152838b1660808801908152848b1660a0890190815263ffffffff808c1660c08b019081523386526001998a9052948b902099518a559651978901979097559251600288018054925186166c010000000000000000000000009081027fffffffffffffffff00000000000000000000000000000000000000000000000094851693881693909317929092179055925160039097018054965192519095167801000000000000000000000000000000000000000000000000027fffffffff00000000ffffffffffffffffffffffffffffffffffffffffffffffff92851690930295169590921694909417929092179190911691909117905551959b5093995091975095509350915086907f3b6b5eac1d282a831924839ffb73f973d52aaa88173543cbcbe8628bf2fc1d4b90610a2790889088908890889088909485526bffffffffffffffffffffffff93841660208601529183166040850152909116606083015263ffffffff16608082015260a00190565b60405180910390a250506001600055505050505050565b600080600080600085875af1905080610a83576040517f23c133f200000000000000000000000000000000000000000000000000000000815260040160405180910390fd5b505050565b803573ffffffffffffffffffffffffffffffffffffffff81168114610aac57600080fd5b919050565b60008083601f840112610ac357600080fd5b50813567ffffffffffffffff811115610adb57600080fd5b602083019150836020828501011115610af357600080fd5b9250929050565b60008060008060608587031215610b1057600080fd5b610b1985610a88565b935060208501359250604085013567ffffffffffffffff811115610b3c57600080fd5b610b4887828801610ab1565b95989497509550505050565b80356bffffffffffffffffffffffff81168114610aac57600080fd5b803563ffffffff81168114610aac57600080fd5b600080828403610100811215610b9957600080fd5b60e0811215610ba757600080fd5b5060405160e0810181811067ffffffffffffffff82111715610bf2577f4e487b7100000000000000000000000000000000000000000000000000000000600052604160045260246000fd5b80604052508335815260208401356020820152610c1160408501610b54565b6040820152610c2260608501610b54565b6060820152610c3360808501610b54565b6080820152610c4460a08501610b54565b60a0820152610c5560c08501610b70565b60c08201529460e0939093013593505050565b600060208284031215610c7a57600080fd5b610c8382610a88565b9392505050565b60008060208385031215610c9d57600080fd5b823567ffffffffffffffff811115610cb457600080fd5b610cc085828601610ab1565b90969095509350505050565b600060208284031215610cde57600080fd5b81518015158114610c8357600080fd5b7f4e487b7100000000000000000000000000000000000000000000000000000000600052601160045260246000fd5b60008219821115610d3057610d30610cee565b500190565b60006bffffffffffffffffffffffff808316818516808303821115610d5c57610d5c610cee565b01949350505050565b600060208284031215610d7757600080fd5b5051919050565b7f4e487b7100000000000000000000000000000000000000000000000000000000600052601260045260246000fd5b600082610dbc57610dbc610d7e565b500690565b600082821015610dd357610dd3610cee565b500390565b600082610de757610de7610d7e565b500490565b60007fffffffffffffffffffffffffffffffffffffffffffffffffffffffffffffffff821415610e1e57610e1e610cee565b5060010190565b6000817fffffffffffffffffffffffffffffffffffffffffffffffffffffffffffffffff0483118215151615610e5d57610e5d610cee565b500290565b60008060008060008060c08789031215610e7b57600080fd5b8635955060208701359450610e9260408801610b54565b9350610ea060608801610b54565b9250610eae60808801610b54565b9150610ebc60a08801610b70565b9050929550929550929556fea2646970667358221220c671ee270cfc35797d22327068ce3b03558b959b61c60778ef1d684b72547a9764736f6c634300080b0033",
  "linkReferences": {},
  "deployedLinkReferences": {}
}