{
  "_format": "hh-sol-artifact-1",
  "contractName": "KaliDAOredemption",
  "sourceName": "contracts/extensions/redemption/KaliDAOredemption.sol",
  "abi": [
    {
      "inputs": [],
      "name": "NotStarted",
      "type": "error"
    },
    {
      "inputs": [],
      "name": "NullTokens",
      "type": "error"
    },
    {
      "inputs": [],
      "name": "Reentrancy",
      "type": "error"
    },
    {
      "inputs": [],
      "name": "TransferFromFailed",
      "type": "error"
    },
    {
      "anonymous": false,
      "inputs": [
        {
          "indexed": true,
          "internalType": "address",
          "name": "dao",
          "type": "address"
        },
        {
          "indexed": true,
          "internalType": "address",
          "name": "member",
          "type": "address"
        },
        {
          "indexed": true,
          "internalType": "uint256",
          "name": "amountBurned",
          "type": "uint256"
        }
      ],
      "name": "ExtensionCalled",
      "type": "event"
    },
    {
      "anonymous": false,
      "inputs": [
        {
          "indexed": true,
          "internalType": "address",
          "name": "dao",
          "type": "address"
        },
        {
          "indexed": false,
          "internalType": "address[]",
          "name": "tokens",
          "type": "address[]"
        },
        {
          "indexed": true,
          "internalType": "uint256",
          "name": "redemptionStart",
          "type": "uint256"
        }
      ],
      "name": "ExtensionSet",
      "type": "event"
    },
    {
      "anonymous": false,
      "inputs": [
        {
          "indexed": true,
          "internalType": "address",
          "name": "dao",
          "type": "address"
        },
        {
          "indexed": false,
          "internalType": "address[]",
          "name": "tokens",
          "type": "address[]"
        }
      ],
      "name": "TokensAdded",
      "type": "event"
    },
    {
      "anonymous": false,
      "inputs": [
        {
          "indexed": true,
          "internalType": "address",
          "name": "dao",
          "type": "address"
        },
        {
          "indexed": false,
          "internalType": "uint256[]",
          "name": "tokenIndex",
          "type": "uint256[]"
        }
      ],
      "name": "TokensRemoved",
      "type": "event"
    },
    {
      "inputs": [
        {
          "internalType": "address[]",
          "name": "tokens",
          "type": "address[]"
        }
      ],
      "name": "addTokens",
      "outputs": [],
      "stateMutability": "nonpayable",
      "type": "function"
    },
    {
      "inputs": [
        {
          "internalType": "address",
          "name": "account",
          "type": "address"
        },
        {
          "internalType": "uint256",
          "name": "amount",
          "type": "uint256"
        },
        {
          "internalType": "bytes",
          "name": "",
          "type": "bytes"
        }
      ],
      "name": "callExtension",
      "outputs": [
        {
          "internalType": "bool",
          "name": "mint",
          "type": "bool"
        },
        {
          "internalType": "uint256",
          "name": "amountOut",
          "type": "uint256"
        }
      ],
      "stateMutability": "nonpayable",
      "type": "function"
    },
    {
      "inputs": [
        {
          "internalType": "address",
          "name": "dao",
          "type": "address"
        }
      ],
      "name": "getRedeemables",
      "outputs": [
        {
          "internalType": "address[]",
          "name": "tokens",
          "type": "address[]"
        }
      ],
      "stateMutability": "view",
      "type": "function"
    },
    {
      "inputs": [
        {
          "internalType": "address",
          "name": "",
          "type": "address"
        },
        {
          "internalType": "uint256",
          "name": "",
          "type": "uint256"
        }
      ],
      "name": "redeemables",
      "outputs": [
        {
          "internalType": "address",
          "name": "",
          "type": "address"
        }
      ],
      "stateMutability": "view",
      "type": "function"
    },
    {
      "inputs": [
        {
          "internalType": "address",
          "name": "",
          "type": "address"
        }
      ],
      "name": "redemptionStarts",
      "outputs": [
        {
          "internalType": "uint256",
          "name": "",
          "type": "uint256"
        }
      ],
      "stateMutability": "view",
      "type": "function"
    },
    {
      "inputs": [
        {
          "internalType": "uint256[]",
          "name": "tokenIndex",
          "type": "uint256[]"
        }
      ],
      "name": "removeTokens",
      "outputs": [],
      "stateMutability": "nonpayable",
      "type": "function"
    },
    {
      "inputs": [
        {
          "internalType": "bytes",
          "name": "extensionData",
          "type": "bytes"
        }
      ],
      "name": "setExtension",
      "outputs": [],
      "stateMutability": "nonpayable",
      "type": "function"
    }
  ],
  "bytecode": "0x6080604052600160005534801561001557600080fd5b506110b3806100256000396000f3fe608060405234801561001057600080fd5b506004361061007d5760003560e01c80638340c3d01161005b5780638340c3d0146100f4578063ee67177314610114578063fb0c44411461014c578063ff59bcd01461015f57600080fd5b80632e91974d1461008257806336ceb11a146100b55780634ae05c7d146100df575b600080fd5b6100a2610090366004610b43565b60026020526000908152604090205481565b6040519081526020015b60405180910390f35b6100c86100c3366004610bae565b610172565b6040805192151583526020830191909152016100ac565b6100f26100ed366004610c4d565b610427565b005b610107610102366004610b43565b610561565b6040516100ac9190610c8f565b610127610122366004610ce9565b6105f1565b60405173ffffffffffffffffffffffffffffffffffffffff90911681526020016100ac565b6100f261015a366004610d13565b610636565b6100f261016d366004610c4d565b6107e6565b600080600260005414156101b2576040517fab143c0600000000000000000000000000000000000000000000000000000000815260040160405180910390fd5b600260008181553381526020919091526040902054421015610200576040517f6f312cbd00000000000000000000000000000000000000000000000000000000815260040160405180910390fd5b60005b336000908152600160205260409020548110156103cb5760003373ffffffffffffffffffffffffffffffffffffffff166318160ddd6040518163ffffffff1660e01b8152600401602060405180830381865afa158015610267573d6000803e3d6000fd5b505050506040513d601f19601f8201168201806040525081019061028b9190610d49565b3360009081526001602052604090208054849081106102ac576102ac610d62565b6000918252602090912001546040517f70a0823100000000000000000000000000000000000000000000000000000000815233600482015273ffffffffffffffffffffffffffffffffffffffff909116906370a0823190602401602060405180830381865afa158015610323573d6000803e3d6000fd5b505050506040513d601f19601f820116820180604052508101906103479190610d49565b6103519089610dc0565b61035b9190610dfd565b905080156103b85733600081815260016020526040902080546103b892918b918591908790811061038e5761038e610d62565b60009182526020909120015473ffffffffffffffffffffffffffffffffffffffff169291906109df565b50806103c381610e38565b915050610203565b5050604051600091508490819073ffffffffffffffffffffffffffffffffffffffff88169033907fe29845e5b466b9faae3f6ea1e46159fd4c7668593a558dfb5a8692e63f519747908690a46001600055909590945092505050565b60026000541415610464576040517fab143c0600000000000000000000000000000000000000000000000000000000815260040160405180910390fd5b600260009081555b818110156105075733600090815260016020526040902083838381811061049557610495610d62565b90506020020160208101906104aa9190610b43565b815460018082018455600093845260209093200180547fffffffffffffffffffffffff00000000000000000000000000000000000000001673ffffffffffffffffffffffffffffffffffffffff929092169190911790550161046c565b503373ffffffffffffffffffffffffffffffffffffffff167fb52c246adab8357fbbc9838f7af811e08bc8bb86a74dbd08e45db2e1686b329b8383604051610550929190610e71565b60405180910390a250506001600055565b73ffffffffffffffffffffffffffffffffffffffff81166000908152600160209081526040918290208054835181840281018401909452808452606093928301828280156105e557602002820191906000526020600020905b815473ffffffffffffffffffffffffffffffffffffffff1681526001909101906020018083116105ba575b50505050509050919050565b6001602052816000526040600020818154811061060d57600080fd5b60009182526020909120015473ffffffffffffffffffffffffffffffffffffffff169150829050565b60026000541415610673576040517fab143c0600000000000000000000000000000000000000000000000000000000815260040160405180910390fd5b600260009081558061068783850185610ef9565b915091508151600014156106c7576040517f4f80688a00000000000000000000000000000000000000000000000000000000815260040160405180910390fd5b33600090815260016020526040902054156106f4573360009081526001602052604081206106f491610ae0565b60005b825181101561078d57336000908152600160205260409020835184908390811061072357610723610d62565b60209081029190910181015182546001808201855560009485529290932090920180547fffffffffffffffffffffffff00000000000000000000000000000000000000001673ffffffffffffffffffffffffffffffffffffffff90931692909217909155016106f7565b503360008181526002602052604090819020839055518291907fa546622bd13400b0d21ccee86e917b2eae9cbcc4e8234d3b62336b7c61abf40e906107d3908690610c8f565b60405180910390a3505060016000555050565b60026000541415610823576040517fab143c0600000000000000000000000000000000000000000000000000000000815260040160405180910390fd5b600260009081555b81811015610996573360009081526001602081905260409091208054909161085291610fe2565b8154811061086257610862610d62565b60009182526020808320909101543383526001909152604090912073ffffffffffffffffffffffffffffffffffffffff909116908484848181106108a8576108a8610d62565b90506020020135815481106108bf576108bf610d62565b600091825260208083209190910180547fffffffffffffffffffffffff00000000000000000000000000000000000000001673ffffffffffffffffffffffffffffffffffffffff949094169390931790925533815260019091526040902080548061092c5761092c610ff9565b60008281526020902081017fffffffffffffffffffffffffffffffffffffffffffffffffffffffffffffffff90810180547fffffffffffffffffffffffff00000000000000000000000000000000000000001690550190558061098e81610e38565b91505061082b565b503373ffffffffffffffffffffffffffffffffffffffff167f025c12f84fa7176f6165c553455c9b2b0a454d3c31dea47a6af67e08734d5e4d8383604051610550929190611028565b60006040517f23b872dd00000000000000000000000000000000000000000000000000000000815273ffffffffffffffffffffffffffffffffffffffff8516600482015273ffffffffffffffffffffffffffffffffffffffff8416602482015282604482015260008060648360008a5af1915050610a5c81610a99565b610a92576040517f7939f42400000000000000000000000000000000000000000000000000000000815260040160405180910390fd5b5050505050565b60003d82610aab57806000803e806000fd5b8060208114610ac3578015610ad45760009250610ad9565b816000803e60005115159250610ad9565b600192505b5050919050565b5080546000825590600052602060002090810190610afe9190610b01565b50565b5b80821115610b165760008155600101610b02565b5090565b803573ffffffffffffffffffffffffffffffffffffffff81168114610b3e57600080fd5b919050565b600060208284031215610b5557600080fd5b610b5e82610b1a565b9392505050565b60008083601f840112610b7757600080fd5b50813567ffffffffffffffff811115610b8f57600080fd5b602083019150836020828501011115610ba757600080fd5b9250929050565b60008060008060608587031215610bc457600080fd5b610bcd85610b1a565b935060208501359250604085013567ffffffffffffffff811115610bf057600080fd5b610bfc87828801610b65565b95989497509550505050565b60008083601f840112610c1a57600080fd5b50813567ffffffffffffffff811115610c3257600080fd5b6020830191508360208260051b8501011115610ba757600080fd5b60008060208385031215610c6057600080fd5b823567ffffffffffffffff811115610c7757600080fd5b610c8385828601610c08565b90969095509350505050565b6020808252825182820181905260009190848201906040850190845b81811015610cdd57835173ffffffffffffffffffffffffffffffffffffffff1683529284019291840191600101610cab565b50909695505050505050565b60008060408385031215610cfc57600080fd5b610d0583610b1a565b946020939093013593505050565b60008060208385031215610d2657600080fd5b823567ffffffffffffffff811115610d3d57600080fd5b610c8385828601610b65565b600060208284031215610d5b57600080fd5b5051919050565b7f4e487b7100000000000000000000000000000000000000000000000000000000600052603260045260246000fd5b7f4e487b7100000000000000000000000000000000000000000000000000000000600052601160045260246000fd5b6000817fffffffffffffffffffffffffffffffffffffffffffffffffffffffffffffffff0483118215151615610df857610df8610d91565b500290565b600082610e33577f4e487b7100000000000000000000000000000000000000000000000000000000600052601260045260246000fd5b500490565b60007fffffffffffffffffffffffffffffffffffffffffffffffffffffffffffffffff821415610e6a57610e6a610d91565b5060010190565b60208082528181018390526000908460408401835b86811015610ebf5773ffffffffffffffffffffffffffffffffffffffff610eac84610b1a565b1682529183019190830190600101610e86565b509695505050505050565b7f4e487b7100000000000000000000000000000000000000000000000000000000600052604160045260246000fd5b60008060408385031215610f0c57600080fd5b823567ffffffffffffffff80821115610f2457600080fd5b818501915085601f830112610f3857600080fd5b8135602082821115610f4c57610f4c610eca565b8160051b6040517fffffffffffffffffffffffffffffffffffffffffffffffffffffffffffffffe0603f83011681018181108682111715610f8f57610f8f610eca565b604052928352818301935084810182019289841115610fad57600080fd5b948201945b83861015610fd257610fc386610b1a565b85529482019493820193610fb2565b9997909101359750505050505050565b600082821015610ff457610ff4610d91565b500390565b7f4e487b7100000000000000000000000000000000000000000000000000000000600052603160045260246000fd5b6020815281602082015260007f07ffffffffffffffffffffffffffffffffffffffffffffffffffffffffffffff83111561106157600080fd5b8260051b8085604085013760009201604001918252509291505056fea264697066735822122041509992d23ee4a300a23fa38b9c99e7e003f006f4acb7e00a46fc645b09dd7b64736f6c634300080b0033",
  "linkReferences": {},
  "deployedLinkReferences": {}
}