{
  "_format": "hh-sol-artifact-1",
  "contractName": "DropETH",
  "sourceName": "contracts/mocks/DropETH.sol",
  "abi": [
    {
      "anonymous": false,
      "inputs": [
        {
          "indexed": true,
          "internalType": "string",
          "name": "message",
          "type": "string"
        }
      ],
      "name": "ETHDropped",
      "type": "event"
    },
    {
      "inputs": [],
      "name": "amount",
      "outputs": [
        {
          "internalType": "uint256",
          "name": "",
          "type": "uint256"
        }
      ],
      "stateMutability": "view",
      "type": "function"
    },
    {
      "inputs": [
        {
          "internalType": "address payable[]",
          "name": "recipients_",
          "type": "address[]"
        },
        {
          "internalType": "string",
          "name": "message",
          "type": "string"
        }
      ],
      "name": "dropETH",
      "outputs": [],
      "stateMutability": "payable",
      "type": "function"
    },
    {
      "inputs": [
        {
          "internalType": "uint256",
          "name": "",
          "type": "uint256"
        }
      ],
      "name": "recipients",
      "outputs": [
        {
          "internalType": "address payable",
          "name": "",
          "type": "address"
        }
      ],
      "stateMutability": "view",
      "type": "function"
    },
    {
      "stateMutability": "payable",
      "type": "receive"
    }
  ],
  "bytecode": "0x608060405234801561001057600080fd5b50610404806100206000396000f3fe6080604052600436106100385760003560e01c8063982ded1514610044578063aa8c217c14610059578063d1bc76a11461008257600080fd5b3661003f57005b600080fd5b610057610052366004610276565b6100c7565b005b34801561006557600080fd5b5061006f60005481565b6040519081526020015b60405180910390f35b34801561008e57600080fd5b506100a261009d36600461033b565b6101a2565b60405173ffffffffffffffffffffffffffffffffffffffff9091168152602001610079565b6100d3600185856101d9565b506001546100e19034610354565b60009081555b60015481101561015b57600181815481106101045761010461038f565b6000918252602082200154815460405173ffffffffffffffffffffffffffffffffffffffff9092169281156108fc029290818181858888f19350505050158015610152573d6000803e3d6000fd5b506001016100e7565b50818160405161016c9291906103be565b604051908190038120907f0cd8042e4c8e29e65ef248c09eb7b225a714240c189b1eeef7e082942f06c34490600090a250505050565b600181815481106101b257600080fd5b60009182526020909120015473ffffffffffffffffffffffffffffffffffffffff16905081565b828054828255906000526020600020908101928215610251579160200282015b828111156102515781547fffffffffffffffffffffffff00000000000000000000000000000000000000001673ffffffffffffffffffffffffffffffffffffffff8435161782556020909201916001909101906101f9565b5061025d929150610261565b5090565b5b8082111561025d5760008155600101610262565b6000806000806040858703121561028c57600080fd5b843567ffffffffffffffff808211156102a457600080fd5b818701915087601f8301126102b857600080fd5b8135818111156102c757600080fd5b8860208260051b85010111156102dc57600080fd5b6020928301965094509086013590808211156102f757600080fd5b818701915087601f83011261030b57600080fd5b81358181111561031a57600080fd5b88602082850101111561032c57600080fd5b95989497505060200194505050565b60006020828403121561034d57600080fd5b5035919050565b60008261038a577f4e487b7100000000000000000000000000000000000000000000000000000000600052601260045260246000fd5b500490565b7f4e487b7100000000000000000000000000000000000000000000000000000000600052603260045260246000fd5b818382376000910190815291905056fea26469706673582212207561cd0e7757d93dad9ac83aa721855d5b2477ef76813d3f4e6a71857bcedc6764736f6c634300080b0033",
  "linkReferences": {},
  "deployedLinkReferences": {}
}