{
  "_format": "hh-sol-artifact-1",
  "contractName": "FixedERC20factory",
  "sourceName": "contracts/tokens/erc20/fixed/FixedERC20factory.sol",
  "abi": [
    {
      "anonymous": false,
      "inputs": [
        {
          "indexed": true,
          "internalType": "string",
          "name": "name",
          "type": "string"
        },
        {
          "indexed": true,
          "internalType": "contract ERC20",
          "name": "fixedERC20",
          "type": "address"
        }
      ],
      "name": "TokenDeployed",
      "type": "event"
    },
    {
      "inputs": [
        {
          "internalType": "string",
          "name": "name_",
          "type": "string"
        },
        {
          "internalType": "string",
          "name": "symbol_",
          "type": "string"
        },
        {
          "internalType": "uint8",
          "name": "decimals_",
          "type": "uint8"
        },
        {
          "internalType": "address",
          "name": "owner_",
          "type": "address"
        },
        {
          "internalType": "uint256",
          "name": "supply_",
          "type": "uint256"
        }
      ],
      "name": "deployFixedERC20",
      "outputs": [
        {
          "internalType": "contract FixedERC20",
          "name": "fixedERC20",
          "type": "address"
        }
      ],
      "stateMutability": "nonpayable",
      "type": "function"
    }
  ],
  "bytecode": "0x608060405234801561001057600080fd5b5061151c806100206000396000f3fe608060405234801561001057600080fd5b506004361061002b5760003560e01c80634005375314610030575b600080fd5b61004361003e3660046101f1565b61006c565b60405173ffffffffffffffffffffffffffffffffffffffff909116815260200160405180910390f35b6000858585858560405161007f9061010a565b61008d95949392919061031b565b604051809103906000f0801580156100a9573d6000803e3d6000fd5b5090508073ffffffffffffffffffffffffffffffffffffffff16866040516100d19190610377565b604051908190038120907fbf90b5a1ec9763e8bf4b9245cef0c28db92bab309fc2c5177f17814f3824693890600090a395945050505050565b6111538061039483390190565b7f4e487b7100000000000000000000000000000000000000000000000000000000600052604160045260246000fd5b600082601f83011261015757600080fd5b813567ffffffffffffffff8082111561017257610172610117565b604051601f83017fffffffffffffffffffffffffffffffffffffffffffffffffffffffffffffffe0908116603f011681019082821181831017156101b8576101b8610117565b816040528381528660208588010111156101d157600080fd5b836020870160208301376000602085830101528094505050505092915050565b600080600080600060a0868803121561020957600080fd5b853567ffffffffffffffff8082111561022157600080fd5b61022d89838a01610146565b9650602088013591508082111561024357600080fd5b5061025088828901610146565b945050604086013560ff8116811461026757600080fd5b9250606086013573ffffffffffffffffffffffffffffffffffffffff8116811461029057600080fd5b949793965091946080013592915050565b60005b838110156102bc5781810151838201526020016102a4565b838111156102cb576000848401525b50505050565b600081518084526102e98160208601602086016102a1565b601f017fffffffffffffffffffffffffffffffffffffffffffffffffffffffffffffffe0169290920160200192915050565b60a08152600061032e60a08301886102d1565b828103602084015261034081886102d1565b60ff969096166040840152505073ffffffffffffffffffffffffffffffffffffffff92909216606083015260809091015292915050565b600082516103898184602087016102a1565b919091019291505056fe60e06040523480156200001157600080fd5b506040516200115338038062001153833981016040819052620000349162000316565b84848482600090805190602001906200004f929190620001a3565b50815162000065906001906020850190620001a3565b5060ff81166080524660a0526200007b6200009a565b60c052506200008f91508390508262000136565b5050505050620004ce565b60007f8b73c3c69bb8fe3d512ecc4cf759cc79239f7b179b0ffacaa9a75d522b39400f6000604051620000ce919062000403565b6040805191829003822060208301939093528101919091527fc89efdaa54c0f20c7adf612882df0950f5a951637e0307cdcb4c672f298b8bc660608201524660808201523060a082015260c00160405160208183030381529060405280519060200120905090565b80600260008282546200014a9190620004a7565b90915550506001600160a01b0382166000818152600360209081526040808320805486019055518481527fddf252ad1be2c89b69c2b068fc378daa952ba7f163c4a11628f55a4df523b3ef910160405180910390a35050565b828054620001b190620003c6565b90600052602060002090601f016020900481019282620001d5576000855562000220565b82601f10620001f057805160ff191683800117855562000220565b8280016001018555821562000220579182015b828111156200022057825182559160200191906001019062000203565b506200022e92915062000232565b5090565b5b808211156200022e576000815560010162000233565b634e487b7160e01b600052604160045260246000fd5b600082601f8301126200027157600080fd5b81516001600160401b03808211156200028e576200028e62000249565b604051601f8301601f19908116603f01168101908282118183101715620002b957620002b962000249565b81604052838152602092508683858801011115620002d657600080fd5b600091505b83821015620002fa5785820183015181830184015290820190620002db565b838211156200030c5760008385830101525b9695505050505050565b600080600080600060a086880312156200032f57600080fd5b85516001600160401b03808211156200034757600080fd5b6200035589838a016200025f565b965060208801519150808211156200036c57600080fd5b506200037b888289016200025f565b945050604086015160ff811681146200039357600080fd5b60608701519093506001600160a01b0381168114620003b157600080fd5b80925050608086015190509295509295909350565b600181811c90821680620003db57607f821691505b60208210811415620003fd57634e487b7160e01b600052602260045260246000fd5b50919050565b600080835481600182811c9150808316806200042057607f831692505b60208084108214156200044157634e487b7160e01b86526022600452602486fd5b8180156200045857600181146200046a5762000499565b60ff1986168952848901965062000499565b60008a81526020902060005b86811015620004915781548b82015290850190830162000476565b505084890196505b509498975050505050505050565b60008219821115620004c957634e487b7160e01b600052601160045260246000fd5b500190565b60805160a05160c051610c55620004fe60003960006104d6015260006104a10152600061017b0152610c556000f3fe608060405234801561001057600080fd5b50600436106100df5760003560e01c80633644e5151161008c57806395d89b411161006657806395d89b41146101f7578063a9059cbb146101ff578063d505accf14610212578063dd62ed3e1461022757600080fd5b80633644e515146101af57806370a08231146101b75780637ecebe00146101d757600080fd5b806323b872dd116100bd57806323b872dd1461013c57806330adf81f1461014f578063313ce5671461017657600080fd5b806306fdde03146100e4578063095ea7b31461010257806318160ddd14610125575b600080fd5b6100ec610252565b6040516100f991906108f0565b60405180910390f35b61011561011036600461098c565b6102e0565b60405190151581526020016100f9565b61012e60025481565b6040519081526020016100f9565b61011561014a3660046109b6565b610359565b61012e7f6e71edae12b1b97f4d1f60370fef10105fa2faae0126114a169c64845d6126c981565b61019d7f000000000000000000000000000000000000000000000000000000000000000081565b60405160ff90911681526020016100f9565b61012e61049d565b61012e6101c53660046109f2565b60036020526000908152604090205481565b61012e6101e53660046109f2565b60056020526000908152604090205481565b6100ec6104f8565b61011561020d36600461098c565b610505565b610225610220366004610a14565b61058a565b005b61012e610235366004610a87565b600460209081526000928352604080842090915290825290205481565b6000805461025f90610aba565b80601f016020809104026020016040519081016040528092919081815260200182805461028b90610aba565b80156102d85780601f106102ad576101008083540402835291602001916102d8565b820191906000526020600020905b8154815290600101906020018083116102bb57829003601f168201915b505050505081565b33600081815260046020908152604080832073ffffffffffffffffffffffffffffffffffffffff8716808552925280832085905551919290917f8c5be1e5ebec7d5bd14f71427d1e84f3dd0314c0f7b2291e5b200ac8c7c3b925906103489086815260200190565b60405180910390a350600192915050565b73ffffffffffffffffffffffffffffffffffffffff831660009081526004602090815260408083203384529091528120547fffffffffffffffffffffffffffffffffffffffffffffffffffffffffffffffff81146103ed576103bb8382610b0e565b73ffffffffffffffffffffffffffffffffffffffff861660009081526004602090815260408083203384529091529020555b73ffffffffffffffffffffffffffffffffffffffff851660009081526003602052604081208054859290610422908490610b0e565b909155505073ffffffffffffffffffffffffffffffffffffffff808516600081815260036020526040908190208054870190555190918716907fddf252ad1be2c89b69c2b068fc378daa952ba7f163c4a11628f55a4df523b3ef9061048a9087815260200190565b60405180910390a3506001949350505050565b60007f000000000000000000000000000000000000000000000000000000000000000046146104d3576104ce610856565b905090565b507f000000000000000000000000000000000000000000000000000000000000000090565b6001805461025f90610aba565b33600090815260036020526040812080548391908390610526908490610b0e565b909155505073ffffffffffffffffffffffffffffffffffffffff8316600081815260036020526040908190208054850190555133907fddf252ad1be2c89b69c2b068fc378daa952ba7f163c4a11628f55a4df523b3ef906103489086815260200190565b834211156105c4576040517f0819bdcd00000000000000000000000000000000000000000000000000000000815260040160405180910390fd5b60006105ce61049d565b73ffffffffffffffffffffffffffffffffffffffff89811660008181526005602090815260409182902080546001810190915582517f6e71edae12b1b97f4d1f60370fef10105fa2faae0126114a169c64845d6126c98184015280840194909452938c166060840152608083018b905260a083019390935260c08083018a90528151808403909101815260e0830190915280519201919091207f190100000000000000000000000000000000000000000000000000000000000061010083015261010282019290925261012281019190915261014201604080517fffffffffffffffffffffffffffffffffffffffffffffffffffffffffffffffe08184030181528282528051602091820120600080855291840180845281905260ff88169284019290925260608301869052608083018590529092509060019060a0016020604051602081039080840390855afa15801561072d573d6000803e3d6000fd5b50506040517fffffffffffffffffffffffffffffffffffffffffffffffffffffffffffffffe0015191505073ffffffffffffffffffffffffffffffffffffffff811615806107a757508873ffffffffffffffffffffffffffffffffffffffff168173ffffffffffffffffffffffffffffffffffffffff1614155b156107de576040517f8baa579f00000000000000000000000000000000000000000000000000000000815260040160405180910390fd5b73ffffffffffffffffffffffffffffffffffffffff90811660009081526004602090815260408083208b8516808552908352928190208a905551898152919350918a16917f8c5be1e5ebec7d5bd14f71427d1e84f3dd0314c0f7b2291e5b200ac8c7c3b925910160405180910390a350505050505050565b60007f8b73c3c69bb8fe3d512ecc4cf759cc79239f7b179b0ffacaa9a75d522b39400f60006040516108889190610b4c565b6040805191829003822060208301939093528101919091527fc89efdaa54c0f20c7adf612882df0950f5a951637e0307cdcb4c672f298b8bc660608201524660808201523060a082015260c00160405160208183030381529060405280519060200120905090565b600060208083528351808285015260005b8181101561091d57858101830151858201604001528201610901565b8181111561092f576000604083870101525b50601f017fffffffffffffffffffffffffffffffffffffffffffffffffffffffffffffffe016929092016040019392505050565b803573ffffffffffffffffffffffffffffffffffffffff8116811461098757600080fd5b919050565b6000806040838503121561099f57600080fd5b6109a883610963565b946020939093013593505050565b6000806000606084860312156109cb57600080fd5b6109d484610963565b92506109e260208501610963565b9150604084013590509250925092565b600060208284031215610a0457600080fd5b610a0d82610963565b9392505050565b600080600080600080600060e0888a031215610a2f57600080fd5b610a3888610963565b9650610a4660208901610963565b95506040880135945060608801359350608088013560ff81168114610a6a57600080fd5b9699959850939692959460a0840135945060c09093013592915050565b60008060408385031215610a9a57600080fd5b610aa383610963565b9150610ab160208401610963565b90509250929050565b600181811c90821680610ace57607f821691505b60208210811415610b08577f4e487b7100000000000000000000000000000000000000000000000000000000600052602260045260246000fd5b50919050565b600082821015610b47577f4e487b7100000000000000000000000000000000000000000000000000000000600052601160045260246000fd5b500390565b600080835481600182811c915080831680610b6857607f831692505b6020808410821415610ba1577f4e487b710000000000000000000000000000000000000000000000000000000086526022600452602486fd5b818015610bb55760018114610be457610c11565b7fffffffffffffffffffffffffffffffffffffffffffffffffffffffffffffff00861689528489019650610c11565b60008a81526020902060005b86811015610c095781548b820152908501908301610bf0565b505084890196505b50949897505050505050505056fea2646970667358221220825a13a7cd9f8a8cdb7535489b88e58a97c6fc951a681f6368ef79260c1d14ea64736f6c634300080b0033a26469706673582212209745bc556b58a1f7833cfe05e4e99254efcf4e8f00360a8bfa670e5f5440a12a64736f6c634300080b0033",
  "linkReferences": {},
  "deployedLinkReferences": {}
}