{
  "_format": "hh-sol-artifact-1",
  "contractName": "KaliDAOfactory",
  "sourceName": "contracts/KaliDAOfactory.sol",
  "abi": [
    {
      "inputs": [
        {
          "internalType": "address payable",
          "name": "kaliMaster_",
          "type": "address"
        },
        {
          "internalType": "contract IRicardianLLC",
          "name": "ricardianLLC_",
          "type": "address"
        }
      ],
      "stateMutability": "nonpayable",
      "type": "constructor"
    },
    {
      "inputs": [],
      "name": "NullDeploy",
      "type": "error"
    },
    {
      "anonymous": false,
      "inputs": [
        {
          "indexed": true,
          "internalType": "contract KaliDAO",
          "name": "kaliDAO",
          "type": "address"
        },
        {
          "indexed": false,
          "internalType": "string",
          "name": "name",
          "type": "string"
        },
        {
          "indexed": false,
          "internalType": "string",
          "name": "symbol",
          "type": "string"
        },
        {
          "indexed": false,
          "internalType": "string",
          "name": "docs",
          "type": "string"
        },
        {
          "indexed": false,
          "internalType": "bool",
          "name": "paused",
          "type": "bool"
        },
        {
          "indexed": false,
          "internalType": "address[]",
          "name": "extensions",
          "type": "address[]"
        },
        {
          "indexed": false,
          "internalType": "bytes[]",
          "name": "extensionsData",
          "type": "bytes[]"
        },
        {
          "indexed": false,
          "internalType": "address[]",
          "name": "voters",
          "type": "address[]"
        },
        {
          "indexed": false,
          "internalType": "uint256[]",
          "name": "shares",
          "type": "uint256[]"
        },
        {
          "indexed": false,
          "internalType": "uint32",
          "name": "votingPeriod",
          "type": "uint32"
        },
        {
          "indexed": false,
          "internalType": "uint8[13]",
          "name": "govSettings",
          "type": "uint8[13]"
        }
      ],
      "name": "DAOdeployed",
      "type": "event"
    },
    {
      "inputs": [
        {
          "internalType": "string",
          "name": "name_",
          "type": "string"
        },
        {
          "internalType": "string",
          "name": "symbol_",
          "type": "string"
        },
        {
          "internalType": "string",
          "name": "docs_",
          "type": "string"
        },
        {
          "internalType": "bool",
          "name": "paused_",
          "type": "bool"
        },
        {
          "internalType": "address[]",
          "name": "extensions_",
          "type": "address[]"
        },
        {
          "internalType": "bytes[]",
          "name": "extensionsData_",
          "type": "bytes[]"
        },
        {
          "internalType": "address[]",
          "name": "voters_",
          "type": "address[]"
        },
        {
          "internalType": "uint256[]",
          "name": "shares_",
          "type": "uint256[]"
        },
        {
          "internalType": "uint32",
          "name": "votingPeriod_",
          "type": "uint32"
        },
        {
          "internalType": "uint8[13]",
          "name": "govSettings_",
          "type": "uint8[13]"
        }
      ],
      "name": "deployKaliDAO",
      "outputs": [
        {
          "internalType": "contract KaliDAO",
          "name": "kaliDAO",
          "type": "address"
        }
      ],
      "stateMutability": "payable",
      "type": "function"
    },
    {
      "inputs": [],
      "name": "kaliMaster",
      "outputs": [
        {
          "internalType": "address payable",
          "name": "",
          "type": "address"
        }
      ],
      "stateMutability": "view",
      "type": "function"
    },
    {
      "inputs": [
        {
          "internalType": "bytes[]",
          "name": "data",
          "type": "bytes[]"
        }
      ],
      "name": "multicall",
      "outputs": [
        {
          "internalType": "bytes[]",
          "name": "results",
          "type": "bytes[]"
        }
      ],
      "stateMutability": "nonpayable",
      "type": "function"
    },
    {
      "inputs": [],
      "name": "ricardianLLC",
      "outputs": [
        {
          "internalType": "contract IRicardianLLC",
          "name": "",
          "type": "address"
        }
      ],
      "stateMutability": "view",
      "type": "function"
    }
  ],
  "bytecode": "0x60c060405234801561001057600080fd5b50604051610f93380380610f9383398101604081905261002f9161005e565b6001600160a01b039182166080521660a052610098565b6001600160a01b038116811461005b57600080fd5b50565b6000806040838503121561007157600080fd5b825161007c81610046565b602084015190925061008d81610046565b809150509250929050565b60805160a051610eca6100c9600039600081816056015261038701526000818160e1015261028d0152610eca6000f3fe60806040526004361061003f5760003560e01c806301acf62a14610044578063ac9650d8146100a2578063d0fca8b6146100cf578063fbc631ee14610103575b600080fd5b34801561005057600080fd5b506100787f000000000000000000000000000000000000000000000000000000000000000081565b60405173ffffffffffffffffffffffffffffffffffffffff90911681526020015b60405180910390f35b3480156100ae57600080fd5b506100c26100bd3660046105cc565b610116565b60405161009991906106dd565b3480156100db57600080fd5b506100787f000000000000000000000000000000000000000000000000000000000000000081565b610078610111366004610a0a565b610286565b60608167ffffffffffffffff811115610131576101316106f7565b60405190808252806020026020018201604052801561016457816020015b606081526020019060019003908161014f5790505b50905060005b8281101561027f576000803086868581811061018857610188610b97565b905060200281019061019a9190610bc6565b6040516101a8929190610c2b565b600060405180830381855af49150503d80600081146101e3576040519150601f19603f3d011682016040523d82523d6000602084013e6101e8565b606091505b5091509150816102575760448151101561020157600080fd5b6004810190508080602001905181019061021b9190610c3b565b6040517f08c379a000000000000000000000000000000000000000000000000000000000815260040161024e9190610cb2565b60405180910390fd5b8084848151811061026a5761026a610b97565b6020908102919091010152505060010161016a565b5092915050565b60006102b27f00000000000000000000000000000000000000000000000000000000000000008e610459565b90508073ffffffffffffffffffffffffffffffffffffffff166372737773348f8f8f8f8f8f8f8f8f8f8f8f6040518e63ffffffff1660e01b81526004016103049c9b9a99989796959493929190610d8e565b6000604051808303818588803b15801561031d57600080fd5b505af1158015610331573d6000803e3d6000fd5b50508d518e9350151591506103e49050576040517f6f0a5e7100000000000000000000000000000000000000000000000000000000815273ffffffffffffffffffffffffffffffffffffffff83811660048301527f00000000000000000000000000000000000000000000000000000000000000001690636f0a5e7190602401600060405180830381600087803b1580156103cb57600080fd5b505af11580156103df573d6000803e3d6000fd5b505050505b8173ffffffffffffffffffffffffffffffffffffffff167fc26ddd8ee061313287c5d478e0f3c0a5a178069afaa68f3baf4a3aa1554ef8438f8f8f8f8f8f8f8f8f8f8f8f6040516104409c9b9a99989796959493929190610d8e565b60405180910390a2509c9b505050505050505050505050565b6040517f3d602d80600a3d3981f30000000000000000000000000000000000000000000060208201527f363d3d373d3d3d363d7300000000000000000000000000000000000000000000602a8201527fffffffffffffffffffffffffffffffffffffffff000000000000000000000000606084901b1660348201527f5af43d82803e903d91602b57fd5bf30000000000000000000000000000000000604882015260009081906057016040516020818303038152906040529050600083805190602001209050808251602084016000f5925073ffffffffffffffffffffffffffffffffffffffff8316610578576040517f8b1f004000000000000000000000000000000000000000000000000000000000815260040160405180910390fd5b505092915050565b60008083601f84011261059257600080fd5b50813567ffffffffffffffff8111156105aa57600080fd5b6020830191508360208260051b85010111156105c557600080fd5b9250929050565b600080602083850312156105df57600080fd5b823567ffffffffffffffff8111156105f657600080fd5b61060285828601610580565b90969095509350505050565b60005b83811015610629578181015183820152602001610611565b83811115610638576000848401525b50505050565b6000815180845261065681602086016020860161060e565b601f017fffffffffffffffffffffffffffffffffffffffffffffffffffffffffffffffe0169290920160200192915050565b600081518084526020808501808196508360051b8101915082860160005b858110156106d05782840389526106be84835161063e565b988501989350908401906001016106a6565b5091979650505050505050565b6020815260006106f06020830184610688565b9392505050565b7f4e487b7100000000000000000000000000000000000000000000000000000000600052604160045260246000fd5b604051601f82017fffffffffffffffffffffffffffffffffffffffffffffffffffffffffffffffe016810167ffffffffffffffff8111828210171561076d5761076d6106f7565b604052919050565b600067ffffffffffffffff82111561078f5761078f6106f7565b50601f017fffffffffffffffffffffffffffffffffffffffffffffffffffffffffffffffe01660200190565b60006107ce6107c984610775565b610726565b90508281528383830111156107e257600080fd5b828260208301376000602084830101529392505050565b600082601f83011261080a57600080fd5b6106f0838335602085016107bb565b8035801515811461082957600080fd5b919050565b600067ffffffffffffffff821115610848576108486106f7565b5060051b60200190565b803573ffffffffffffffffffffffffffffffffffffffff8116811461082957600080fd5b600082601f83011261088757600080fd5b813560206108976107c98361082e565b82815260059290921b840181019181810190868411156108b657600080fd5b8286015b848110156108d8576108cb81610852565b83529183019183016108ba565b509695505050505050565b600082601f8301126108f457600080fd5b813560206109046107c98361082e565b82815260059290921b8401810191818101908684111561092357600080fd5b8286015b848110156108d857803567ffffffffffffffff8111156109475760008081fd5b8701603f810189136109595760008081fd5b61096a8986830135604084016107bb565b845250918301918301610927565b803563ffffffff8116811461082957600080fd5b600082601f83011261099d57600080fd5b6040516101a080820182811067ffffffffffffffff821117156109c2576109c26106f7565b604052830181858211156109d557600080fd5b845b828110156109ff57803560ff811681146109f15760008081fd5b8252602091820191016109d7565b509195945050505050565b6000806000806000806000806000806000806102c08d8f031215610a2d57600080fd5b67ffffffffffffffff8d351115610a4357600080fd5b610a508e8e358f016107f9565b9b5067ffffffffffffffff60208e01351115610a6b57600080fd5b610a7b8e60208f01358f016107f9565b9a5067ffffffffffffffff60408e01351115610a9657600080fd5b610aa68e60408f01358f016107f9565b9950610ab460608e01610819565b985067ffffffffffffffff60808e01351115610acf57600080fd5b610adf8e60808f01358f01610876565b975067ffffffffffffffff60a08e01351115610afa57600080fd5b610b0a8e60a08f01358f016108e3565b965067ffffffffffffffff60c08e01351115610b2557600080fd5b610b358e60c08f01358f01610580565b909650945067ffffffffffffffff60e08e01351115610b5357600080fd5b610b638e60e08f01358f01610580565b9094509250610b756101008e01610978565b9150610b858e6101208f0161098c565b90509295989b509295989b509295989b565b7f4e487b7100000000000000000000000000000000000000000000000000000000600052603260045260246000fd5b60008083357fffffffffffffffffffffffffffffffffffffffffffffffffffffffffffffffe1843603018112610bfb57600080fd5b83018035915067ffffffffffffffff821115610c1657600080fd5b6020019150368190038213156105c557600080fd5b8183823760009101908152919050565b600060208284031215610c4d57600080fd5b815167ffffffffffffffff811115610c6457600080fd5b8201601f81018413610c7557600080fd5b8051610c836107c982610775565b818152856020838501011115610c9857600080fd5b610ca982602083016020860161060e565b95945050505050565b6020815260006106f0602083018461063e565b8183526000602080850194508260005b85811015610d0e5773ffffffffffffffffffffffffffffffffffffffff610cfb83610852565b1687529582019590820190600101610cd5565b509495945050505050565b81835260007f07ffffffffffffffffffffffffffffffffffffffffffffffffffffffffffffff831115610d4b57600080fd5b8260051b8083602087013760009401602001938452509192915050565b8060005b600d81101561063857815160ff16845260209384019390910190600101610d6c565b6102c081526000610da36102c083018f61063e565b8281036020840152610db5818f61063e565b90508281036040840152610dc9818e61063e565b8c1515606085015283810360808501528b518082526020808e0193509091019060005b81811015610e2057835173ffffffffffffffffffffffffffffffffffffffff16835260209384019390920191600101610dec565b505083810360a0850152610e34818c610688565b91505082810360c0840152610e4a81898b610cc5565b905082810360e0840152610e5f818789610d19565b915050610e7561010083018563ffffffff169052565b610e83610120830184610d68565b9d9c5050505050505050505050505056fea26469706673582212205075e1e221fcbcfa125ab2eb635810e845d73f1a1e04c1908fee7c21f4f617fd64736f6c634300080b0033",
  "linkReferences": {},
  "deployedLinkReferences": {}
}