{
  "_format": "hh-sol-artifact-1",
  "contractName": "KaliCoRicardianLLC",
  "sourceName": "contracts/RicardianLLC.sol",
  "abi": [
    {
      "inputs": [
        {
          "internalType": "string",
          "name": "name_",
          "type": "string"
        },
        {
          "internalType": "string",
          "name": "symbol_",
          "type": "string"
        },
        {
          "internalType": "string",
          "name": "commonURI_",
          "type": "string"
        },
        {
          "internalType": "string",
          "name": "masterOperatingAgreement_",
          "type": "string"
        },
        {
          "internalType": "uint256",
          "name": "mintFee_",
          "type": "uint256"
        }
      ],
      "stateMutability": "nonpayable",
      "type": "constructor"
    },
    {
      "inputs": [],
      "name": "AlreadyMinted",
      "type": "error"
    },
    {
      "inputs": [],
      "name": "ETHtransferFailed",
      "type": "error"
    },
    {
      "inputs": [],
      "name": "InvalidRecipient",
      "type": "error"
    },
    {
      "inputs": [],
      "name": "InvalidSignature",
      "type": "error"
    },
    {
      "inputs": [],
      "name": "NotApproved",
      "type": "error"
    },
    {
      "inputs": [],
      "name": "NotFee",
      "type": "error"
    },
    {
      "inputs": [],
      "name": "NotGovernance",
      "type": "error"
    },
    {
      "inputs": [],
      "name": "NotMinted",
      "type": "error"
    },
    {
      "inputs": [],
      "name": "NotOwner",
      "type": "error"
    },
    {
      "inputs": [],
      "name": "SignatureExpired",
      "type": "error"
    },
    {
      "anonymous": false,
      "inputs": [
        {
          "indexed": true,
          "internalType": "address",
          "name": "owner",
          "type": "address"
        },
        {
          "indexed": true,
          "internalType": "address",
          "name": "spender",
          "type": "address"
        },
        {
          "indexed": true,
          "internalType": "uint256",
          "name": "tokenId",
          "type": "uint256"
        }
      ],
      "name": "Approval",
      "type": "event"
    },
    {
      "anonymous": false,
      "inputs": [
        {
          "indexed": true,
          "internalType": "address",
          "name": "owner",
          "type": "address"
        },
        {
          "indexed": true,
          "internalType": "address",
          "name": "operator",
          "type": "address"
        },
        {
          "indexed": false,
          "internalType": "bool",
          "name": "approved",
          "type": "bool"
        }
      ],
      "name": "ApprovalForAll",
      "type": "event"
    },
    {
      "anonymous": false,
      "inputs": [
        {
          "indexed": true,
          "internalType": "address",
          "name": "from",
          "type": "address"
        },
        {
          "indexed": true,
          "internalType": "address",
          "name": "to",
          "type": "address"
        },
        {
          "indexed": true,
          "internalType": "uint256",
          "name": "tokenId",
          "type": "uint256"
        }
      ],
      "name": "Transfer",
      "type": "event"
    },
    {
      "inputs": [],
      "name": "DOMAIN_SEPARATOR",
      "outputs": [
        {
          "internalType": "bytes32",
          "name": "",
          "type": "bytes32"
        }
      ],
      "stateMutability": "view",
      "type": "function"
    },
    {
      "inputs": [],
      "name": "PERMIT_ALL_TYPEHASH",
      "outputs": [
        {
          "internalType": "bytes32",
          "name": "",
          "type": "bytes32"
        }
      ],
      "stateMutability": "view",
      "type": "function"
    },
    {
      "inputs": [],
      "name": "PERMIT_TYPEHASH",
      "outputs": [
        {
          "internalType": "bytes32",
          "name": "",
          "type": "bytes32"
        }
      ],
      "stateMutability": "view",
      "type": "function"
    },
    {
      "inputs": [
        {
          "internalType": "address",
          "name": "spender",
          "type": "address"
        },
        {
          "internalType": "uint256",
          "name": "tokenId",
          "type": "uint256"
        }
      ],
      "name": "approve",
      "outputs": [],
      "stateMutability": "nonpayable",
      "type": "function"
    },
    {
      "inputs": [
        {
          "internalType": "address",
          "name": "",
          "type": "address"
        }
      ],
      "name": "balanceOf",
      "outputs": [
        {
          "internalType": "uint256",
          "name": "",
          "type": "uint256"
        }
      ],
      "stateMutability": "view",
      "type": "function"
    },
    {
      "inputs": [
        {
          "internalType": "uint256",
          "name": "tokenId",
          "type": "uint256"
        }
      ],
      "name": "burn",
      "outputs": [],
      "stateMutability": "nonpayable",
      "type": "function"
    },
    {
      "inputs": [],
      "name": "collectFee",
      "outputs": [],
      "stateMutability": "nonpayable",
      "type": "function"
    },
    {
      "inputs": [],
      "name": "commonURI",
      "outputs": [
        {
          "internalType": "string",
          "name": "",
          "type": "string"
        }
      ],
      "stateMutability": "view",
      "type": "function"
    },
    {
      "inputs": [
        {
          "internalType": "uint256",
          "name": "",
          "type": "uint256"
        }
      ],
      "name": "getApproved",
      "outputs": [
        {
          "internalType": "address",
          "name": "",
          "type": "address"
        }
      ],
      "stateMutability": "view",
      "type": "function"
    },
    {
      "inputs": [
        {
          "internalType": "uint256",
          "name": "tokenId",
          "type": "uint256"
        }
      ],
      "name": "govBurn",
      "outputs": [],
      "stateMutability": "nonpayable",
      "type": "function"
    },
    {
      "inputs": [
        {
          "internalType": "address",
          "name": "to",
          "type": "address"
        }
      ],
      "name": "govMint",
      "outputs": [],
      "stateMutability": "nonpayable",
      "type": "function"
    },
    {
      "inputs": [],
      "name": "governance",
      "outputs": [
        {
          "internalType": "address",
          "name": "",
          "type": "address"
        }
      ],
      "stateMutability": "view",
      "type": "function"
    },
    {
      "inputs": [
        {
          "internalType": "address",
          "name": "",
          "type": "address"
        },
        {
          "internalType": "address",
          "name": "",
          "type": "address"
        }
      ],
      "name": "isApprovedForAll",
      "outputs": [
        {
          "internalType": "bool",
          "name": "",
          "type": "bool"
        }
      ],
      "stateMutability": "view",
      "type": "function"
    },
    {
      "inputs": [],
      "name": "masterOperatingAgreement",
      "outputs": [
        {
          "internalType": "string",
          "name": "",
          "type": "string"
        }
      ],
      "stateMutability": "view",
      "type": "function"
    },
    {
      "inputs": [],
      "name": "mintFee",
      "outputs": [
        {
          "internalType": "uint256",
          "name": "",
          "type": "uint256"
        }
      ],
      "stateMutability": "view",
      "type": "function"
    },
    {
      "inputs": [
        {
          "internalType": "address",
          "name": "to",
          "type": "address"
        }
      ],
      "name": "mintLLC",
      "outputs": [],
      "stateMutability": "payable",
      "type": "function"
    },
    {
      "inputs": [
        {
          "internalType": "bytes[]",
          "name": "data",
          "type": "bytes[]"
        }
      ],
      "name": "multicall",
      "outputs": [
        {
          "internalType": "bytes[]",
          "name": "results",
          "type": "bytes[]"
        }
      ],
      "stateMutability": "nonpayable",
      "type": "function"
    },
    {
      "inputs": [],
      "name": "name",
      "outputs": [
        {
          "internalType": "string",
          "name": "",
          "type": "string"
        }
      ],
      "stateMutability": "view",
      "type": "function"
    },
    {
      "inputs": [
        {
          "internalType": "uint256",
          "name": "",
          "type": "uint256"
        }
      ],
      "name": "nonces",
      "outputs": [
        {
          "internalType": "uint256",
          "name": "",
          "type": "uint256"
        }
      ],
      "stateMutability": "view",
      "type": "function"
    },
    {
      "inputs": [
        {
          "internalType": "address",
          "name": "",
          "type": "address"
        }
      ],
      "name": "noncesForAll",
      "outputs": [
        {
          "internalType": "uint256",
          "name": "",
          "type": "uint256"
        }
      ],
      "stateMutability": "view",
      "type": "function"
    },
    {
      "inputs": [
        {
          "internalType": "uint256",
          "name": "",
          "type": "uint256"
        }
      ],
      "name": "ownerOf",
      "outputs": [
        {
          "internalType": "address",
          "name": "",
          "type": "address"
        }
      ],
      "stateMutability": "view",
      "type": "function"
    },
    {
      "inputs": [
        {
          "internalType": "address",
          "name": "spender",
          "type": "address"
        },
        {
          "internalType": "uint256",
          "name": "tokenId",
          "type": "uint256"
        },
        {
          "internalType": "uint256",
          "name": "deadline",
          "type": "uint256"
        },
        {
          "internalType": "uint8",
          "name": "v",
          "type": "uint8"
        },
        {
          "internalType": "bytes32",
          "name": "r",
          "type": "bytes32"
        },
        {
          "internalType": "bytes32",
          "name": "s",
          "type": "bytes32"
        }
      ],
      "name": "permit",
      "outputs": [],
      "stateMutability": "nonpayable",
      "type": "function"
    },
    {
      "inputs": [
        {
          "internalType": "address",
          "name": "owner",
          "type": "address"
        },
        {
          "internalType": "address",
          "name": "operator",
          "type": "address"
        },
        {
          "internalType": "uint256",
          "name": "deadline",
          "type": "uint256"
        },
        {
          "internalType": "uint8",
          "name": "v",
          "type": "uint8"
        },
        {
          "internalType": "bytes32",
          "name": "r",
          "type": "bytes32"
        },
        {
          "internalType": "bytes32",
          "name": "s",
          "type": "bytes32"
        }
      ],
      "name": "permitAll",
      "outputs": [],
      "stateMutability": "nonpayable",
      "type": "function"
    },
    {
      "inputs": [
        {
          "internalType": "address",
          "name": "from",
          "type": "address"
        },
        {
          "internalType": "address",
          "name": "to",
          "type": "address"
        },
        {
          "internalType": "uint256",
          "name": "tokenId",
          "type": "uint256"
        }
      ],
      "name": "safeTransferFrom",
      "outputs": [],
      "stateMutability": "nonpayable",
      "type": "function"
    },
    {
      "inputs": [
        {
          "internalType": "address",
          "name": "from",
          "type": "address"
        },
        {
          "internalType": "address",
          "name": "to",
          "type": "address"
        },
        {
          "internalType": "uint256",
          "name": "tokenId",
          "type": "uint256"
        },
        {
          "internalType": "bytes",
          "name": "data",
          "type": "bytes"
        }
      ],
      "name": "safeTransferFrom",
      "outputs": [],
      "stateMutability": "nonpayable",
      "type": "function"
    },
    {
      "inputs": [
        {
          "internalType": "address",
          "name": "operator",
          "type": "address"
        },
        {
          "internalType": "bool",
          "name": "approved",
          "type": "bool"
        }
      ],
      "name": "setApprovalForAll",
      "outputs": [],
      "stateMutability": "nonpayable",
      "type": "function"
    },
    {
      "inputs": [
        {
          "internalType": "bytes4",
          "name": "interfaceId",
          "type": "bytes4"
        }
      ],
      "name": "supportsInterface",
      "outputs": [
        {
          "internalType": "bool",
          "name": "",
          "type": "bool"
        }
      ],
      "stateMutability": "pure",
      "type": "function"
    },
    {
      "inputs": [],
      "name": "symbol",
      "outputs": [
        {
          "internalType": "string",
          "name": "",
          "type": "string"
        }
      ],
      "stateMutability": "view",
      "type": "function"
    },
    {
      "inputs": [
        {
          "internalType": "uint256",
          "name": "",
          "type": "uint256"
        }
      ],
      "name": "tokenDetails",
      "outputs": [
        {
          "internalType": "string",
          "name": "",
          "type": "string"
        }
      ],
      "stateMutability": "view",
      "type": "function"
    },
    {
      "inputs": [
        {
          "internalType": "uint256",
          "name": "",
          "type": "uint256"
        }
      ],
      "name": "tokenURI",
      "outputs": [
        {
          "internalType": "string",
          "name": "",
          "type": "string"
        }
      ],
      "stateMutability": "view",
      "type": "function"
    },
    {
      "inputs": [],
      "name": "totalSupply",
      "outputs": [
        {
          "internalType": "uint256",
          "name": "",
          "type": "uint256"
        }
      ],
      "stateMutability": "view",
      "type": "function"
    },
    {
      "inputs": [
        {
          "internalType": "address",
          "name": "to",
          "type": "address"
        },
        {
          "internalType": "uint256",
          "name": "tokenId",
          "type": "uint256"
        }
      ],
      "name": "transfer",
      "outputs": [
        {
          "internalType": "bool",
          "name": "",
          "type": "bool"
        }
      ],
      "stateMutability": "nonpayable",
      "type": "function"
    },
    {
      "inputs": [
        {
          "internalType": "address",
          "name": "from",
          "type": "address"
        },
        {
          "internalType": "address",
          "name": "to",
          "type": "address"
        },
        {
          "internalType": "uint256",
          "name": "tokenId",
          "type": "uint256"
        }
      ],
      "name": "transferFrom",
      "outputs": [],
      "stateMutability": "nonpayable",
      "type": "function"
    },
    {
      "inputs": [
        {
          "internalType": "string",
          "name": "masterOperatingAgreement_",
          "type": "string"
        }
      ],
      "name": "updateAgreement",
      "outputs": [],
      "stateMutability": "nonpayable",
      "type": "function"
    },
    {
      "inputs": [
        {
          "internalType": "uint256",
          "name": "mintFee_",
          "type": "uint256"
        }
      ],
      "name": "updateFee",
      "outputs": [],
      "stateMutability": "nonpayable",
      "type": "function"
    },
    {
      "inputs": [
        {
          "internalType": "address",
          "name": "governance_",
          "type": "address"
        }
      ],
      "name": "updateGov",
      "outputs": [],
      "stateMutability": "nonpayable",
      "type": "function"
    },
    {
      "inputs": [
        {
          "internalType": "uint256",
          "name": "tokenId",
          "type": "uint256"
        },
        {
          "internalType": "string",
          "name": "details",
          "type": "string"
        }
      ],
      "name": "updateTokenDetails",
      "outputs": [],
      "stateMutability": "nonpayable",
      "type": "function"
    },
    {
      "inputs": [
        {
          "internalType": "string",
          "name": "commonURI_",
          "type": "string"
        }
      ],
      "name": "updateURI",
      "outputs": [],
      "stateMutability": "nonpayable",
      "type": "function"
    },
    {
      "stateMutability": "payable",
      "type": "receive"
    }
  ],
  "bytecode": "0x60c06040523480156200001157600080fd5b5060405162002ce538038062002ce58339810160408190526200003491620002e7565b8451859085906200004d90600090602085019062000174565b5080516200006390600190602084019062000174565b504660805262000072620000c3565b60a0525050600980546001600160a01b0319163317905582516200009e90600a90602086019062000174565b508151620000b490600b90602085019062000174565b50600c55506200048b92505050565b60007f8b73c3c69bb8fe3d512ecc4cf759cc79239f7b179b0ffacaa9a75d522b39400f6000604051620000f79190620003e7565b60408051918290038220828201825260018352603160f81b6020938401528151928301939093528101919091527fc89efdaa54c0f20c7adf612882df0950f5a951637e0307cdcb4c672f298b8bc660608201524660808201523060a082015260c00160405160208183030381529060405280519060200120905090565b8280546200018290620003aa565b90600052602060002090601f016020900481019282620001a65760008555620001f1565b82601f10620001c157805160ff1916838001178555620001f1565b82800160010185558215620001f1579182015b82811115620001f1578251825591602001919060010190620001d4565b50620001ff92915062000203565b5090565b5b80821115620001ff576000815560010162000204565b634e487b7160e01b600052604160045260246000fd5b600082601f8301126200024257600080fd5b81516001600160401b03808211156200025f576200025f6200021a565b604051601f8301601f19908116603f011681019082821181831017156200028a576200028a6200021a565b81604052838152602092508683858801011115620002a757600080fd5b600091505b83821015620002cb5785820183015181830184015290820190620002ac565b83821115620002dd5760008385830101525b9695505050505050565b600080600080600060a086880312156200030057600080fd5b85516001600160401b03808211156200031857600080fd5b6200032689838a0162000230565b965060208801519150808211156200033d57600080fd5b6200034b89838a0162000230565b955060408801519150808211156200036257600080fd5b6200037089838a0162000230565b945060608801519150808211156200038757600080fd5b50620003968882890162000230565b925050608086015190509295509295909350565b600181811c90821680620003bf57607f821691505b60208210811415620003e157634e487b7160e01b600052602260045260246000fd5b50919050565b600080835481600182811c9150808316806200040457607f831692505b60208084108214156200042557634e487b7160e01b86526022600452602486fd5b8180156200043c57600181146200044e576200047d565b60ff198616895284890196506200047d565b60008a81526020902060005b86811015620004755781548b8201529085019083016200045a565b505084890196505b509498975050505050505050565b60805160a051612834620004b16000396000610de301526000610dae01526128346000f3fe6080604052600436106102895760003560e01c80636f0a5e7111610153578063aba07847116100cb578063c87b56dd1161007f578063d909a23211610064578063d909a2321461076b578063e985e9c51461078b578063fc314e31146107c657600080fd5b8063c87b56dd14610736578063d4d5d32a1461075657600080fd5b8063b4e13c8d116100b0578063b4e13c8d146106c2578063b88d4fde146106f6578063c30f4a5a1461071657600080fd5b8063aba0784714610675578063ac9650d81461069557600080fd5b80639012c4a81161012257806395d89b411161010757806395d89b4114610620578063a22cb46514610635578063a9059cbb1461065557600080fd5b80639012c4a8146105d3578063904dfb8e146105f357600080fd5b80636f0a5e711461055e57806370a08231146105715780637ac2ff7b1461059e5780638d40fb4e146105be57600080fd5b806323b872dd1161020157806342842e0e116101b55780635aa6e6751161019a5780635aa6e675146104e85780636352211e146105085780636be0cfb01461053e57600080fd5b806342842e0e146104a857806342966c68146104c857600080fd5b80632a6cd9c6116101e65780632a6cd9c61461044a57806330adf81f1461045f5780633644e5151461049357600080fd5b806323b872dd1461040a57806326926d461461042a57600080fd5b80630b33ba7a11610258578063141a468c1161023d578063141a468c146103a75780631769740e146103d457806318160ddd146103f457600080fd5b80630b33ba7a1461036357806313966db51461038357600080fd5b806301ffc9a71461029e57806306fdde03146102d3578063081812fc146102f5578063095ea7b31461034357600080fd5b3661029957610297336107e6565b005b600080fd5b3480156102aa57600080fd5b506102be6102b9366004612002565b610832565b60405190151581526020015b60405180910390f35b3480156102df57600080fd5b506102e8610917565b6040516102ca919061207e565b34801561030157600080fd5b5061032b610310366004612091565b6005602052600090815260409020546001600160a01b031681565b6040516001600160a01b0390911681526020016102ca565b34801561034f57600080fd5b5061029761035e3660046120c6565b6109a5565b34801561036f57600080fd5b5061029761037e3660046120f0565b610a9c565b34801561038f57600080fd5b50610399600c5481565b6040519081526020016102ca565b3480156103b357600080fd5b506103996103c2366004612091565b60076020526000908152604090205481565b3480156103e057600080fd5b506102976103ef3660046120f0565b610b1a565b34801561040057600080fd5b5061039960025481565b34801561041657600080fd5b5061029761042536600461210b565b610b5e565b34801561043657600080fd5b50610297610445366004612091565b610d4d565b34801561045657600080fd5b506102e8610d9d565b34801561046b57600080fd5b506103997f49ecf333e5b8c95c40fdafc95c1ad136e8914a8fb55e9dc8bb01eaa83a2df9ad81565b34801561049f57600080fd5b50610399610daa565b3480156104b457600080fd5b506102976104c336600461210b565b610e05565b3480156104d457600080fd5b506102976104e3366004612091565b610f29565b3480156104f457600080fd5b5060095461032b906001600160a01b031681565b34801561051457600080fd5b5061032b610523366004612091565b6004602052600090815260409020546001600160a01b031681565b34801561054a57600080fd5b50610297610559366004612190565b610f79565b61029761056c3660046120f0565b6107e6565b34801561057d57600080fd5b5061039961058c3660046120f0565b60036020526000908152604090205481565b3480156105aa57600080fd5b506102976105b93660046121e3565b610fc9565b3480156105ca57600080fd5b506102e8611292565b3480156105df57600080fd5b506102976105ee366004612091565b61129f565b3480156105ff57600080fd5b5061039961060e3660046120f0565b60086020526000908152604090205481565b34801561062c57600080fd5b506102e86112e8565b34801561064157600080fd5b5061029761065036600461223b565b6112f5565b34801561066157600080fd5b506102be6106703660046120c6565b61137f565b34801561068157600080fd5b50610297610690366004612277565b6114d4565b3480156106a157600080fd5b506106b56106b03660046122bc565b61179e565b6040516102ca9190612331565b3480156106ce57600080fd5b506103997fdaab21af31ece73a508939fedd476a5ee5129a5ed4bb091f3236ffb45394df6281565b34801561070257600080fd5b50610297610711366004612439565b61190e565b34801561072257600080fd5b50610297610731366004612190565b611a1f565b34801561074257600080fd5b506102e8610751366004612091565b611a6f565b34801561076257600080fd5b50610297611b03565b34801561077757600080fd5b506102976107863660046124e4565b611b5f565b34801561079757600080fd5b506102be6107a6366004612530565b600660209081526000928352604080842090915290825290205460ff1681565b3480156107d257600080fd5b506102e86107e1366004612091565b611bc8565b600c543414610821576040517f70d6b1a800000000000000000000000000000000000000000000000000000000815260040160405180910390fd5b60025461082e8282611be1565b5050565b60007f80ac58cd000000000000000000000000000000000000000000000000000000007fffffffff00000000000000000000000000000000000000000000000000000000831614806108c557507f5b5e139f000000000000000000000000000000000000000000000000000000007fffffffff000000000000000000000000000000000000000000000000000000008316145b8061091157507f01ffc9a7000000000000000000000000000000000000000000000000000000007fffffffff000000000000000000000000000000000000000000000000000000008316145b92915050565b6000805461092490612563565b80601f016020809104026020016040519081016040528092919081815260200182805461095090612563565b801561099d5780601f106109725761010080835404028352916020019161099d565b820191906000526020600020905b81548152906001019060200180831161098057829003601f168201915b505050505081565b6000818152600460205260409020546001600160a01b03163381148015906109f157506001600160a01b038116600090815260066020908152604080832033845290915290205460ff16155b15610a28576040517fc19f17a900000000000000000000000000000000000000000000000000000000815260040160405180910390fd5b60008281526005602052604080822080547fffffffffffffffffffffffff0000000000000000000000000000000000000000166001600160a01b0387811691821790925591518593918516917f8c5be1e5ebec7d5bd14f71427d1e84f3dd0314c0f7b2291e5b200ac8c7c3b92591a4505050565b6009546001600160a01b03163314610ae0576040517fb56f932c00000000000000000000000000000000000000000000000000000000815260040160405180910390fd5b600980547fffffffffffffffffffffffff0000000000000000000000000000000000000000166001600160a01b0392909216919091179055565b6009546001600160a01b03163314610821576040517fb56f932c00000000000000000000000000000000000000000000000000000000815260040160405180910390fd5b6000818152600460205260409020546001600160a01b03848116911614610bb1576040517f30cd747100000000000000000000000000000000000000000000000000000000815260040160405180910390fd5b6001600160a01b038216610bf1576040517f9c8d2cd200000000000000000000000000000000000000000000000000000000815260040160405180910390fd5b336001600160a01b03841614801590610c2157506000818152600560205260409020546001600160a01b03163314155b8015610c5157506001600160a01b038316600090815260066020908152604080832033845290915290205460ff16155b15610c88576040517fc19f17a900000000000000000000000000000000000000000000000000000000815260040160405180910390fd5b6001600160a01b03808416600081815260036020908152604080832080547fffffffffffffffffffffffffffffffffffffffffffffffffffffffffffffffff019055938616808352848320805460010190558583526005825284832080547fffffffffffffffffffffffff00000000000000000000000000000000000000009081169091556004909252848320805490921681179091559251849392917fddf252ad1be2c89b69c2b068fc378daa952ba7f163c4a11628f55a4df523b3ef91a4505050565b6009546001600160a01b03163314610d91576040517fb56f932c00000000000000000000000000000000000000000000000000000000815260040160405180910390fd5b610d9a81611cff565b50565b600b805461092490612563565b60007f00000000000000000000000000000000000000000000000000000000000000004614610de057610ddb611e0d565b905090565b507f000000000000000000000000000000000000000000000000000000000000000090565b610e10838383610b5e565b6001600160a01b0382163b15801590610eed57506040517f150b7a02000000000000000000000000000000000000000000000000000000008082523360048301526001600160a01b03858116602484015260448301849052608060648401526000608484015290919084169063150b7a029060a4016020604051808303816000875af1158015610ea4573d6000803e3d6000fd5b505050506040513d601f19601f82011682018060405250810190610ec891906125b7565b7fffffffff000000000000000000000000000000000000000000000000000000001614155b15610f24576040517f9c8d2cd200000000000000000000000000000000000000000000000000000000815260040160405180910390fd5b505050565b6000818152600460205260409020546001600160a01b03163314610d91576040517f30cd747100000000000000000000000000000000000000000000000000000000815260040160405180910390fd5b6009546001600160a01b03163314610fbd576040517fb56f932c00000000000000000000000000000000000000000000000000000000815260040160405180910390fd5b610f24600b8383611f1d565b83421115611003576040517f0819bdcd00000000000000000000000000000000000000000000000000000000815260040160405180910390fd5b6000858152600460205260408120546001600160a01b031690611024610daa565b60008881526007602090815260409182902080546001810190915582517f49ecf333e5b8c95c40fdafc95c1ad136e8914a8fb55e9dc8bb01eaa83a2df9ad818401526001600160a01b038d1681850152606081018c9052608081019190915260a08082018b90528351808303909101815260c08201909352825192909101919091207f190100000000000000000000000000000000000000000000000000000000000060e083015260e28201929092526101028101919091526101220160408051601f198184030181528282528051602091820120600080855291840180845281905260ff89169284019290925260608301879052608083018690529092509060019060a0016020604051602081039080840390855afa15801561114c573d6000803e3d6000fd5b5050604051601f1901519150506001600160a01b038116611199576040517f8baa579f00000000000000000000000000000000000000000000000000000000815260040160405180910390fd5b826001600160a01b0316816001600160a01b0316141580156111e157506001600160a01b0380841660009081526006602090815260408083209385168352929052205460ff16155b15611218576040517f8baa579f00000000000000000000000000000000000000000000000000000000815260040160405180910390fd5b505060008681526005602052604080822080547fffffffffffffffffffffffff0000000000000000000000000000000000000000166001600160a01b038b811691821790925591518993918516917f8c5be1e5ebec7d5bd14f71427d1e84f3dd0314c0f7b2291e5b200ac8c7c3b92591a450505050505050565b600a805461092490612563565b6009546001600160a01b031633146112e3576040517fb56f932c00000000000000000000000000000000000000000000000000000000815260040160405180910390fd5b600c55565b6001805461092490612563565b3360008181526006602090815260408083206001600160a01b0387168085529083529281902080547fffffffffffffffffffffffffffffffffffffffffffffffffffffffffffffff001686151590811790915590519081529192917f17307eab39ab6107e8899845ad3d59bd9653f200f220920489ca2b5937696c31910160405180910390a35050565b6000818152600460205260408120546001600160a01b031633146113cf576040517f30cd747100000000000000000000000000000000000000000000000000000000815260040160405180910390fd5b6001600160a01b03831661140f576040517f9c8d2cd200000000000000000000000000000000000000000000000000000000815260040160405180910390fd5b33600081815260036020908152604080832080547fffffffffffffffffffffffffffffffffffffffffffffffffffffffffffffffff0190556001600160a01b038716808452818420805460010190558684526005835281842080547fffffffffffffffffffffffff000000000000000000000000000000000000000090811690915560049093528184208054909316811790925551859391927fddf252ad1be2c89b69c2b068fc378daa952ba7f163c4a11628f55a4df523b3ef91a450600192915050565b8342111561150e576040517f0819bdcd00000000000000000000000000000000000000000000000000000000815260040160405180910390fd5b6000611518610daa565b6001600160a01b0388811660008181526008602090815260409182902080546001810190915582517fdaab21af31ece73a508939fedd476a5ee5129a5ed4bb091f3236ffb45394df628184015280840194909452938b166060840152608083019390935260a08083018a90528151808403909101815260c0830190915280519201919091207f190100000000000000000000000000000000000000000000000000000000000060e083015260e28201929092526101028101919091526101220160408051601f198184030181528282528051602091820120600080855291840180845281905260ff88169284019290925260608301869052608083018590529092509060019060a0016020604051602081039080840390855afa158015611643573d6000803e3d6000fd5b5050604051601f1901519150506001600160a01b038116611690576040517f8baa579f00000000000000000000000000000000000000000000000000000000815260040160405180910390fd5b876001600160a01b0316816001600160a01b0316141580156116d857506001600160a01b0380891660009081526006602090815260408083209385168352929052205460ff16155b1561170f576040517f8baa579f00000000000000000000000000000000000000000000000000000000815260040160405180910390fd5b50506001600160a01b038681166000818152600660209081526040808320948a168084529482529182902080547fffffffffffffffffffffffffffffffffffffffffffffffffffffffffffffff0016600190811790915591519182527f17307eab39ab6107e8899845ad3d59bd9653f200f220920489ca2b5937696c31910160405180910390a3505050505050565b60608167ffffffffffffffff8111156117b9576117b96123b1565b6040519080825280602002602001820160405280156117ec57816020015b60608152602001906001900390816117d75790505b50905060005b828110156119075760008030868685818110611810576118106125d4565b90506020028101906118229190612603565b604051611830929190612668565b600060405180830381855af49150503d806000811461186b576040519150601f19603f3d011682016040523d82523d6000602084013e611870565b606091505b5091509150816118df5760448151101561188957600080fd5b600481019050808060200190518101906118a39190612678565b6040517f08c379a00000000000000000000000000000000000000000000000000000000081526004016118d6919061207e565b60405180910390fd5b808484815181106118f2576118f26125d4565b602090810291909101015250506001016117f2565b5092915050565b611919848484610b5e565b6001600160a01b0383163b158015906119e257506040517f150b7a0200000000000000000000000000000000000000000000000000000000808252906001600160a01b0385169063150b7a029061197a9033908990889088906004016126ef565b6020604051808303816000875af1158015611999573d6000803e3d6000fd5b505050506040513d601f19601f820116820180604052508101906119bd91906125b7565b7fffffffff000000000000000000000000000000000000000000000000000000001614155b15611a19576040517f9c8d2cd200000000000000000000000000000000000000000000000000000000815260040160405180910390fd5b50505050565b6009546001600160a01b03163314611a63576040517fb56f932c00000000000000000000000000000000000000000000000000000000815260040160405180910390fd5b610f24600a8383611f1d565b6060600a8054611a7e90612563565b80601f0160208091040260200160405190810160405280929190818152602001828054611aaa90612563565b8015611af75780601f10611acc57610100808354040283529160200191611af7565b820191906000526020600020905b815481529060010190602001808311611ada57829003601f168201915b50505050509050919050565b6009546001600160a01b03163314611b47576040517fb56f932c00000000000000000000000000000000000000000000000000000000815260040160405180910390fd5b600954611b5d906001600160a01b031647611ed8565b565b6000838152600460205260409020546001600160a01b03163314611baf576040517f30cd747100000000000000000000000000000000000000000000000000000000815260040160405180910390fd5b6000838152600d60205260409020611a19908383611f1d565b600d602052600090815260409020805461092490612563565b6001600160a01b038216611c21576040517f9c8d2cd200000000000000000000000000000000000000000000000000000000815260040160405180910390fd5b6000818152600460205260409020546001600160a01b031615611c70576040517fddefae2800000000000000000000000000000000000000000000000000000000815260040160405180910390fd5b6002805460019081019091556001600160a01b038316600081815260036020908152604080832080549095019094558482526004905282812080547fffffffffffffffffffffffff0000000000000000000000000000000000000000168317905591518392907fddf252ad1be2c89b69c2b068fc378daa952ba7f163c4a11628f55a4df523b3ef908290a45050565b6000818152600460205260409020546001600160a01b031680611d4e576040517f4d5e5fb300000000000000000000000000000000000000000000000000000000815260040160405180910390fd5b600280547fffffffffffffffffffffffffffffffffffffffffffffffffffffffffffffffff9081019091556001600160a01b038216600081815260036020908152604080832080549095019094558582526004815283822080547fffffffffffffffffffffffff00000000000000000000000000000000000000009081169091556005909152838220805490911690559151849291907fddf252ad1be2c89b69c2b068fc378daa952ba7f163c4a11628f55a4df523b3ef908390a45050565b60007f8b73c3c69bb8fe3d512ecc4cf759cc79239f7b179b0ffacaa9a75d522b39400f6000604051611e3f919061272b565b604080519182900382208282018252600183527f31000000000000000000000000000000000000000000000000000000000000006020938401528151928301939093528101919091527fc89efdaa54c0f20c7adf612882df0950f5a951637e0307cdcb4c672f298b8bc660608201524660808201523060a082015260c00160405160208183030381529060405280519060200120905090565b600080600080600085875af1905080610f24576040517f23c133f200000000000000000000000000000000000000000000000000000000815260040160405180910390fd5b828054611f2990612563565b90600052602060002090601f016020900481019282611f4b5760008555611faf565b82601f10611f82578280017fffffffffffffffffffffffffffffffffffffffffffffffffffffffffffffff00823516178555611faf565b82800160010185558215611faf579182015b82811115611faf578235825591602001919060010190611f94565b50611fbb929150611fbf565b5090565b5b80821115611fbb5760008155600101611fc0565b7fffffffff0000000000000000000000000000000000000000000000000000000081168114610d9a57600080fd5b60006020828403121561201457600080fd5b813561201f81611fd4565b9392505050565b60005b83811015612041578181015183820152602001612029565b83811115611a195750506000910152565b6000815180845261206a816020860160208601612026565b601f01601f19169290920160200192915050565b60208152600061201f6020830184612052565b6000602082840312156120a357600080fd5b5035919050565b80356001600160a01b03811681146120c157600080fd5b919050565b600080604083850312156120d957600080fd5b6120e2836120aa565b946020939093013593505050565b60006020828403121561210257600080fd5b61201f826120aa565b60008060006060848603121561212057600080fd5b612129846120aa565b9250612137602085016120aa565b9150604084013590509250925092565b60008083601f84011261215957600080fd5b50813567ffffffffffffffff81111561217157600080fd5b60208301915083602082850101111561218957600080fd5b9250929050565b600080602083850312156121a357600080fd5b823567ffffffffffffffff8111156121ba57600080fd5b6121c685828601612147565b90969095509350505050565b803560ff811681146120c157600080fd5b60008060008060008060c087890312156121fc57600080fd5b612205876120aa565b95506020870135945060408701359350612221606088016121d2565b92506080870135915060a087013590509295509295509295565b6000806040838503121561224e57600080fd5b612257836120aa565b91506020830135801515811461226c57600080fd5b809150509250929050565b60008060008060008060c0878903121561229057600080fd5b612299876120aa565b95506122a7602088016120aa565b945060408701359350612221606088016121d2565b600080602083850312156122cf57600080fd5b823567ffffffffffffffff808211156122e757600080fd5b818501915085601f8301126122fb57600080fd5b81358181111561230a57600080fd5b8660208260051b850101111561231f57600080fd5b60209290920196919550909350505050565b6000602080830181845280855180835260408601915060408160051b870101925083870160005b828110156123a4577fffffffffffffffffffffffffffffffffffffffffffffffffffffffffffffffc0888603018452612392858351612052565b94509285019290850190600101612358565b5092979650505050505050565b7f4e487b7100000000000000000000000000000000000000000000000000000000600052604160045260246000fd5b604051601f8201601f1916810167ffffffffffffffff81118282101715612409576124096123b1565b604052919050565b600067ffffffffffffffff82111561242b5761242b6123b1565b50601f01601f191660200190565b6000806000806080858703121561244f57600080fd5b612458856120aa565b9350612466602086016120aa565b925060408501359150606085013567ffffffffffffffff81111561248957600080fd5b8501601f8101871361249a57600080fd5b80356124ad6124a882612411565b6123e0565b8181528860208385010111156124c257600080fd5b8160208401602083013760006020838301015280935050505092959194509250565b6000806000604084860312156124f957600080fd5b83359250602084013567ffffffffffffffff81111561251757600080fd5b61252386828701612147565b9497909650939450505050565b6000806040838503121561254357600080fd5b61254c836120aa565b915061255a602084016120aa565b90509250929050565b600181811c9082168061257757607f821691505b602082108114156125b1577f4e487b7100000000000000000000000000000000000000000000000000000000600052602260045260246000fd5b50919050565b6000602082840312156125c957600080fd5b815161201f81611fd4565b7f4e487b7100000000000000000000000000000000000000000000000000000000600052603260045260246000fd5b60008083357fffffffffffffffffffffffffffffffffffffffffffffffffffffffffffffffe184360301811261263857600080fd5b83018035915067ffffffffffffffff82111561265357600080fd5b60200191503681900382131561218957600080fd5b8183823760009101908152919050565b60006020828403121561268a57600080fd5b815167ffffffffffffffff8111156126a157600080fd5b8201601f810184136126b257600080fd5b80516126c06124a882612411565b8181528560208385010111156126d557600080fd5b6126e6826020830160208601612026565b95945050505050565b60006001600160a01b038087168352808616602084015250836040830152608060608301526127216080830184612052565b9695505050505050565b600080835481600182811c91508083168061274757607f831692505b6020808410821415612780577f4e487b710000000000000000000000000000000000000000000000000000000086526022600452602486fd5b81801561279457600181146127c3576127f0565b7fffffffffffffffffffffffffffffffffffffffffffffffffffffffffffffff008616895284890196506127f0565b60008a81526020902060005b868110156127e85781548b8201529085019083016127cf565b505084890196505b50949897505050505050505056fea264697066735822122021776395136f33b87cf494ab453989f8e2131513904582094b19426fd057192f64736f6c634300080b0033",
  "linkReferences": {},
  "deployedLinkReferences": {}
}